:020000040800F2
:10000000A88D0020393B0008091A0008091A0008C9
:10001000091A0008091A0008091A0008091A000834
:10002000091A0008091A0008091A0008091A000824
:10003000091A0008091A0008091A0008091A000814
:10004000091A0008091A0008091A0008091A000804
:10005000091A0008091A0008091A0008091A0008F4
:10006000091A0008091A0008091A0008091A0008E4
:10007000091A0008091A0008091A0008091A0008D4
:10008000091A0008091A0008091A0008091A0008C4
:10009000091A0008D5020008091A0008091A000800
:1000A000091A0008091A0008091A0008091A0008A4
:1000B000091A0008091A0008091A0008091A000894
:1000C000091A0008091A0008091A0008091A000884
:1000D000091A0008091A0008091A0008091A000874
:1000E000091A0008091A0008091A0008091A000864
:1000F000091A0008091A0008091A0008091A000854
:10010000091A0008091A0008091A0008091A000843
:10011000091A0008091A0008091A0008091A000833
:10012000091A0008091A0008091A0008091A000823
:10013000091A0008091A0008091A0008091A000813
:10014000091A0008091A0008091A0008091A000803
:10015000091A0008091A0008091A0008091A0008F3
:10016000091A0008091A0008091A0008091A0008E3
:100170000068704703684BB11A4612F8011B20292A
:100180000BD93A29F9D11978302902D04FF0FF3034
:10019000704702339A42F9D102600020704744F25E
:1001A000AA23044A5843516A536A5B1A8342FBD319
:1001B000704700BF0080045080220C4B1A64052257
:1001C00003F500335A61A3F580539A695206FCD5B2
:1001D0009A699107F9D5D8639A699206FCD540F6D9
:1001E0000A42586A024BC0B25A61704700D00350AD
:1001F00000D005500422024BFF201A67DCE700BF45
:1002000000D0035082B006220C4B8DF807005A61D3
:10021000A3F580539A695006FCD59A699107F9D5E0
:100220009DF80720D2B2DA639A699206FCD540F6AF
:100230000A02024B5A6102B0704700BF00D005505D
:100240002DE9F84F0446DFF86880DFF868902078E1
:10025000FF2801D1BDE8F88F8025A246C8F8A0503C
:10026000C8F84050FFF7CEFFC9F840501AF801BF58
:100270000BF07F073E46013EF6B2FF2E1AF8010F43
:100280000CD102371BF0800F3C44E0D0FF2808BFA0
:100290004FF4FA700134FFF782FFD8E7C9F8A05095
:1002A000C8F84050FFF7AEFFC9F84050E3E700BF81
:1002B00000E0035000D003509728D2BF034B044BFB
:1002C000983800EB800003EB801070477493002097
:1002D0009C1E0320684A136DDB0640F1AF8070B5A9
:1002E0001021664C664B216593F80D02A3F540453D
:1002F00000280CBFBE26FA26B3F8080280B2B0422E
:1003000000F39D80616393F80A02C0F1010005EBE0
:1003100040200430C2F828015A48C2F8240102F5EE
:1003200080525162B3F8082292B2F92A00F2918009
:10033000D3F8041203F50172914200F0918000207D
:1003400093F80A222E6805EB4222044610258446C3
:1003500086460432AFF30080AFF30080AFF3008035
:1003600008784C7891F802C091F803E036F8100054
:1003700036F8144036F81CC036F81EE040EA044057
:10038000C2F800004CEA0E4CC2F804C008794C795F
:1003900091F806C091F807E036F8100036F81440DE
:1003A00036F81CC036F81EE040EA0440C2F80800E7
:1003B0004CEA0E4CC2F80CC0087A4C7A91F80AC08C
:1003C00091F80BE036F8100036F8144036F81CC0EF
:1003D00036F81EE040EA0440C2F810004CEA0E4C29
:1003E000C2F814C0087B4C7B91F80EC091F80FE066
:1003F00036F8100036F8144036F81CC036F81EE007
:1004000040EA0440C2F818004CEA0E4CC2F81CC086
:1004100002F1200201F11001013DA1D1B3F808223F
:10042000C3F80412013292B2A3F8082293F80A2208
:10043000C2F10102D2B283F80A2270BD7047FB25D7
:100440000020114AA3F80852616383F80E029162FA
:1004500070BDB3F80822013292B2A3F8082270BD31
:100460000A4993F80D22C3F8041212B9FB22A3F82B
:100470000822064963E700BF000004500020045032
:10048000704F0120F00F8034001004509C1E032098
:1004900030B50022144B1A70144A154B596451643C
:1004A0004FF48071A2F5D02291609A6C9507FCD52B
:1004B0009A6C9406FCD50D4B9A6C9107FCD59A6CFE
:1004C0009206FCD50A4A0B4DD46BD96B0A23AB6359
:1004D000094DAB63936C9D07FCD4044A936C9B0756
:1004E000FCD4C0E9004130BD000000B000000A505B
:1004F0000000015B0010015B00100A507FB5202353
:10050000164C05216846C4F8D030FFF7C1FF144EE1
:10051000FF2102A8FFF7BCFFDDE90232FF2B01D06B
:10052000FF2A11D120250120C6F8D050FFF737FE51
:1005300005216846C4F8D050FFF7AAFFFF2102A8A2
:10054000FFF7A6FFDDE902321343DB07E0D42022E8
:10055000034BC3F8D02004B070BD00BF00E00350CF
:1005600000D0035037B52025074C062104F5005371
:100570006846C3F8D050FFF78BFF04F58054C4F8E9
:10058000D05003B030BD00BF00C0035030B50023D1
:10059000012413481349144A4B6053600370134BF2
:1005A00080F81C41D8699C0864F39F00D86103F16E
:1005B0002004D86BA50865F39F00D8630C48046736
:1005C000C0F8A0304B689807FCD453689B07FCD454
:1005D0000A2304494B61536101234B60536030BDD2
:1005E000000000B00000015B00000A50B48D002044
:1005F000000004500F220F4B0F489A624FF4807294
:10060000A3F5C043DA6000220C4903F5CC234A600D
:100610005A60027080F81C214A689007FCD45A681E
:100620009207FCD4022205494A615A6101224A60BC
:100630005A60704700000450000000B00000015BE9
:10064000B1B1C0F5006000F14F039E2B13D9B0F596
:10065000A06F12DA10F5A06F11DD0A230028CBBFBE
:1006600050385030B0FBF3F090FBF3F040B27047DD
:10067000A0F50060E7E7002070477F2070476FF02B
:100680007F0070474FF00A000138FDD170479A4251
:1006900038BF8854704770472DE9F04F87B09846AF
:1006A000109B1646DDE91452019107469DF844E07F
:1006B000129902F4806923B922F01002B9F1000FF7
:1006C00020D112F0200F14BF412061201C460023CE
:1006D0000DF1080AA0F10A0BB4FBF1FC01FB1C4C64
:1006E0005FFA8CF0BCF1090F94BF30305844C0B2AF
:1006F0008C420AF8010B03F10103B4FBF1F001D3C2
:10070000102B10D112F0020A1ED102F001003DB1EF
:1007100030B1BEF1000F02D112F00C0F00D0013D3C
:100720004FF0300C05E00446D6E702AC04F803C0F5
:100730000133139C9C4201D9102BF6D120B13020FB
:100740009D4201D90F2B0BD9D00646D5B9F1000F28
:1007500047D11BBB102907D1910618D5582306E0B5
:1007600002ACE0540133EBE7022912D162238DF889
:10077000083030238DF809300223BEF1000F5DD020
:100780002D215C1C18336B4403F8101C37E07823D0
:10079000EDE730238DF808300123EEE713989842F7
:1007A00001D0AB421DD15C1E2046D3D010293CD1D4
:1007B0009C1E930676D40F2C21D804F118030DEB60
:1007C0000304782304F8103C044604F11801631C68
:1007D0000DEB0104302104F8101C0F2BCDD91C4661
:1007E0000DE0102920D194065BD40F2BF7D8782187
:1007F0005C1C18336B4403F8101C0F2CE5D99307CD
:100800003CD0B146A1444846A9EB0402002C39D1A2
:10081000BAF1000F05D0A9EB06094D4506EB09001A
:1008200037D807B0BDE8F08F1C460229E5D10F2C60
:10083000E5D804F1180362216B4439E0500704D570
:100840005C1C18332B216B449EE71107C7D55C1C39
:10085000183320216B4497E7434620200199B8477D
:1008600009F101094D450BEB0902F5D8A5EB040987
:10087000A54238BF4FF00009B144C3E7A146A6EB3B
:10088000040BEFE7013C02A843460199005DB8471D
:10089000B9E70246434620200199B84709F101090A
:1008A000BBE71C460F2CAAD8582104F118036B444F
:1008B00003F8101C0134A0E72DE9F04F8DB01F465E
:1008C0000B1E0693A84B914614BF83469B460025FA
:1008D000169E387870B94D4538BF2A464B464FF0C2
:1008E0000000069928BF09F1FF32D84728460DB00D
:1008F000BDE8F08F252807F1010706D02A464B46B0
:1009000006996C1CD8472546E3E700230DE02D2A05
:1009100029D0302A06D0303A092A4FF0000812D8E0
:100920000A2431E043F001030F46394611F8012B48
:100930002B2A1BD0EBD8202A1BD0232A1CD02A2AF2
:100940002AD04FF000083A782E2A66D179787A1C9E
:10095000A1F13000092843F4806355D817464FF0C1
:10096000000A0A2428E043F00203DDE743F0040311
:10097000DAE743F00803D7E743F01003D4E70F4664
:1009800004FB0822A2F13008394611F8012BA2F12C
:1009900030000928F3D9D6E756F8048B0F46B8F192
:1009A000000FBCBF43F00203C8F10008CBE70F46BD
:1009B00004FB0A22A2F1300A394611F8012BA2F1F8
:1009C00030000928F3D93A4612F8011B6C292CD0C3
:1009D00026D8682930D06A2938D017F8010B782832
:1009E0008CD8632835D8622860D0632800F0D18085
:1009F000252883D0582881D15A0500F1848023F01E
:100A00000C0242F020024FE02A2905D156F8042BAF
:100A1000023722EAE27AD6E717464FF0000AD2E719
:100A20007A29DAD143F480730BE079786C29F9D113
:100A300043F440730237D0E77978682903D043F054
:100A400080031746C9E743F0C003F3E743F400739C
:100A5000F7E70122A0F16404E4B202FA04F4434A85
:100A6000144019D1732800F0D18070287FF446AF6C
:100A700043F0210305930823CDE903A31023CDE917
:100A8000014356F8043B2A46009358464B460699C4
:100A9000FFF702FE05461CE7782803F480611BD1AE
:100AA00000295DD023F00D02102306E0590554BF44
:100AB00023F00C0223F00D02022312F400717FF4E4
:100AC00008AFD00506F1040452D5CDE90482CDE982
:100AD000023A0191336834E06F2807D119B923F045
:100AE0000C020823E9E723F00D02FAE7692823F056
:100AF00010020BD0642809D023F01C0209B123F0A6
:100B00001D020A23D9E723F00D027AE709B123F089
:100B1000110294053FF5DDAED00506F1040401D5C0
:100B2000336802E0510616D53378CDE904820A22F3
:100B3000002B02924FEAD372CDF80CA00192B8BFFD
:100B40005B4200932A464B4658460699FFF7A4FDA0
:100B500026460546BDE61306E2D5B6F90030E4E7C1
:100B600023F00C02A0E700BF97060008210812003E
:100B7000510608D53178CDE9023A0023CDE9048247
:100B8000CDE90013DEE7316812F0800F18BF89B29B
:100B9000F1E713F0020424D04FF0010A6B1C079315
:100BA0002A464B46069916F8040BD84764B35446B8
:100BB000079A1FE04B4620200699D84705EB0A020A
:100BC0000AF1010AD045F5D8B8F1000F08F1FF335A
:100BD00008BF002308F1010A1D4408BF4FF0020AB4
:100BE000DCE7A246EAE7551C4B4620200699D84789
:100BF0002A4601344445F6D3A8EB0A03D04538BF52
:100C00000023079A1A440792079D62E6324652F87B
:100C1000041BBAF1000FCDE9071214BF52464FF082
:100C2000FF3239B10C460A44217809B1A24210D1F1
:100C3000079AA41A13F48062099202D0544528BF7F
:100C4000544613F002030A9317D1631B2A460B93F1
:100C500007E00134E8E7561C4B4620200699D847A8
:100C600032460B9BD3184345F5D3A8EB0403A045AC
:100C700038BF002301341D441C44184E079B002B31
:100C800008BF33461E46EB1A0793079BF51816F864
:100C9000010B30B1099B53B10AF1FF33BAF1000FD8
:100CA00004D10A9BC3B12A46661B0CE09A464B4608
:100CB0002A460699D847E8E702F1010A4B46202068
:100CC0000699D847524693199845F5D8A8EB0403DE
:100CD000A04538BF00231D44089EFAE5007F0808A0
:100CE000054B9A6C9204FCD59A6C9107F9D558641F
:100CF0009A6C9206FCD5704700000A5000B1EFE7ED
:100D0000704700BF30B44FF480341D4A1D4B9466C9
:100D10001B6F1A0B12F00E0FC3F303331BD10133F9
:100D200041F67135184A03FB00F0D469D563526867
:100D300004F4803422F44012A1B9144B984294BFB9
:100D4000002001200305104913434B600CB1002320
:100D5000CB6330BC7047072B0FD00F2B0BD0032B6E
:100D600007D0FEE70A4B984294BF002001200305FC
:100D7000E9E70423D4E71023D2E70823D0E700BF34
:100D8000009000500080005000000350005A6202A2
:100D9000002D31010C4B1B6F03F00703022B10D009
:100DA000032B0BD0012B00D0FEE70848064B1B6F2E
:100DB000C3F303330133B0FBF3F07047044B586CBB
:100DC000F4E7034B186CF1E700800050002D31016F
:100DD000B48D0020094B1B6F03F00703022B09D0D1
:100DE000032B04D0012B00D0FEE705487047054BCC
:100DF000586C7047034B186C704700BF0080005060
:100E0000002D3101B48D0020314BD3F8203103F097
:100E10000703062B5BD8DFE803F00C2A22040E1E22
:100E2000260002222B4B00BF00B1036001B10A6013
:100E300070470122F8E74FF0B4439A68C2F30442C6
:100E40000C2A18D8DFE802F02617171717173735BE
:100E50002317201D1A00204B06221B6CE4E71E4BB3
:100E600003225B6CE0E71C4B04225B6CDCE71A4B53
:100E700005221B6CD8E707220023D5E70722174B72
:100E8000D2E70722164BCFE70722164BCCE7072203
:100E9000154BC9E74FF0B4439B6803F04073B3F1BF
:100EA000807F11D0B3F1007F0BD03BB113460722F6
:100EB000BAE70E4BB8E707220D4BB5E707220D4BFB
:100EC000B2E707220C4BAFE707220C4BACE7FEE77B
:100ED00000800050002D3101B48D0020005A6202C4
:100EE0000048E80180BA8C01C0EA21010024F40026
:100EF000405DC60000093D0040420F0080841E0096
:100F000000B583B00023B0F5807F009300F2088124
:100F1000B0F5807F00F20381DFE810F014010101D9
:100F200001010101010101010101010101010101B1
:100F300001010101010101010101010101010101A1
:100F40000101010101010101010101010101010191
:100F50000101010101010101010101011401060169
:100F600014010601220122012201220122010601AF
:100F7000D0012A01380128022A01060106010601D2
:100F80000101010101010101010101010101010151
:100F90000601060106011B020E0206010101010104
:100FA0000101010101010101010101010101010131
:100FB0000101010101012201140114011401E501E3
:100FC0002A012A0164025802980245010101010127
:100FD000010101010101800114010101010101016F
:100FE00001010101010101010101010101010101F1
:100FF00001010101010101010101010101010101E1
:1010000001010101010101010101010101010101D0
:10101000010101010101010101010101720101014F
:1010200001010101010101010101010101010101B0
:1010300001010101010101010101010101010101A0
:101040000101010101010101010101010101010190
:101050000101010101010101010101010101010180
:101060000101010101010101010101010101010170
:101070000101010101010101010101010101010160
:101080000101010101010101010101010101010150
:101090000101010101010101010101010101010140
:1010A0000101010101010101010101010101010130
:1010B0000101010101010101010101010101010120
:1010C0000101010101010101010101010101010110
:1010D0000101010101010101010101010101010100
:1010E00001010101010101010101010101010101F0
:1010F00001010101010101010101010101010101E0
:1011000001010101010101010101010101010101CF
:10111000010101010101010101010101BB01FEE722
:10112000B0F5C07F0ED0FAE7A54B1B6F03F00703A5
:10113000022B00F0D582032B00F0CF82012B00F0B0
:10114000A382FEE79E4B1B6F03F00703022B00F008
:10115000C182032B00F0BB82012B00F08C82FEE7E2
:1011600068460021FFF750FE009803B05DF804FBCD
:10117000934B1B6F03F00703022B00F0E482032B59
:1011800000F0A282012B00F06682FEE78C4BD3F8C0
:10119000403103F00303032B00F05882003B18BFDB
:1011A0000123D803E1E7864BD3F8283103F0070386
:1011B000013B052B00F23A83DFE803F00603090B3D
:1011C0000603804B586CD0E77E4B186CCDE77E4809
:1011D000CBE74FF0B4439868C0F304400C2800F20A
:1011E0007881DFE810F0EB01760176017601760177
:1011F000760109020702030276010102FF01FD01E7
:101200006F4B1B6F03F00703022B00F05A82032B76
:1012100000F05482012B00F01C82FEE70022684B94
:101220000192D3F8943203F00703013B032B00F241
:10123000FF82DFE803F011040217634895E7604B73
:10124000D3F8403103F00303032B00F09482003BFA
:1012500018BF0123D80388E701A80021FFF7D4FDB8
:10126000019882E74FF0B4439868C0F304400C281B
:1012700000F22581DFE810F0700123012301230132
:10128000230123018E018C018A012301880186013B
:1012900084014FF0E0231B6913F0040F484B00F06A
:1012A000AD811B6F03F00703022B00F05E82032B5E
:1012B00000F05882012B00F04C82FEE70021404BE9
:1012C0000191D3F8803103F00303022B00F039823F
:1012D000032B00F00882012B00D0FEE701A8FFF7E6
:1012E00093FD019841E7364BD3F8080200F0070060
:1012F000042800F29A8201A353F820F06B11000831
:101300001113000811130008171300081D1300081B
:101310004FF4004029E74FF47A7026E7284B1B6F03
:1013200003F00703022B00F04382032B00F03D8201
:10133000012B00F03082FEE7214BD3F8403203F05E
:101340000303032B00F06881003B18BF0123D8037F
:101350000BE71B4BD3F8603103F00303032B00F0C2
:101360005E81003B18BF0123D803FEE6144BD3F87F
:10137000000200F00700042800F2598201A353F88C
:1013800020F000BF6B1100089913000899130008A2
:101390009F130008A51300084FF40040E5E64FF442
:1013A0007A70E2E6064B1B6F03F00703022B00F096
:1013B0000582032B00F0FF81012B00F0E281FEE7A4
:1013C00000800050B48D0020002D3101954AD2F8E4
:1013D000703203F00303012B00F06581022B00F053
:1013E0001981FEE700228F4B0192D3F8603203F09F
:1013F0000703013B032B00F21C82DFE803F011041A
:1014000002178948B1E6874BD3F8403103F0030354
:10141000032B00F0B381003B18BF0123D803A4E6DF
:1014200001A80021FFF7F0FC01989EE64FF0B443BD
:101430009868C0F304400C283FD8DFE800F0653E10
:101440003E3E3E3E7977B33EB1AFAD00754BD3F82B
:10145000200200F00700042800F2EC8101A353F8F9
:1014600020F000BF6B1100089F1400087F140008D3
:1014700079140008791400084FF4004075E64FF025
:10148000B4439868C0F304400C2820D8DFE800F08B
:10149000521F1F1F1F1F9492901F8E768C00614B4E
:1014A000D3F8283103F00703013B052B00F2C38179
:1014B000DFE803F00A0711130A07002055E60020B1
:1014C00053E65A4B586C50E6584B186C4DE60020CA
:1014D0004BE6002049E6544847E64FF0B44398688D
:1014E000C0F304400C2800F28380DFE810F0820192
:1014F0008100810081008100810080017E019801CE
:1015000081009601940192014FF0B4439B6803F06F
:101510004073B3F1807F00F05681B3F1007F00F09B
:101520005081434A002B08BF10461EE641481CE686
:1015300041481AE64FF0B4439B6803F04073B3F19F
:10154000807F00F04681B3F1007F00F04081384A8F
:10155000002B08BF104608E64FF0B4439B6803F029
:101560004073B3F1807F00F03881B3F1007F00F069
:1015700032812F4A002B08BF1046F6E52F48F4E5CC
:101580002F48F2E52D48F0E52E48EEE52E48ECE533
:101590002848EAE52848E8E52948E6E52748E4E55B
:1015A0002848E2E52848E0E52548DEE52548DCE571
:1015B0002548DAE51F48D8E51F48D6E54FF0B44383
:1015C0009B6803F04073B3F1807F00F00C81B3F1AE
:1015D000007F00F0FA80164A002B08BF1046C4E5D1
:1015E0001748C2E51548C0E51648BEE51648BCE5F3
:1015F0000020BAE50F48B8E50F48B6E5D3F840310A
:1016000003F00303032B00F0A180003B18BF01236C
:10161000D803AAE50020A8E54FF47A70A5E54FF4B9
:101620007A70A2E500800050002D3101B48D0020B9
:1016300000093D000024F400405DC6000048E801B8
:10164000005A620280BA8C01C0EA21014FF47A701C
:101650008BE5794889E57848784B1A6F1B6FC2F3A0
:1016600003320132B0FBF2F0C3F380230133B0FB4D
:10167000F3F0400879E57048704B1B6FC3F30333F8
:101680000133B0FBF3F070E56B486C4B1A6F1B6FC6
:10169000C2F303320132B0FBF2F0C3F38023013313
:1016A000B0FBF3F061E5D2F8403103F00303032B04
:1016B0005ED0003B18BF0123D80356E5604B586C41
:1016C00053E55F4B186C50E55D4B586CC4E75C4BC1
:1016D000586CD1E75A4B186CCEE7594B586CD4E78D
:1016E000574B186CD1E74FF0B4439868C0F30440EF
:1016F0000C2808D8DFE800F01107070707072123A7
:101700000F070D0B090000202FE54E482DE54E4830
:101710002BE54E4829E54E4827E54FF0B4439B683A
:1017200003F04073B3F1807F5BD0B3F1007F56D0FC
:10173000484A002B08BF104617E5474815E54748BB
:1017400013E53D4811E53E4B186C85E74FF47A7080
:101750000BE53948394B1B6FC3F303330133B0FB3F
:10176000F3F002E5364B586CF4E7354B186CF1E7B3
:101770004FF47A70F9E44FF47A70F6E44FF47A702B
:10178000F3E42D4B2D4A126FC2F303320132B3FB47
:10179000F2F3980AE9E4284B284A126FC2F30332A5
:1017A0000132B3FBF2F3980ADFE4254B5B6CF3E7FD
:1017B000234B1B6CF0E7224B5B6CE3E7204B1B6C6D
:1017C000E0E72748D1E42748CFE42548CDE4244882
:1017D000CBE42448C9E42248C7E42248C5E42048B1
:1017E000C3E42048C1E41F48BFE41C48BDE41A48D4
:1017F000BBE44FF0B4439B6803F04073B3F1807FC8
:1018000011D0B3F1007F0CD0124A002B08BF104654
:10181000ABE40C48A9E40C48A7E40C48A5E40C4848
:10182000A3E40F48A1E40F489FE4FEE7FEE7FEE7CC
:10183000FEE7FEE7FEE7FEE7002D310100800050E5
:10184000B48D0020005A62020048E80180BA8C0181
:10185000C0EA210100093D00405DC6000024F400FB
:1018600040420F0080841E004FF48031184A194B0B
:1018700091661B6F1A0B12F00E0FC3F303331AD1CC
:10188000013310B403FB00F041F67134124B134ADC
:10189000984294BF00200120D169D46353685DF859
:1018A000044B23F4401343EA00535360CB0344BF7B
:1018B0000023D3637047072B08D00F2B04D0032BD2
:1018C00000D0FEE70423DCE71023DAE70823D8E79B
:1018D0000090005000800050005A62020000035047
:1018E0002DE9F041424D1C4655F8203023FA01FC09
:1018F0001CF0010F3FD07AB1002C5CD13D4B53F866
:101900002030CB40DD0755D501253B4B00EB400691
:10191000360133448D401D6007294FF030052BD828
:101920000423364E15FB00354FEA8108EFF3108E85
:1019300072B64FF00F0CAF5902FA08F37B400CFA65
:1019400008FC03EA0C037B40AB51BEF1000F2FD023
:101950007AB9002C39D02A4B53F82030CB40DA0723
:1019600044D50122274B00EB4000000103448A408C
:101970001A60BDE8F081FEE70C23A1F1080C15FB0D
:1019800000351E4E4FEA8C0CEFF3108772B64FF005
:101990000F0E55F8068002FA0CF383EA08030EFADC
:1019A0000CFC03EA0C0383EA0803AB51002FCFD1F0
:1019B00062B6CDE7FEE7124B53F82030CB40DE078E
:1019C00002D501250F4BA1E7FEE70A4B53F8203063
:1019D000CB40DB0709D50124074A00EB4000030197
:1019E0001A4404FA01F11160C3E7FEE7FEE700BF05
:1019F000148208081482080840E0035030C00350E5
:101A00001482080840D00350FEE770B50446114E1A
:101A1000114D736A1D44FF20FEF7CEFBFF2805D150
:101A2000736AEB1A002BF6DC002011E0FE28FBD1D4
:101A300004F50075FF20FEF7BFFB04F8010BAC4274
:101A4000F8D1FF20FEF7B8FBFF20FEF7B5FB012021
:101A500070BD00BF00800450D014340010B40121C8
:101A6000104B114A596000F00F0400BF536DC3F3CF
:101A70000B03002BFAD10C49946300BF4B6D13F09C
:101A8000780FFBD100F001024307074948BF42F03D
:101A9000020200BF8B6C03F003039342FAD15DF89E
:101AA000044B704700100A5000000A500022144BEB
:101AB0001A70144A144B586451644FF48071A2F5A3
:101AC000D02291609A6C9007FCD59A6C9106FCD557
:101AD0000C4B9A6C9207FCD59A6C9006FCD50A4A7E
:101AE000D16BDB6B0A2309498B6309498B63936CC8
:101AF0009907FCD4034A936C9B07FCD4704700BF42
:101B0000000000B000000A500000015B0010015B03
:101B100000100A5008B54FF4C070FFF7F1F90649FC
:101B2000064A884294BF00200120136F23F480638B
:101B300043EA8023136708BD80F0FA02008000505A
:101B4000B0F5207F0DD0B0F5C07F00D0FEE7481E75
:101B5000012812D9102903D86E4BCB40DA070CD4D8
:101B6000FEE70139012907D86B4A136F23F480631C
:101B700043EA812313677047FEE74FF48031674AD9
:101B8000654B91661B6F1B0B13F00E0F08D048F2CC
:101B9000880203F00F0322FA03F3DB0700D4FEE709
:101BA00010B541F671335E4AD169D3635368CC03F3
:101BB00023F4401343F48013536048BF00234FF4D1
:101BC000803448BFD363544B54491A6F42F4806247
:101BD0001A670C671A6F22F4704242EA00321A67E1
:101BE0001B6F03F00703022B76D0032B71D0012B60
:101BF00000D0FEE74B49484B4B4A1B6FC3F30333FE
:101C00000133B1FBF3F100BFD2F88430D806FBD426
:101C10004FF48030D2F88430404AC3F38113022B52
:101C20003D4B90661B6F4FEA1332C3F3033335DA33
:101C300012F00E0F53D1013301FB03F341F6713261
:101C400038483749834294BF00230123C869CA63D7
:101C50004A6822F4401242EA0353C2034B6001D5A2
:101C60000023CB634FF4C070FFF74AF902462F4CB4
:101C70002949A24294BF002201220B6F802023F445
:101C8000806343EA82230B67FFF73AF9284B9842B7
:101C900003D84FF48032274B1A6710BD12F00E0F95
:101CA00026D1013301FB03F341F6713420491C4A6C
:101CB0008B4294BF00230123D069D463516821F47F
:101CC000401141EA03535360C30344BF0023D3636D
:101CD000C8E7194B596C8EE7174B196C8BE7072B2C
:101CE00011D00F2B0DD0032B00D0FEE70423A3E768
:101CF000072B0CD00F2B08D0032B00D0FEE70423BA
:101D0000D0E7102398E7082396E71023CAE70823B3
:101D1000C8E700BF10010100008000500090005093
:101D200000000350002D31010040005080F0FA0205
:101D3000005A620200A00050B48D0020084B186FBA
:101D400000F00700431E032B09D8DFE803F006026A
:101D50000304052070470820704702207047FEE703
:101D6000008000502DE9F8434FF4C0250121A44C18
:101D7000A44AA54B656606465068596053689907A2
:101D8000FCD43468A14B9C427DD9A14B9C427BD8AA
:101D9000B788B7F5967F78D9B7F5805F76D2B6F871
:101DA0000680B8F5805F73D29A4A00BFD2F884509B
:101DB00015F01005FAD1D2F88430C3F38113012B4A
:101DC00072D00022944B00BF19688C4202D359682C
:101DD0008C4205D90132192A03F11003F4D10022F3
:101DE0008E4B03EB0212D2E90693002B60D1FFF772
:101DF000A5FF05284FF0000100F0AD80884A00BF24
:101E0000D36813F0060FFBD19368C2F8089093686B
:101E100083EA090313F4F81F39D17A4A48EA0747DD
:101E2000D760B368032B34D0092B00F02D81082B29
:101E300001BF7C4AD2F8003143F00303C2F80031FD
:101E400007270120337D727D9B0043EA82133269AC
:101E50001343327B43EA42036A4A9360724B1C6429
:101E6000694B1F61A3F580535860166916F0070689
:101E7000FBD0FFF763FF052800F08C80731E5842EB
:101E80005841BDE8F883FEE7FEE7FEE7FEE7FEE720
:101E9000FEE7A2F5A032D2F8003123F0030343F0AD
:101EA0000103C2F80031CBE7604B9C4289D9FEE7C1
:101EB0005F4A934200F0F78014D85E4A934200F0E4
:101EC000F68030D85C4A934200F0F4801ED95B4A19
:101ED000934240F0E3805A4B1B6F03F07F0349EAC3
:101EE000030984E7574A934200F0ED8027D9564A08
:101EF000934200F0C28002F5740202F51052934240
:101F000040F0E9804E4BD3F89830E6E74F4A9342D1
:101F100002D04F4A934202D1494B9B6DDDE74D4AB7
:101F20009342F9D0FEE74C4A934200F0AA804B4A14
:101F3000934240F0D180424BD3F88030CDE7484AFD
:101F4000934200F0AC80474A934240F0C3803C4B40
:101F5000D3F88C30C1E72E48FEF7D4FE4FF4803022
:101F6000304B27491A6F42F480621A6708671B6F6B
:101F70001A0B12F00E02C3F303332CD0072B00F020
:101F80009F800F2B00F09980032B00D0FEE70425E3
:101F9000002133E761BBFEF7FDFE844227D31D4BD2
:101FA000D3F88420D206FBD4D3F88430C3F3811352
:101FB000022B80F28C800121FEF7A4FEFFF7AAFD20
:101FC0008020FEF79DFF194B98429EBF4FF4803250
:101FD000254B1A6752E75D1C002B47D0022D0DD10F
:101FE00004214FF4C070FFF7ABFD012106E7FEE7C7
:101FF00029464FF4C070FFF7A3FDCCE71146FDE67C
:102000000090005000C0015000E001509FBB0D0047
:1020100000B4C40400400050248208081482080858
:102020000000015000800050B48D0020005A620270
:102030000048E8010024F400C0CF6A00405DC600FB
:102040000080E00F007E56030090D00380841E00C5
:1020500000093D0040420F00C0EA210180BA8C0116
:1020600080D54302006CDC0200A0005002214FF436
:10207000C070FFF765FD2946C0E6184BD3F89430D1
:102080002BE7164B9B6F28E7154AD2F8003123F057
:10209000030343F00203C2F80031D1E642E70F4BDD
:1020A000D3F8883019E70D4BD3F8843015E70B4B84
:1020B0005B6F12E7094B5B6E0FE7102500219DE671
:1020C000082500219AE6054BD3F8903005E7FFF785
:1020D000CBFB73E726E725E724E700BF0080E00F8E
:1020E0000080005070B504461E4A00BFD2F884300C
:1020F000DD06FBD4D2F88430C3F38113A34221D090
:10210000FEF768FE012C05461ED0EFF3108672B66E
:102110004FF000704FF480621349124B4866611E05
:102120008A401A6707E0D3F88420920606D4D3F8D1
:102130008420900607D45A6E9101F4D506B962B690
:10214000022C09D070BDFEE7084B984203D8214607
:10215000FEF7D8FDD9E7FEE72846BDE87040FFF757
:1021600083BB00BF0040005000600050005A620274
:1021700008B50220FFF7B6FF00210748FEF7C2FDB1
:102180004FF48030054B1A6F03F5805142F48062A2
:102190001A67086708BD00BF00B4C404008000507F
:1021A00008B5FEF7F7FD114AD2F88430DB06FBD400
:1021B000D2F88430C3F38113022B14DA0121FEF725
:1021C000A1FDFEF707FE0220FFF78CFFFFF7A2FC40
:1021D0008020FEF795FE064B98429EBF4FF480325A
:1021E000044B1A6708BDFFF73FFBEAE700400050C9
:1021F000005A620200A00050F0B587B06FF00402F0
:102200004FF0500CAB4CAC4802F00F03043B12F003
:10221000800F00EB0201234440F0488101324C2A38
:1022200081F800C3F0D14FF000454AF6CD300721C8
:10223000A24CA34A6566546CA24B106404F00104DE
:10224000D96300BF536B13F00B03FBD151684FF000
:10225000004521F4F87141F4807140F2091740F211
:10226000031651604AF6CD31944897601661456671
:10227000556C1164126B05F0010511070BD59049DF
:10228000914801E0834218D00A6B01331207F9D458
:102290008D4A934211D0202001228C4B88499862AC
:1022A000A3F580535A608B6A9F0606D4864B01E0E3
:1022B000013B02D08A6A9606FAD515B1804B844A52
:1022C0001A6414B17E4B824A1A644FF000444AF6F5
:1022D000CD337A497F487A4A406E4C66516C13641C
:1022E00001F00101536B1C06FCD4136A23F00F03A9
:1022F00043F00603136209B1754B13640028A2BFB3
:102300004FF00042744B5A66744BD3F84C211003C3
:1023100040F1F8804FF6FF72A3F5FE431B8893420D
:1023200000F002811C466B4B6D4A1B6F6D4903F038
:102330000703032B516400F0F480FFF7FFFC032830
:1023400052D04FF4801545F60E024FF0A0604FF4C6
:1023500080315A4B5D66644BC3F88020634A9062BB
:1023600002F5805291629A6DD103FCD45E498B6D67
:102370005A00FCD404F12805FF2DA8BFFF255C4AB4
:1023800023020A618A699BB202F0004242EA0542D6
:10239000134343F0407343F03C038B610B6A554891
:1023A00023F00F030B628B6A4F4C184040F48030CF
:1023B000514E8862A36D36EA0303FBD14FF0807162
:1023C0004FF000464FF4803548484C4A81622369FB
:1023D000454F23F4700343F44013236186619162F7
:1023E0009562BB6D5B00FCD46C46454D0FCD0FC4B0
:1023F00095E8030084E80300FFF7A0FC052800F03F
:1024000095804FF400322D4B68465A66FFF7AAFCC0
:10241000304CFFF7ADFE236F23F0070343F00203B8
:102420002367FFF7BDFED4F82031264A23F00703C7
:1024300043F00103C4F82031D4F8283123F0070316
:1024400043F00103C4F82831D4F8403123F00303EA
:1024500043F00103C4F84031D4F8603123F00303A2
:1024600043F00103C4F86031D4F8403223F0030391
:1024700043F00103C4F84032D4F8003223F00703DC
:1024800043F00103C4F80032D4F8083223F0070304
:1024900043F00103C4F80832536F43F0010353675C
:1024A000D36E23F03003D36607B0F0BD83F818C0B5
:1024B0000132A9E600ED00E000E100E000900050EC
:1024C000004009500040005040420F000060095099
:1024D0003254FFFF0080005000A000500080E00F49
:1024E000B48D0020C01753020040005A0050005A1B
:1024F0002008C00BC7FFFEFE030001000060005A69
:10250000B4830808D3F8504114F0FF047FF40BAFF4
:102510004FF6FF72144B1B8893423FF404AF1C46E6
:1025200001E7FEF737FC08E78C24FCE60F4CFFF7C9
:102530001FFE236F23F0070343F001032367FFF718
:102540002FFE4FF400320A4B68465A66FFF70AFC2A
:10255000FFF70EFE236F23F0070343F00203236708
:10256000FFF71EFE54E700BF0001E00F008000509F
:10257000009000502DE9F04F83B006462A200D460A
:10258000FEF7BEFCC54BC64A034493422ABFB3FBC9
:10259000F2F3002303F1FF33032B28BF03237779E2
:1025A000DBB29F4238BF1F46BE4A00BF5369DC0101
:1025B000FCD40122BC4BDFF8EC825A60D8F804400E
:1025C00014F00204FAD13379002B7ED0F278390767
:1025D00012011B0402F0300201F0E0410A4303F44F
:1025E000FE03134332780AB143F0020372780AB152
:1025F00043F00403B2780AB143F0080332897189C9
:10260000F08841EA0241A74ADFF8BC92DFF8BC82B9
:10261000936007F1010A10611162AB682A202E78DD
:102620000193FEF76DFC002E0CBF4A464246B0FBFC
:10263000FAF3511E0B44B3FBF2FC9A424FEA041228
:1026400002F1B24101F580418B6C6F7823F0435366
:1026500023F41D13A87823F4405306F0030B23F052
:102660001F034FEA870795F803E007F01C0743EACA
:102670000B034FEA003000F4E04043EA07032F7CED
:1026800043EA00034FEA0E4B28794FEA47570BF411
:10269000E02B07F460074FEA007043EA0B0300F0F9
:1026A000405043EA070343EA00038B648B6C98BFF6
:1026B0000CF1FF3CC3F30233013B042B00F23581E4
:1026C000DFE803F01F1FAFBDCC002A20FEF718FC87
:1026D000DFF8CC91484580F0D180002840F0D080D0
:1026E0002A20FEF70DFC002800F01B81484540F22F
:1026F000C780D8F80820C2F302720132B0FBF2F0B2
:10270000BEE06A4BD3F88011002E40F0EF809FEDC1
:10271000686A89B20126080402F1B24000F58040DF
:10272000806C21F4C043C0F3820000EB060706FA78
:1027300007F607EE906A4FEA8343F8EEE76A48BF70
:1027400043F00043002800F0D2805848D0F8906150
:10275000D0F8880136B207EE106AB8EEC77A37EEC5
:10276000467A00B207EE900A37EE077AF8EEE77A7B
:1027700087EE266A77EE867ABEF1000F00F0C580FC
:1027800095ED037ADFED4B5AB8EE477A85EE876A0E
:1027900066EE277ADFED485AB1EE006A85EEA67A3A
:1027A000B3F1004FA7EE867A0DD007EE901ADFED59
:1027B000436A9FED436A77EE266AFAEEE87AB0EE56
:1027C000467AA6EEA77AB5EEC07AF1EE10FACCBF43
:1027D000FEEE007AF6EE007A77EEC77AFDEEE77A43
:1027E00017EE901AB1F5003F77DB6FEA53416FEABD
:1027F000414102F1B24202F58042116540F2FF31DF
:102800008C4528BF8C46BDF8043001219C4538BF5B
:102810009C46CCF3090314355365002C58D10C4663
:10282000FBE6224BD3F88011090C002E7CD1D3F8A3
:102830008C311B1407EE903AB8EEE76A6AE71B4B3F
:10284000D3F88411002E51D1D3F88C3189B21B14E6
:102850005B0007EE903AB8EEE76A5BE7134BD3F8FC
:102860008411002E5FD1D3F88C31090C1B1403EBBB
:10287000430307EE903AB8EEE76A4BE7B0FBF7F098
:10288000104A00F5742303F23F23B3FBF2F3013B3C
:102890007F2B28BF7F23DBB298E600BFFF5962027F
:1028A000005A620200400059006000590080E00FA9
:1028B00000000000FF3F9C44000020480000004949
:1028C000000000C940420F0080969800404B4C0029
:1028D000194B596003B0BDE8F08F11F5003FAABF56
:1028E000C1F3110143F40031194382E7FEE71348B5
:1028F000D0F88C0100B207EE900AF8EEE77A77EE96
:10290000867ABEF1000F7FF43BAF4FF480369FED27
:102910000C7A0C4867EE877A466600F5E6208069F7
:1029200038E70120ACE7E1E7E0E7044BD3F880119A
:10293000002E3FF4ECAED9E7005000590080E00FC4
:102940003D3B843F0090005030B4D14A5369DC01D4
:10295000FCD40124CF4ACE4B546000BF5A68920782
:10296000FCD40278447890F802C002F0070242EAF0
:10297000C402C4784FEA0C1C42EA04220CF0700C2A
:1029800042EA0C02C3F88020DC6A027924F0170CBA
:1029900002F0070242EA0C0290F805C001254FEA56
:1029A0000C1C0CF0100C42EA0C02DA62CA784C786B
:1029B00091F802C0520442EA04220C784FEA0C4C0F
:1029C00022430CF4803C42EA0C02C3F8A0200A7AAD
:1029D0008C7991F807C0520442EA04224C794FEAFC
:1029E0000C4C22430CF4803C42EA0C02C3F8A420B5
:1029F0004A7BCC7A91F80CC0520442EA04228C7AC9
:102A00004FEA0C4C22430CF4803C42EA0C02C3F81F
:102A1000A8208A7C0C7C91F811C0520442EA04225E
:102A2000CC7B4FEA0C4C22430CF4803C42EA0C0273
:102A3000C3F8AC20CA7D4C7D520442EA04220C7DCE
:102A400091F816C022434FEA0C4C0CF4803C42EA49
:102A50000C02C3F8B0200A7F8C7E91F81BC0520490
:102A600042EA04224C7E4FEA0C4C22430CF4803C98
:102A700042EA0C02C3F8B42091F82120CC7F91F8EF
:102A800020C0520442EA04228C7F4FEA0C4C2243BD
:102A90000CF4803C42EA0C02C3F8B82091F82620DE
:102AA00091F8244091F825C0520442EA042291F89A
:102AB00023404FEA0C4C22430CF4803C42EA0C02C7
:102AC000C3F8BC2091F82B2091F8294091F82AC036
:102AD000520442EA042291F828404FEA0C4C224367
:102AE0000CF4803C42EA0C02C3F8C02091F830207C
:102AF00091F82E4091F82FC0520442EA042291F836
:102B00002D404FEA0C4C22430CF4803C42EA0C026C
:102B1000C3F8C42091F8352091F8334091F834C0BF
:102B2000520442EA042291F832404FEA0C4C22430C
:102B30000CF4803C42EA0C02C3F8C82091F83840FB
:102B400091F83A2091F839C0520442EA042291F8EF
:102B500037404FEA0C4C22430CF4803C42EA0C0212
:102B6000C3F8CC2091F83F2091F83D4091F83EC049
:102B7000520442EA042291F83C404FEA0C4C2243B2
:102B80000CF4803C42EA0C02C3F8D02091F84420B7
:102B900091F8424091F843C0520442EA042291F86D
:102BA00041404FEA0C4C22430CF4803C42EA0C02B8
:102BB000C3F8D42091F8492091F8474091F848C0D3
:102BC000520442EA042291F846404FEA0C4C224358
:102BD0000CF4803C42EA0C02C3F8D82091F84E2055
:102BE00091F84C4091F84DC0520442EA042291F809
:102BF0004B404FEA0C4C22430CF4803C42EA0C025E
:102C0000C3F8DC20244C4A7A0B7965600AB143F0A2
:102C100002038A7B0AB143F00403CA7C0AB143F081
:102C200008030A7E0AB143F010034A7F0AB143F059
:102C3000200391F822200AB143F0400391F82720A5
:102C40000AB143F0800391F82C200AB143F4807359
:102C500091F831200AB143F4007391F836200AB19B
:102C600043F4806391F83B200AB143F4006391F888
:102C700040200AB143F4805391F845200AB143F44F
:102C8000005391F84A204AB143F4804306E000BF64
:102C900000400059006000590050005991F84F2041
:102CA0000AB143F40043044A8179936109B10823CE
:102CB000D36030BC704700BF00400059837A1B04CA
:102CC00013F47C0F46D1C27A120512F07E6F42D106
:102CD000017B490511F0FE5F3ED1F0B480254FF431
:102CE00020271E4C1E4E2565134337621D4A447B28
:102CF0000B431D49C2F8B041C2F8AC31C2F8C01153
:102D0000EFF31181302383F31188536D047A2B4341
:102D1000536514B1136C2B431364437A23B1114AE6
:102D2000936B43F08003936390F804C083790B4A5C
:102D300043EA0C43936190F805C0C3790B4C43EA16
:102D40000C43A361802307485363836481F3118894
:102D5000F0BC7047FEE7FEE7FEE700BF002004502E
:102D60000040045000000450108F00200010045058
:102D7000D1B138B50C4610B95720FEF7C1F86549F6
:102D80008B68DB0711D5844241D8B0FBF4F2013ADD
:102D9000FF2A4B683CD8DD073CD40B6923F07F4306
:102DA00043EA02630B6138BDFEE74B68012B2DD16E
:102DB0008B6DDD07574B48BF64009B6803F0E00351
:102DC000402B00F0888071D8002B00F08F80202BE2
:102DD00040F09E80B4EBD00F1BD8E4004301B3FB5E
:102DE000F4F14D4AA1F12003B2EBC30F4FEAC30047
:102DF000C0F08880474A00BF536DD907FCD44549CD
:102E0000106300BF4B6DDB07FCD438BDFEE7FEE767
:102E1000FEE7FEE74B6D13F0280FFBD18B6C13F030
:102E200003034DD1886C10F001006CD18B6C9C07B2
:102E300045D504240625374B5968C90744D59968F8
:102E4000C90702D51B69D9070AD50A2331498B6303
:102E50004B6D13F0500FFBD12E498B6C9B07FCD1AF
:102E600001212E4B59602B494B689B07FCD40B6901
:102E700023F07F4343EA02630B610121284B254A7B
:102E80005960536DC3F30B03002BFAD121499563AD
:102E90004B6D13F0780FFBD10CB140F002001D4ACE
:102EA000936C03F003038342FAD138BD602B23D027
:102EB000802B2CD104EB440398428FD2FEE7FEE72F
:102EC000042401200525B6E7196921F07F4141EA74
:102ED00002621A61D1E7134BA3FB0023B4EB930FFB
:102EE00003D804EB44014C0078E7FEE7B4EB101F75
:102EF00001D8240172E7FEE7B4EB900F01D8A400DB
:102F00006CE7FEE7FEE71C460120092593E7FEE794
:102F1000FDE700BF00000A50F8FF7F0000200A50C4
:102F200000100A50ABAAAAAA2DE9F0470446007B7C
:102F3000802800F00D8194F80DE0BEF1030F00F23F
:102F400006819D4A5368002B40F003819A4B5A68D2
:102F5000D50718D59A68D10700F128810A23964A27
:102F6000936300BF536D13F0500FFBD1924A00BF23
:102F7000936C9B07FCD10121904B8F4A596000BF95
:102F800053689F07FCD4002204214FF0200A41F22D
:102F900002094FF4A028B4F80EC0874B874D884E25
:102FA000884F4CEA0E0CB4F810E0316129613161B0
:102FB00029613161296131612961C3F810A0DA60AA
:102FC0009A60C3F814909A619A65C3F82480DA6114
:102FD0001A629A62DA625A631A65EF641A635A696E
:102FE00022F44C5222F00F024CEA020242EA0E0294
:102FF0005A619A68616922F0804222F0E2020A4333
:10300000217E02430A439A60A16819B99A6842F086
:1030100000429A60E369002B55D09A7A66481D7A7F
:103020005204866842EA8552674D35402A439D889E
:1030300005F4C0452A435D7842EA85025D7B42EA99
:10304000C5029D7B42EA05129D7842EA8522826094
:10305000D3E90425C6682A435C4D35402A439D794F
:1030600042EA8522DD7942EA4522C2601A78012AC5
:1030700000F0B580032A00F0AD80023A012A00F288
:10308000B2800220524AC2F8B4045A7A4C4D4A48DF
:10309000AA621AB1C26842F40062C260DA7A5AB116
:1030A0004548C26842F40042C2601A7BA0F5CE20B7
:1030B00002F00F02C0F880203F4AD87B536A23F009
:1030C00003030343536201203D4B3B4A586000BF5A
:1030D000536DC3F30B03002BFAD1052336489363DA
:1030E000436D13F0780FFBD1334A00BF936C03F0AC
:1030F0000303032BFAD100297AD12078002834D198
:103100002D4B5A68D6071AD59A68D50702D51B6980
:10311000DC070CD50A23284A936300BF536D13F0D4
:10312000500FFBD1244A00BF936C9807FCD10121BA
:10313000224B214A596000BF53689907FCD41E4AAC
:10314000936CDB4313F4405FFAD1BDE8F087FEE7F0
:10315000FEE7536DC3F30B03002B3FF4F7AE536D43
:10316000C3F30B03002BF4D1F0E60121144B124AF8
:1031700000F00F04596000BF536DC3F30B03002B25
:10318000FAD10D49946300BF4B6D13F0780FFBD15A
:1031900000F001024307084948BF42F0020200BFA5
:1031A0008B6C03F003039342FAD1C8E71B69DA077B
:1031B0007FF5E1AED2E600BF00000A5000200A50C1
:1031C00000100A50FF3F0D03E39BBDFFFFF9F0879E
:1031D00000D00350C26842F00402C26051E7C268E6
:1031E00042F00402C2600220034AC2F8B4044CE771
:1031F0006068FFF7BDFD80E700E003502DE9F04176
:1032000088B08E4E0C4633781BB100238C4A337045
:1032100013748C4B984240F08E80DFF8248298F82B
:103220001030A34255D0884A136B9907FCD4854DC2
:103230006B68DB0702D5AB6C9F04F9D50122834B89
:103240005A606B6813F0020CFBD1012C49D1804B02
:10325000C5F830C0EB607F4B2B6102236B6140F2FD
:103260000143AB60774B6C605A6D12F0280FFBD1B5
:103270004FF485729A635A6D12F0280FFBD19A6C45
:10328000D24312F4405FFAD16E4A536D002BFCD149
:10329000337096F81C310BB3FDF778F96E4B6F4A1B
:1032A000C3F8CC2402F50032C3F8C4244FF0031253
:1032B000C3F8C8241C22C3F8B424022203F5A04397
:1032C0005A6203225A63072203F5BE235A6300237E
:1032D000337088F8104008B0BDE8F081FDF78AF936
:1032E000DCE7022C26D10F226E46574B5C4F9A62C8
:1032F0000FCF0FC697E80F0086E80F0068468DF8DD
:1033000000C0FFF711FE4FF470230520EB60FEF7BD
:10331000A5FB4FF461415348FFF72AFD4E4B524A3B
:10332000C3F8CC2402F58032C3F8C4241422C3F8B5
:10333000B424CEE7FEE74D4B9842CCD1404A537CB3
:10334000A342C8D04A4991F80E32002BFBD13E4827
:10335000036BDE06FCD4454B5868C0B901205860A9
:10336000012C18D140F60A41596142499960052162
:10337000D960142159610021D961374B3E49C3F806
:1033800038174FF4C021C3F8341718212EE098697C
:103390008506FCD5E4E7E31E012B2BD88021374BB3
:1033A000042C19644FF0100103F58043996240F634
:1033B0000A4103F5D83359612E4999604FF0050150
:1033C000D9604FF0150159610CBF4FF480714FF473
:1033D0004741D9610221204BC3F830172649C3F871
:1033E00038174FF4C021C3F834171C21C3F8201735
:1033F000547470E7052CFBD191F80E32002BFBD1F1
:1034000011490B6BD806FCD4184B596811B999694E
:103410008904FCD510211A4B996240F60A4103F544
:10342000D8335961134999600521D9601521596133
:103430004FF48071D961A3F500339FE7000000B01D
:10344000108F002000000A500000045000200A5095
:1034500000000F180100000100C00350030002002B
:10346000CC83080804AA11040200040000C005501F
:10347000704F0120010400800100050000D00350BE
:1034800000100450F8B5020604460D4607D5002189
:103490003720FFF7F7FF012844D804F07F040C2CF5
:1034A0001ED0FCF7A7FE244B244893F84810FFF7E2
:1034B000A5FE0422224B234F1A67FF20FCF77CFE57
:1034C000214E7B6A1E44FF20FCF776FEFF2807D0C2
:1034D0007B6AF31A002BF6DCFCF78CFEFF2021E060
:1034E00044F04000FCF768FE280EFCF765FEC5F3CB
:1034F0000740FCF761FEC5F30720FCF75DFEE8B26C
:10350000FCF75AFE7CB1082C0FD18720FCF754FE43
:103510000A24FF20FCF750FE030603D5013C14F0FB
:10352000FF04F6D1F8BD9520F0E70120FCF744FE3A
:103530000C2CEDD1FF20E9E7B48D002000C0055030
:1035400000E00350008004500834820038B50D4676
:103550001C46114670BB6BB3184B93F84930DA0721
:103560002AD4174B9B7CDB0658BF4902012C0FD194
:103570001120FFF787FF28B92846FEF746FAB0FA70
:1035800080F46409FCF736FE201E18BF012038BD08
:103590001220FFF777FF0028F4D12846FEF735FA0E
:1035A00018B1013C05F50075F7D100210C20FFF79B
:1035B00069FFE7E70420EAE70320E8E7B48D00208D
:1035C000108F002038B5436A05468B420C4611D057
:1035D00001230A4600F128014078FFF7B7FF0028D1
:1035E00018BF4FF0FF3403460CBF034601236C6243
:1035F000184638BD0023FBE738B50023C3704FF0F1
:10360000FF3343620446FFF7DDFF002852D194F8F0
:103610002830B4F82652EB2B09D01833DBB2012B3B
:1036200005D94AF655239D420DD1022038BD4AF6F0
:1036300055239D4230D0B4F8332094F83530B2F59C
:10364000007F00D193BB0320F0E7B4F8332094F857
:103650003530B2F5007FE8D1002BE6D05A1E1A4271
:10366000E3D1E38E002BDCD094F83830013B012B02
:10367000D7D8B4F83930002BD3D0B4F83B307F2BF7
:1036800006D804F14800FCF773FDB0F5803FC8D3BD
:10369000E38F002BC5D007E00822074904F17A0028
:1036A00083F0BEFF0028D0D10020BFE75A1E1A4287
:1036B000C9D1D6E70420B9E7077F0808F8B5012982
:1036C00006460C464ED9C36899424BD20378022B6A
:1036D00029D0032B34D0012B44D101EB5105816952
:1036E00001EB5521FFF76EFF10B14FF0FF30F8BD31
:1036F000B1696F1CC5F308053544304601EB57210D
:1037000095F82850FFF75EFF0028EED1C7F30807B1
:10371000374497F8283045EA0320E3074CBF0009F7
:10372000C0F30B00E3E7816901EB1421FFF74AFFC7
:103730000028DAD1640004F4FF743444208DD6E705
:10374000816901EBD411FFF73DFF0028CDD1A40022
:1037500006F1280004F4FE742044FCF709FD20F073
:103760007040C4E70120C2E738B5002381680446F1
:103770000568036191B92B78022B01D9EB6963B914
:103780002B890BB9022038BDEB69C4E90513002B66
:10379000F8D028350020E561F5E719466A895AB95D
:1037A0002068FFF78BFF431C014612D00128E9D99E
:1037B000EB689842F4D3E5E7EB68881E023B984239
:1037C00003D30023C4E90513DCE72B6A00FB0233B3
:1037D000DBE70120D7E72DE9FF4700230B600F4609
:1037E000FCF7C8FC061EC0F2A381B84D05EB8603AA
:1037F0005C69002C00F09E813C6023783BB16378CB
:103800002BB9B34B93F84930D90740F18881002395
:10381000F6B2237066701EB1032004B0BDE8F087D5
:103820000123042218460221FEF75AF8022201233E
:1038300010463146FEF754F80321A648FFF7DEFC98
:103840000422A54BA24E1A670A20FCF7A8FC96F8A2
:1038500049309A0740F18B8096F84910C9B211F0AF
:103860000101D9D12046FFF7C7FE022840F024818C
:103870006F463A4604F5F77304F22E211846FCF71A
:1038800077FC10338B4242F8040BF7D1002657F82F
:10389000041B002900F008812046FFF7ADFE012837
:1038A00000F20381B4F83330D4F82490B3F5007FEC
:1038B00040F00981E68F26B904F14C00FCF758FC72
:1038C000064694F838202661531E012BA27000F2A0
:1038D000FA8094F835306381002B00F0F480591E93
:1038E000194240F0F080B4F8398018F00F0FA4F8B6
:1038F000088040F0E880B4F83B0018B904F14800B3
:10390000FCF736FCE18E002900F0DD80724301EB0C
:1039100018171744874200F2D680C01B9842B0FBAC
:10392000F3FCC0F0D0806D4B9C4500F2CC8009EBDD
:1039300007004FF6F577BC450CF10203494400F24D
:10394000D38040F6F577BC45C4E90591E360206279
:1039500000F2E780B8F1000F00F0B580501803EBDB
:10396000430203F0010303EB52030122CBE00321E6
:10397000584886F848100A27FFF740FCFF20013F0F
:10398000FCF71AFC17F0FF07F8D139463846FFF765
:1039900079FD0128814607D00023AB74FCF72AFC8F
:1039A000012386F8493057E7DFF834A1DFF8348186
:1039B000DAF824304FF4D57108209844FFF762FDFF
:1039C00001283DD1E9460427CA46FF20FCF7F4FB55
:1039D000013F17F0FF070AF8010BF6D19DF80230FE
:1039E000012BD9D19DF80330AA2BD5D13C4F7B6A4E
:1039F000A8EB0303002B1BDC7B6AA8EB0303002B63
:103A0000CADD00213A20FFF73DFD0028C4D104277C
:103A1000FF20FCF7D1FB013F17F0FF0709F8010B6E
:103A2000F6D19DF800305B063CD40423AB7425E04E
:103A30004FF08041A920FFF725FD0028D7D1DBE713
:103A40003946A920FFF71EFD01288EBF0127022756
:103A50004FF0A909DAF82430A8EB0303002B1ADC95
:103A6000DAF82430A8EB0303002B95DC4FF4007147
:103A70001020FFF707FD00288ED1AF74FCF7BAFBCA
:103A80000421144886F84810FFF7B8FB96F849302F
:103A900003F0FE0385E700214846FFF7F3FC00280A
:103AA000D8D1DDE71423C1E703200136042E7FF4CB
:103AB000EEAE042807D101E0042801D10120ACE6D4
:103AC00001287FF6EFAE0D20A7E600BF108F002083
:103AD000B48D002000C0055000D00350F5FFFF0F4B
:103AE0000080045010680401B4F85220C4E9059124
:103AF00058EA0202E3602062E5D104F15400FCF7C9
:103B000037FB03229B0003F2FF13B6EB532FE06158
:103B1000D9D32B8B227001339BB22B83E3800020FF
:103B20007BE6B8F1000FCED050185B000222EAE726
:103B30000B2072E60C2070E608B54FF480454FF07C
:103B4000FF300221434B444A444C9A60D3F888200A
:103B500042F47002C3F88820414AA56610664148C5
:103B6000414C5066C3F8D010BFF34F8FBFF36F8F37
:103B700001204FF44031A3F54063C3F88001D160C8
:103B800018603A4B3A4821611B1A9E1020D0042B32
:103B90005CD0384D02462B460021B41E6408013427
:103BA000D2F800E0D2F804C001318C42C3F800E042
:103BB000C3F804C002F1080203F10803F0D8B6EB21
:103BC000440F05D000EBC40305EBC4041B6823605D
:103BD000294B2A4CA34238BF9C4614D2DCF808304B
:103BE0006BB1DCE9001200230439043A51F8040FE8
:103BF000013342F8040FDCF808008342F6D30CF1DD
:103C00000C0CA445EAD31E481E4B98421CD200243B
:103C100003F1FF3CACEB000C00F110032CF0070C9F
:103C200008309C4450F8043C5BB1002350F8082C49
:103C3000043A00BF42F8044F50F8041C01338B4291
:103C4000F8D308308445EDD101F072F90346094CF0
:103C5000BCE700BF00ED00E000000008009000504D
:103C600000A00044F7FF37000080004448660A08BF
:103C700048660A08FCFF032018650A0824650A083C
:103C800024650A0824650A08F8B54FF480724025B7
:103C9000012403270221404B404E5D665A6603F51E
:103CA0009E2359601F66C3F880701C635A66C3F870
:103CB0008420FF22DA6110229A66C3F88820DC6033
:103CC0000023052219462046FDF70AFE002305229F
:103CD00021462046C6F80447FDF702FE4FF00113C7
:103CE0008022C6F80077C6F808372D4B00205A60AE
:103CF00043F25E022B4FDFF8C0E0DFF8C0C01C6368
:103D00002949DA61DC60294AA3F58033C7F818E055
:103D10000CF59076C3F85001C3F84C01516216625D
:103D2000D169234EC7F81CE00E40C3F880010CF2A5
:103D30002111C3F87C0111631D48D16A07F5A03732
:103D400008401C499037014302F12C00576320F0D2
:103D5000030747F0020740F00200D1629763C3F8FF
:103D60009001144802F11C013043D06121F003009E
:103D700040F002009062602241F00201C3F860113D
:103D800003F500510C654A63202199649D6403F595
:103D900080535A62F8BD00BF0090005000C003502D
:103DA000000005500040045070800550108F002026
:103DB0000C80F000F03F003103000C00000000B068
:103DC00007B500220121034B009273F0FFFC03B002
:103DD0005DF804FB107F08080F23044A936200BFBC
:103DE000D36A1B07FCD103235363704700000450C0
:103DF0002DE9F04F87B00B0C07460191029356D086
:103E00001A0400EB034A04AB83462024544EDFF827
:103E10005881039200931BE0C8F8D040FCF7A2FB46
:103E2000504B00985221C3F8D040FCF731FB690C8D
:103E3000FCF72EFB690AFCF72BFB4946FCF728FB35
:103E40000BF5803BC8F8D040FCF758FBD34527D092
:103E500096F81C112BF07E45CBF357090029DBD0D7
:103E6000FCF7C8FBC8F8D040FCF77CFB3D4B009842
:103E70005221C3F8D040FCF70BFB690CFCF708FBA0
:103E8000690AFCF705FB4946FCF702FB0BF5803B92
:103E9000C8F8D040FCF732FBFCF778FBD345D7D10C
:103EA000029B039A07EB0347019B9B1A0193019B1B
:103EB00003F5FF5A0AF11F0A5FEA5A3A4CD004ABE5
:103EC0002024274EDFF8A080DFF898B007EB4A3AAD
:103ED00000931AE0C8F8D040FCF744FB009820217A
:103EE000CBF8D040FCF7D4FA690CFCF7D1FA690A98
:103EF000FCF7CEFA4946FCF7CBFA07F50057C8F8AD
:103F0000D040FCF7FBFA574526D096F81C2127F045
:103F10007E45C7F35709002ADCD0FCF76BFBC8F8D5
:103F2000D040FCF71FFB00982021CBF8D040FCF7D5
:103F3000AFFA690CFCF7ACFA690AFCF7A9FA494632
:103F4000FCF7A6FA07F50057C8F8D040FCF7D6FAF8
:103F5000FCF71CFB5745D8D107B0BDE8F08F00BF78
:103F6000000000B000E0035000D00350064B586E34
:103F7000D3F89430C0F30A10C3F30A139842B8BFC1
:103F80001846013080007047000004502DE9F043CE
:103F900085B00D46B04C00BF94F80E32002BFBD11B
:103FA000AE4A00BF93699B04FCD594F80D32AB4236
:103FB00040F030810121A948FFF720F94FF0800936
:103FC000002301271022A64EDFF8B48206F2044136
:103FD000C4F80412C8F8409084F80E72A4F80832AD
:103FE00084F80A3218461D469C469E4694F80A32CA
:103FF000904606EB43233768043300BFAFF30080DD
:1040000008784D7891F802C091F803E037F8100075
:1040100037F8155037F81CC037F81EE040EA054065
:10402000C3F800004CEA0E4CC3F804C008794D797F
:1040300091F806C091F807E037F8100037F81550EE
:1040400037F81CC037F81EE040EA0540C3F8080006
:104050004CEA0E4CC3F80CC0087A4D7A91F80AC0AD
:1040600091F80BE037F8100037F8155037F81CC0FE
:1040700037F81EE040EA0540C3F810004CEA0E4C49
:10408000C3F814C0087B4D7B91F80EC091F80FE087
:1040900037F8100037F8155037F81CC037F81EE015
:1040A00040EA0540C3F818004CEA0E4CC3F81CC0A7
:1040B00003F1200301F11001B8F10108A0D14FF480
:1040C0000018B4F80832C4F8041201339BB2A4F803
:1040D000083294F80A326349C3F10103DBB284F871
:1040E0000A32614B614FC1F8243194F80A32C3F1AE
:1040F000010306EB43230433C1F82831C7F880805D
:10410000BFF34F8FBFF36F8F0020594B84465A6225
:1041100094F80A32864606EB432305463668D4F8FF
:1041200004120433AFF30080AFF30080AFF30080DC
:10413000087891F801C091F802E0CD7836F81000C7
:1041400036F81CC036F81EE036F8155040EA0C4030
:10415000C3F800004EEA054EC3F804E0087991F870
:1041600005C091F806E0CD7936F8100036F81CC08D
:1041700036F81EE036F8155040EA0C40C3F8080047
:104180004EEA054EC3F80CE0087A91F809C091F8A0
:104190000AE0CD7A36F8100036F81CC036F81EE07A
:1041A00036F8155040EA0C40C3F810004EEA054EB0
:1041B000C3F814E0087B91F80DC091F80EE0CD7BB8
:1041C00036F8100036F81CC036F81EE036F81550E8
:1041D00040EA0C40C3F818004EEA054EC3F81CE054
:1041E00003F1200301F11001013AA1D1B4F8083222
:1041F000C4F8041201339BB2A4F8083294F80A32CE
:10420000C3F10103DBB284F80A32C7F8008005B0BD
:10421000BDE8F0838026174F052110483E64EDB2BB
:10422000FEF7ECFF84F80D5294F80D3273B1FF23C2
:10423000114A0192114A01A88DF80C300292FBF745
:10424000FFFF0F4BC7F8A0601E64B3E60A4AFF23C6
:1042500001920C4AEFE700BF704F012000C00550EB
:10426000708F002000000450F00F803400E100E067
:104270000010045000D003502B04001400DB2C006D
:1042800000E0035000AB2C007FB51C4CE36B8BBBF4
:104290001B4B93F81C510DB1FCF7ACF92026194BC0
:1042A0006846C3F8D0609021FCF7F2F80021FCF7D3
:1042B000EFF80021FCF7ECF80021FCF7E9F8002109
:1042C000FCF7E6F8002102A8FCF7E2F84FF48003BF
:1042D000029A0399153A153903FA02F28B409A4271
:1042E000094934BF53005B00C1F8D060E3630DB1EE
:1042F000FCF74CF9E06B04B070BD00BF108F0020DC
:10430000000000B000E0035000D003502DE9F04F52
:1043100085B017460191002A59D02E4B20F07E44DB
:1043200093F81C3124F00304009302340BB1FCF722
:1043300061F900264FF02008DFF8A090B346C9F8D5
:10434000D080FCF70FF9244B02A8C3F8D0800221DB
:10435000FCF79EF8610CFCF79BF86508610AFCF716
:1043600097F82946FCF794F8019BEDB203EB060A97
:104370005F4520D82025194CC4F8D050FCF7BEF872
:10438000009BC4F8D05013B305B0BDE8F04FFCF764
:10439000FDB8EB0747BF9AF803109AF801009AF8A6
:1043A00000101AF8020CFDF781FB0BF1020B01352E
:1043B0000AF1020ADCE7B5F5807FEAD1A61BC9F84D
:1043C000D0800BEB0604FCF799F85E46B6E705B023
:1043D000BDE8F08F000000B000E0035000D00350B3
:1043E00030B500230F2504460846254903324B60AB
:1043F00024494B6024490B7024498D62244DEB60A5
:1044000004F003031344234A9B08158E013BC3F3B6
:104410000A0363F30E151586158A906363F30E1570
:10442000831C936102F1200315820B67C1F8A02061
:104430002022194BC3F8D0200B6B9A07FCD1032321
:10444000164A53638B6472B62022154BC3F8D020F2
:104450000B4A53689B07FCD401234FF4807509492C
:1044600053604B600A4BDD60630C43F4306353646C
:104470004B640C4B03EA540353644B6462B630BD87
:104480000000015B00000A50000000B00000045072
:1044900000800350B48D002000D003500020045051
:1044A00000E00350FEFFFF7F2DE9F8430026144B88
:1044B00080461E7009B30F46DFF84C90114CD9F8B6
:1044C000400000BFBD1BB5F5005F28BF4FF400558D
:1044D000EA1C08EB060122F00302FFF781FF00BF90
:1044E000636B03F00303032BFAD1D9F840002E4489
:1044F0002844B742C9F84000E4D84046BDE8F883F4
:10450000000000B000000450108F0020F0B5202201
:10451000294B2A4DC3F8D02000F00203002B14BF12
:104520000124002400F0010216BF0230C2EB500249
:10453000C2EB5002287818BF214B40FA04F104BFA7
:10454000204B023211F001011ED020201E49C1F87B
:10455000D00072B6110C41F4306159645A645A6447
:1045600030231A4A023403FB0423194959660F21E8
:10457000184B596301231849A3404B6262B6516B33
:104580000B42FCD0A878F0BD0F27104E5960B762DF
:10459000A6F50046F1600121A14008432870596842
:1045A0008907FCD40121596005219963996C01F0B8
:1045B00003010329FAD1C8E700D00350000000B07E
:1045C00000000A500000015B00E0035000000450AE
:1045D000200000370020045000100450F8B50C4CA7
:1045E00007460E46606C00211D46FCF729F838602E
:1045F000A06CFCF725F83060E06C0121FCF720F896
:104600001060206D0021FCF71BF82860F8BD00BF8A
:10461000108F00202DE9F04110232022144C154D5D
:1046200023640146FCF72EF8C5F8D020FCF72AF8E1
:10463000C4F8D020FCF726F8C5F8D020FCF722F803
:1046400000221E461F46DFF83080D8F844402F6411
:10465000FCF718F80648C4F340140664FCF712F897
:10466000013B44EA4202F0D1D2430A80BDE8F08126
:1046700000E0035000D0035000C00350064B9FEDF4
:10468000077AD3ED097AF8EE677A67EE877AFCEE5F
:10469000E77A17EE900A7047008004502700703DBB
:1046A000044BDFED057A93ED090AB8EE400A20EEDF
:1046B000270A704700C00450ACA8FB360EB40FB5F3
:1046C00005AA52F8043B01460392009204484FF0B9
:1046D000FF32FCF7F1F804B05DF804EB03B070476B
:1046E0008F0600080CB41FB506AC54F8043B0A460C
:1046F0000094014604480394FCF7DEF804B0BDE8DA
:10470000104002B0704700BF8F06000807B5009345
:1047100013460A4601460348FCF7CEF803B05DF89D
:1047200004FB00BF8F0600080EB42DE9F04F92B0D5
:104730003A4D039095F85430182B36D84FEAC309F8
:10474000013385F8543007AF1CAB292138461B9A3A
:104750000693FFF7DBFF002195F855300293304BAD
:1047600093F84A3001937B567D5C002B4FEAC108D9
:1047700043DD00262B4B08F1080B03EBC50544462F
:1047800009EB060315F8012B049312F0010FDDE984
:10479000013008BF0346B4F5A07F4FEA520204F18E
:1047A000010A15DB5446D2B2EFE708242046FBF796
:1047B00083FD0146A4F10800FBF77EFD4FF4A072D3
:1047C000013482F0B1FFC82CF0D14FF0C009BAE734
:1047D000154890F80C02082805D104980593FBF7BA
:1047E0006BFD059B0355DA455446D2B2CDD1013657
:1047F000082EC4D101312829B5D1039B4BB10A4CF5
:10480000012194F80B02FFF7C1FB94F80E32002B44
:10481000FBD112B0BDE8F04F03B07047108F0020FD
:10482000B48D0020EC830808704F01200FB47FB5D1
:104830000D4D08AC54F8046B28460221FEF7DEFC4F
:1048400033464FF0FF32009402A908480394FCF766
:1048500033F8044601212846FEF7D0FC204604B078
:10486000BDE8704004B0704700000A50FD0C00081D
:104870002DE98048ADF5844D99B00120A549FFF799
:1048800053FF0EAC0DAB1C60A34B98A80BAA9893DA
:104890001360FBF76FFC002805DA0B219F48FFF738
:1048A000C5FF9F4936E29F4B810003EB80004269C0
:1048B0000AB10020107000200B448DF838000DA9BB
:1048C0000BA80EAA5C61FEF786FF044601469348DA
:1048D000FFF7ACFF002CE4D101209349FFF724FF40
:1048E00001209249FFF720FF914B0DAD28460CA9FE
:1048F0002B60FEF770FF044600286DD1DDF830B064
:104900000CAB2B68CDF860B21E4613F8012B2F2A92
:10491000FAD05C2AF8D000239A9333781F2B51D910
:104920000DF52078202198AB0B22581882F088FED4
:1049300000254FF0080906F1FF3AC6F1020707EB20
:104940000A031AF8014F202C08D92F2C01D05C2C17
:1049500063D1F25C2F2A5ED05C2A5CD01E44002D0D
:1049600000F03F819DF88032E52B04BF05238DF8D0
:104970008032202C77D93378202B8CBF0023012361
:104980009B008DF88B32989B98A80293FEF7ECFE63
:104990000446002840F0EE800DF5207A03909E99A1
:1049A0000298FEF70FFE0446002840F084809F988E
:1049B0000378002B59D19DF88B32580700F1E48021
:1049C000052409E0802398A88DF88B32FEF7CCFEF1
:1049D0000446002800F0DA80002221465548FFF7FF
:1049E00025FF554A55490120FFF79EFE54490120F5
:1049F000FFF79AFE4FF4FA60FBF7D1FBBFF34F8F3E
:104A00005049514BCA6802F4E0621343CB60BFF3D4
:104A10004F8F00BFFDE701339BE72E2C1BD0A9452C
:104A200040F2DF80220641BF484B04F07F04E418C7
:104A300094F8D8454648214682F019FE002840F0F7
:104A4000D080A4F16103192B9CBF203CE4B208F88C
:104A50000540013573E7B9F10B0F00F0C28008255E
:104A60004FF00B096BE704238BE7C47A04F03F0394
:104A700014F008048DF8663217D09C9B989C03F1C3
:104A80002009B9F5001F31D29E99002993D0C9F3AE
:104A90000807002F68D101319E919D9949BB20895B
:104AA000B0EB591F60D89E9185E70B22514682F0EA
:104AB000B7FD0028E1D19DF88B32002C5CD159075D
:104AC00064D49DF86632DA067FF57AAF9C9A9BF83B
:104AD0000010C2F308020BF12803134403295A8B78
:104AE00004BF9B8A42EA03429A921BE7039B9E9370
:104AF000CAE76589013D15EA592535D12046FEF7FB
:104B0000DDFD01283CD9431C3CD0E168884221D31B
:104B10009E9550E71E7F08080C3A0908367F080862
:104B200085800808108F0020457F08085E7F0808F0
:104B3000727F08088C7F0808747F0808BB7F08080C
:104B40009980080800ED00E00400FA0514820808C6
:104B50007D7F080802399D90023888423EBF6189F6
:104B6000256A00FB01559E9528343C44CDF870928F
:104B70009F9414E79DF88B32042C7FF42DAF1CE733
:104B8000022498E7012496E7042425E79DF98B3257
:104B9000002B26DB9DF86632DB06F5D49BF800304F
:104BA0009F98032B08BF838AB0F81AA000F11C005D
:104BB00008BF4AEA034AFBF7DBFA0646BBF80630B1
:104BC0000246002180467C480593FFF72FFE3246BF
:104BD00001207A49FFF7A8FD002E04DC324678490F
:104BE00001E70624F8E601207649FFF79DFD012044
:104BF0007549FFF799FD01217448FEF7FFFA744BE0
:104C0000202493F81C31734D734F002B56D0FBF7C3
:104C1000F1FCC5F8D040FBF7A5FCC7210DEB040063
:104C2000C7F8D040FBF734FCC5F8D040FBF766FC72
:104C3000FBF7ACFC01206949FFF776FD00231F4616
:104C40000493674B02930BF1280306939BF8003003
:104C5000002B00F0AE80BBF80630059A934240F07E
:104C6000A8809BF80130002B40F0A3805D4B93F8A7
:104C7000494014F0010440F09C80F51B454528BFD5
:104C80004546B5F5804F28BF4FF480450DF518799E
:104C90001DBB002C38D02246029898A9FFF736FB9E
:104CA000029BA8EB04082344424601204E4902938C
:104CB000FFF73AFDB8F1000FC8DC2AE0C5F8D04094
:104CC000FBF750FCC721C7F8D04008A8FBF7E0FB72
:104CD000C5F8D040FBF712FCACE7C7F30803039319
:104CE000002B4FD1BBF80A20013A12EA57221DD1FE
:104CF000A7B1584601990792FEF7E0FC079A019088
:104D0000019B012B0DD80224224601203749FFF7D1
:104D10000BFD37490120FFF707FD67E6CDF804A03A
:104D2000EEE7019B013301D10124EDE7019BA3F1E3
:104D3000020CDBF80C30023B9C45E4D2BBF80A00C5
:104D4000DBF8201000FB0C110029DCD0B5F5007F4A
:104D5000114416D302EB552C84454FEA552388BFE6
:104D6000831A0A469BF8010049460393FEF7EEFBBF
:104D70000028D9D1039B5B02ED1A1C4499441F44BF
:104D800086E70491039B5846C3F50073AB4228BFE6
:104D90002B4604990793FEF715FC0028C4D1079B06
:104DA00003991A46069B4846194482F0BDFC079BAE
:104DB000E2E70924A8E700BF8C7F0808A37F080862
:104DC0006C800808CF7F0808EA7F080800000A50B6
:104DD000000000B000D0035000E003500E8008082F
:104DE00004000012B48D00204480080827800808C1
:104DF0005A8008087FB504460D460A4E0221304607
:104E0000FEF7FCF923464FF0FF3203A90095064850
:104E1000FBF752FD044601213046FEF7EFF920462C
:104E200004B070BD00000A50FD0C00080FB407B5B7
:104E300004AC54F8045B0448FFF7F8FC214628460C
:104E40000194FFF7D7FFFEE70B8208080346054AE7
:104E50000549D06C03448B428CBF4FF0FF30D364C4
:104E6000704700BFB48D0020000004204FF0FF30D9
:104E7000704700BFFEE700BF002070470120704769
:104E8000012070474FF0FF30704700BF002070478F
:104E900000207047002070470348044B834202D033
:104EA000034B03B118477047CC8E0020CC8E0020F6
:104EB00000000000064B0749C91A891048BF01319C
:104EC000491003D0044B0BB101481847704700BF8D
:104ED000CC8E0020CC8E00200000000010B5064CC7
:104EE000237843B9FFF7D8FF044B13B10448AFF35D
:104EF00000800123237010BD82FF0320000000000A
:104F0000343F0A0808B5054B1BB105490548AFF306
:104F10000080BDE80840FFF7CDBF00BF00000000E3
:104F2000F88E0020343F0A08A3F5803A704700BF8E
:104F3000174B002B08BF134B9D46FFF7F5FF0021D1
:104F40008B460F461348144A121A82F079FB0E4B17
:104F5000002B00D098470D4B002B00D09847002025
:104F6000002104000D000D48002802D00C48AFF3CA
:104F7000008073F073FB2000290000F013F873F039
:104F80005BF900BF00000800000000000000000006
:104F9000A88D0020CC8E0020FCFF03200000000024
:104FA000000000002DE98048C1B0002342F26A31C0
:104FB0002A4A2B4801338B4242F8040BFAD1294D7F
:104FC00025ACFDF719F90FCD0FC495E8030084E86F
:104FD0000300FCF7B3FE0528234D25AE1BD04FF48C
:104FE000003330466B66FCF7BDFE204D01214FF4C7
:104FF000207019ACFCF7A4FD0FCD0FC40FCD0FC46A
:1050000095E80F0084E80F00002119A850F8043B30
:105010005A091CD1FEE7164CFDF7AAF8236F23F0BE
:10502000070343F001032367FDF7BAF84FF4003399
:1050300030466B66FCF796FEFDF79AF8236F23F077
:10504000070343F002032367FDF7AAF8CDE7012A1F
:1050500010D0022A00F04C82FEE700BF00000020C2
:10506000DEADBEEF6C880808009000508488080808
:1050700000800050CF4A012403F01F03214402F5B1
:10508000805204FA03F30C291360BFD14FF4E012ED
:10509000C94BCA495A604FF0FF321C63DA61DC60C9
:1050A00003F5804359601C63DA61DC60A3F5882353
:1050B000C3F880421A6F002122F480321A674FF041
:1050C00030404FF4A04282F0BBFA2022BC4B0220B9
:1050D000C3F8D020042223461146FCF701FC2346E6
:1050E000042205210220FCF7FBFB6922B54930466A
:1050F00082F01AFB2346042207210220FCF7F0FB72
:105100002346042207210020FCF7EAFB0522234660
:1051100011462046FCF7E4FB234606210020052229
:10512000FCF7DEFB30240021A74804FB01F303F168
:10513000A04303F570331A6B013122F07012024361
:1051400004291A63F1D180249D4D32202C64C5F8C6
:10515000A040FBF724F83220FBF721F83220FBF7C0
:105160001EF84FF0010840F60A42984B984FC3F8DA
:1051700004805A61974A30469A600522DA60142208
:105180005A610022DA61944BC7F838374FF4C023D4
:10519000C7F834371823C7F82037FBF751F8C5F89C
:1051A000A0404FF416354046FAF7F9FF8B4B1C64CC
:1051B0000020FBF727F8013DFAD18024884F0FAB80
:1051C000D7F80D17D7F8090797F8112703C30FA8C9
:1051D0001A70FBF735F87A4B0120C3F8A040FAF7B4
:1051E000DEFF7E4ADFF8409214640120FAF7D7FF11
:1051F00029464CF21022484682F022FA4FF008036A
:10520000FB2101244FF0040A07F21272C9F80020B2
:1052100009F54042A2F8081282F80C32DFF80CB20D
:10522000704B6A4A7049714883F84A408BF8555070
:10523000C2F814A0A2F5E032546048614FF4803106
:10524000C2F81C116A49DFF88881C2F82C111021BC
:10525000C2F83051C2F8205102F580525165916375
:105260006021644A82F815134FF4001111604FF465
:105270003E42294609F2044082F0E2F928465E499E
:10528000FFF752FADFF8309120465C4A5C49FFF79D
:105290004BFA5C4A20465C49FFF746FAD9F82430BD
:1052A000214628460193FEF771FE21462846FEF767
:1052B0006DFE0A21019BD9F824202046D21AB2FBA8
:1052C000F1F25249FFF730FA72F052FA50490246B1
:1052D0002046FFF729FA4F4A20464F49FFF724FAA4
:1052E00020464E49FFF720FA4FF4FA70FAF757FFBD
:1052F0002022334B0320C3F8D02005222346114639
:10530000FCF7EEFA2346052208212846FCF7E8FAC6
:105310002346022209212846FCF7E2FA2346514699
:1053200020460522FCF7DCFA234605220221032051
:10533000FCF7D6FA2346514602220320FCF7D0FAA6
:105340000321234605220846FCF7CAFA4FF400233E
:10535000C8F8AC344FF41023C8F8A434304B314AA9
:10536000C8F8A8341C23C8F89434C8F8CC2402F533
:105370000032C8F8C4244FF0031207F21C770FACB8
:10538000C8F8C824C8F8B43497E80F00A8462746E0
:1053900084E80F00DFF89890DFF898A057F8044BE6
:1053A0006368002B48D0C4F8048063689907FCD474
:1053B00042E000BF64800050008004500000FC0FF9
:1053C00000D00350B48808081000700000C00550D9
:1053D00000C00350010400800100050000E00350FC
:1053E00014820808B48D002000400450020004001C
:1053F00044C0055000E100E0AD800808D3800808F3
:10540000DF800808ED800808F68008080481080895
:105410001E81080800800A003581080849810808B3
:105420000100040003000200708F0020108F002094
:1054300000000F18010000280223C4F83080C4F8CF
:105440000C90C4F810A0636140F20143A3600123F3
:105450006360636D13F0280FFBD14FF485730A204E
:10546000A363FAF79CFE636D002BFCD10135042D7C
:1054700094D110232A4AD16B013B05910599FAD1A9
:105480004FF4807310249363264BDA6B013C059232
:10549000059AFAD14FF480729A630123224DB446E3
:1054A0006B600F234FF0300A2746DFF89CE0DFF8EF
:1054B0009C80DFF89C90AB629EE80F0086E80F00AE
:1054C0005CF8042B08EB84035A600AFB0453A21E09
:1054D000012A1F66DF650DD8144A022C5A66144A49
:1054E000DA661F6736D1134B0324C5F8C830E3E7EB
:1054F000114AC0E5012CC3F8649006D00F4B01247B
:10550000EB660C4B2F67AB66D6E70D4B0224C5F854
:105510009C300C4BC5F8A070C5F89830CCE700BFA4
:1055200000000A500000015B00000450200080379A
:10553000020000B03C00015B68800050100000B029
:10554000120000B03C000A50408908080040045096
:1055500080008317C74BC84CC5F8F8300723C74AEB
:105560006363536308222025C54BDFF83C939A6799
:105570006420C3F88420DFF82083FAF710FE02A825
:105580005021C9F8D050FAF783FF1121C8F8D05044
:10559000C9F8D050FAF77CFF0021FAF779FFC8F874
:1055A000D050FAF7ABFF6420FAF7F9FD6760626844
:1055B00012F00202FBD10123B24921616360AF4BBB
:1055C0005A605D6815F00205FBD1012219615A602D
:1055D000FEF75AFEFAF7DAFFFEF756FE021EBCBFD0
:1055E00002F57F2202F6FF720120A7491215FFF78C
:1055F0009BF8A64B01201C465A6CA549FFF794F86E
:1056000040F29243626C2024B2FBF3F201201203B9
:10561000A049FFF789F8A04B0120C3F8D0409F496B
:10562000FFF782F801209E49FFF77EF89D4901208F
:10563000FFF77AF8C820FAF7B2FD9B4B0121C3F8B7
:10564000D0408E48FDF7DAFD012305211A460020DF
:10565000FCF746F90123042205210320FCF740F959
:105660000422012311460020FCF73AF90023062109
:105670001A460220FCF734F9002303211A46184683
:10568000FCF72EF9002308211A460220FCF728F91E
:10569000002300241A4609210220FCF721F9DFF833
:1056A00040C20FAFBCE80F000FC7BCE80F000FC728
:1056B0009CE803004E2287E8030021460DF1960086
:1056C000CDE908440A94ADF818408DF81C408DF8D7
:1056D0001E4081F0B5FF01234FF480628DF8A830A1
:1056E0008DF8AD308DF8B2308DF8B7308DF8BC3014
:1056F0008DF8C1308DF8C6308DF8CB308DF8D030B4
:105700008DF8D5308DF8DA308DF8DF30674B2A20F0
:105710005A66674AD2F8803123F0030343F002034C
:10572000C2F880318DF82340FBF7EAFB614B184447
:10573000984282BF0133B0FBF3F000F1FF34032C39
:1057400028BF03245C488DF82540FFF76FF840F62A
:10575000E443129305238DF83D3040F202332A20B2
:10576000ADF83E30FBF7CCFB0134B0FBF4F0534B0B
:1057700000F5F42000F21F10984284BF0133B0FB03
:10578000F3F040F2FF3388BF00F1FF359D4294BF34
:105790001195119340F20313ADF81A304AF6010344
:1057A000A922ADF8943040F201130125ADF89830EC
:1057B0008DF89A20ADF8A23048F20132A6230FA945
:1057C00008A8ADF89E208DF8A4308DF81D508DF8F6
:1057D000A7508DF89D50FCF7CDFE314606A8FDF789
:1057E000B3F8374B0024D3F82823214642F48072C3
:1057F000C3F82823D3F82023324842F08072C3F83C
:105800002023D3F8282342F48072C3F82823D3F846
:10581000282342F08072C3F828234FF4202310225B
:105820000B93CDE90C440E9481F00AFF264A274BD6
:105830000BA8CBE90023264BCBF8083003238BF8C9
:105840000C30FDF73BFA0822224B3046DA60FEF7B7
:10585000E1FEBDF89460284632461F49FEF764FF1A
:1058600031461E48FEF7E2FF43F25003B34339D1FD
:10587000FEF7FEFF3C000A500000015B00000A50EA
:1058800000800350010000016A810808B48D0020E7
:10589000818108088D81080800D003500C3A09085E
:1058A00099810808B681080800E003500090005074
:1058B00000800050FF2C3101D18108081FA1070092
:1058C00000C00350108F00203000000B84400059AE
:1058D000548F002000400059E6810808F88108082C
:1058E000508908082346042203210220FBF7F8FF11
:1058F00029461748FDF782FC71F03EFF75F0EBFE7C
:10590000144B2146186841F2F42281F099FE20469A
:105910000BF0C0FEFEF7C4FEDFED0F7A30EE677AC3
:105920000E4CFEF7BDFED4ED007AB0EE408A77EE65
:10593000A77A30EE470AF4EEC07AF1EE10FA58BFBB
:1059400037EE008A0BF068FCB0EE487AE9E700BF5A
:1059500000000A50ECCF0808CDCCCC3D8452012089
:10596000704700BF704700BF704700BF704700BF5F
:1059700000207047704700BF30B52DED068B93B007
:105980004CF6EC724FF63523C0F608021468C3F6E5
:105990008E4304F58A6292ED008A08EE903A28EE72
:1059A000288AB0EE480A6CF03BFCB0EE409AB0EEAC
:1059B000480A6CF063FC04F24C4393ED008A28EE35
:1059C000288AF0EE409AB0EE480A6CF029FCB0EE5E
:1059D00040AAB0EE480A6CF051FC04F25443D3EDF7
:1059E000007A67EEA88AB0EE408AB0EE680A6CF0E2
:1059F00017FCF0EE406AB0EE680AF0EE668A6CF0D2
:105A00003DFC4FF670704FF08B43C2F20300F0EE96
:105A1000407A00EE103AB0F90030F1EE4A3A04EE66
:105A2000103A4FF66C714FF66E72B8EEC44A29EE1A
:105A3000087A94ED8C6ACDED043A69EE273AC2F209
:105A40000301B1F90030C2F2030204EE903AB2F958
:105A5000003029EE883A68EECA6AA4EE476AD4EDAF
:105A60008B5A05EE103A8DED037A67EEE97AB0EEC7
:105A7000637AE4EE435AA9EEA67AE9EE267AD4EDEB
:105A80008D2AF8EEE44AB8EEC55AE4EEC75A35EE70
:105A9000225AA4EEE76A04F50B7584EDC45AC4EDEE
:105AA000C25A84EDC36A284605AA02A98DED023ABE
:105AB0000CF0BCFF002000214FF0000CCDE90801E4
:105AC000CDE90A01CDE90C01CDE90E01CDE91001C6
:105AD000D4F8000508A980692A4600EE10CA05AB73
