:020000040800F2
:10000000A88D002011100008790C0008790C000858
:10001000790C0008790C0008790C0008790C0008AC
:10002000790C0008790C0008790C0008790C00089C
:10003000790C0008790C0008790C0008790C00088C
:10004000790C0008790C0008790C0008790C00087C
:10005000790C0008790C0008790C0008790C00086C
:10006000790C0008790C0008790C0008790C00085C
:10007000790C0008790C0008790C0008790C00084C
:10008000790C0008790C0008790C0008790C00083C
:10009000790C0008D1010008790C0008790C0008DF
:1000A000790C0008790C0008790C0008790C00081C
:1000B000790C0008790C0008790C0008790C00080C
:1000C000790C0008790C0008790C0008790C0008FC
:1000D000790C0008790C0008790C0008790C0008EC
:1000E000790C0008790C0008790C0008790C0008DC
:1000F000790C0008790C0008790C0008790C0008CC
:10010000790C0008790C0008790C0008790C0008BB
:10011000790C0008790C0008790C0008790C0008AB
:10012000790C0008790C0008790C0008790C00089B
:10013000790C0008790C0008790C0008790C00088B
:10014000790C0008790C0008790C0008790C00087B
:10015000790C0008790C0008790C0008790C00086B
:10016000790C0008790C0008790C0008790C00085B
:1001700082B006220C4B8DF807005A61A3F580531C
:100180009A695006FCD59A699107F9D59DF8072020
:10019000D2B2DA639A699206FCD540F60A02024BA3
:1001A0005A6102B0704700BF00D005509A4238BF74
:1001B000885470479728D2BF034B044B983800EB04
:1001C000800003EB801070473894002060FB022011
:1001D000654A136DDB0640F1A98070B51021634CB0
:1001E000634B216593F80D02A3F5404500280CBF31
:1001F000BE26FA26B3F8080280B2B04200F3978018
:10020000616393F80A02C0F1010005EB402004305D
:10021000C2F828015748C2F8240102F58052516201
:10022000B3F8082292B2F92A00F28B80D3F80412B4
:1002300003F50172914200F08B80002093F80A22AE
:100240002E6805EB42220446102584468646043279
:1002500008784C7891F802C091F803E036F8100065
:1002600036F8144036F81CC036F81EE040EA044068
:10027000C2F800004CEA0E4CC2F804C008794C7970
:1002800091F806C091F807E036F8100036F81440EF
:1002900036F81CC036F81EE040EA0440C2F80800F8
:1002A0004CEA0E4CC2F80CC0087A4C7A91F80AC09D
:1002B00091F80BE036F8100036F8144036F81CC000
:1002C00036F81EE040EA0440C2F810004CEA0E4C3A
:1002D000C2F814C0087B4C7B91F80EC091F80FE077
:1002E00036F8100036F8144036F81CC036F81EE018
:1002F00040EA0440C2F818004CEA0E4CC2F81CC098
:1003000002F1200201F11001013DA1D1B3F8082250
:10031000C3F80412013292B2A3F8082293F80A2219
:10032000C2F10102D2B283F80A2270BD7047FB25E8
:100330000020114AA3F80852616383F80E0291620B
:1003400070BDB3F80822013292B2A3F8082270BD42
:100350000A4993F80D22C3F8041212B9FB22A3F83C
:100360000822064969E700BF00000450002004503D
:1003700034500120F00F80340010045060FB022044
:10038000F0B52022364B3749C3F8D02091F81D51E3
:1003900000F00202C0F3400400F0010325B340085E
:1003A000FAB10138C31A304A0D7845FA04F010F05A
:1003B000010022D020252D48C0F8D05072B691F807
:1003C0001D51A01C8DBB1D0C45F430655564536454
:1003D00053643023434303F1A043254A03F58023AC
:1003E00033E0C31A234ADFE71AB10230C3EB5003EC
:1003F000D9E7C3EB50030233F4E70F271E4E5060DA
:10040000B762A6F50046F0600120A04005430D70DC
:1004100050688007FCD40120506005209063906CE8
:1004200000F003000328FAD1C4E71D0E45F430653F
:1004300055641D0A1B0255645364536430234343BF
:100440000E4A03F1A04303F580235A660F220C4B9A
:100450005A6301230B4A8340536262B64C70F0BD6D
:1004600000D00350000000B000000A5000E003502C
:10047000200000370000015B00000450300000370E
:10048000002004500010045030B50024144B1C70A0
:10049000144B596414494A644FF48071134A9160B3
:1004A0009A6C9507FCD59A6CD404FCD50E4B9A6CCB
:1004B0009107FCD59A6CD204FCD50A4A0C4DD46B3A
:1004C000D96B0A23AB630B4DAB63936C9D07FCD4D4
:1004D000054A936C9B07FCD4C0E9004130BD00BFC6
:1004E000000000B00000015B00000A5000800350D3
:1004F0000010015B00100A50B1B1C0F5006000F1BE
:100500004F039E2B13D9B0F5A06F12DA10F5A06F30
:1005100011DD0A230028CBBF50385030B0FBF3F078
:1005200090FBF3F040B27047A0F50060E7E70020D1
:1005300070477F2070476FF07F0070474FF00A00D0
:100540000138FDD17047074B9FED077AD3ED097A4B
:10055000F8EE677A67EE877AFCEEE77A17EE900A94
:10056000704700BF008004502700703D70472DE9A0
:10057000F04F87B09846109B1646DDE91452019162
:1005800007469DF844E0129902F4806923B922F0ED
:100590001002B9F1000F20D112F0200F14BF41203A
:1005A00061201C4600230DF1080AA0F10A0BB4FBE0
:1005B000F1FC01FB1C4C5FFA8CF0BCF1090F94BFFD
:1005C00030305844C0B28C420AF8010B03F10103E9
:1005D000B4FBF1F001D3102B10D112F0020A1ED19E
:1005E00002F001003DB130B1BEF1000F02D112F0B6
:1005F0000C0F00D0013D4FF0300C05E00446D6E76B
:1006000002AC04F803C00133139C9C4201D9102BA7
:10061000F6D120B130209D4201D90F2B0BD9D00645
:1006200046D5B9F1000F47D11BBB102907D1910660
:1006300018D5582306E002ACE0540133EBE7022959
:1006400012D162238DF8083030238DF8093002234F
:10065000BEF1000F5DD02D215C1C18336B4403F8F4
:10066000101C37E07823EDE730238DF808300123A4
:10067000EEE71398984201D0AB421DD15C1E204694
:10068000D3D010293CD19C1E930676D40F2C21D8B0
:1006900004F118030DEB0304782304F8103C04461E
:1006A00004F11801631C0DEB0104302104F8101C47
:1006B0000F2BCDD91C460DE0102920D194065BD418
:1006C0000F2BF7D878215C1C18336B4403F8101CEF
:1006D0000F2CE5D993073CD0B146A1444846A9EB7D
:1006E0000402002C39D1BAF1000F05D0A9EB06099C
:1006F0004D4506EB090037D807B0BDE8F08F1C4622
:100700000229E5D10F2CE5D804F1180362216B44CE
:1007100039E0500704D55C1C18332B216B449EE74D
:100720001107C7D55C1C183320216B4497E743465B
:1007300020200199B84709F101094D450BEB090249
:10074000F5D8A5EB0409A54238BF4FF00009B14424
:10075000C3E7A146A6EB040BEFE7013C02A8434622
:100760000199005DB847B9E7024643462020019948
:10077000B84709F10109BBE71C460F2CAAD858213C
:1007800004F118036B4403F8101C0134A0E72DE9B1
:10079000F04F8DB01F460B1E0693A84B914614BF19
:1007A00083469B460025169E387870B94D4538BF64
:1007B0002A464B464FF00000069928BF09F1FF3248
:1007C000D84728460DB0BDE8F08F252807F101076E
:1007D00006D02A464B4606996C1CD8472546E3E7C7
:1007E00000230DE02D2A29D0302A06D0303A092ADC
:1007F0004FF0000812D80A2431E043F001030F46FD
:10080000394611F8012B2B2A1BD0EBD8202A1BD0FC
:10081000232A1CD02A2A2AD04FF000083A782E2A00
:1008200066D179787A1CA1F13000092843F48063FD
:1008300055D817464FF0000A0A2428E043F0020377
:10084000DDE743F00403DAE743F00803D7E743F0BA
:100850001003D4E70F4604FB0822A2F13008394602
:1008600011F8012BA2F130000928F3D9D6E756F888
:10087000048B0F46B8F1000FBCBF43F00203C8F170
:100880000008CBE70F4604FB0A22A2F1300A3946E2
:1008900011F8012BA2F130000928F3D93A4612F8D9
:1008A000011B6C292CD026D8682930D06A2938D071
:1008B00017F8010B78288CD8632835D8622860D0C7
:1008C000632800F0D080252883D0582881D15A058C
:1008D00000F1848023F00C0242F020024FE02A292C
:1008E00005D156F8042B023722EAE27AD6E71746FA
:1008F0004FF0000AD2E77A29DAD143F480730BE093
:1009000079786C29F9D143F440730237D0E77978CC
:10091000682903D043F080031746C9E743F0C003BA
:10092000F3E743F40073F7E70122A0F16404E4B2B3
:1009300002FA04F4424A144019D1732800F0D0801E
:1009400070287FF446AF43F0210305930823CDE9D7
:1009500003A31023CDE9014356F8043B2A46009334
:1009600058464B460699FFF702FE05461CE77828D5
:1009700003F480611BD100295DD023F00D02102308
:1009800006E0590554BF23F00C0223F00D020223A8
:1009900012F400717FF408AFD00506F1040451D5BC
:1009A000CDE90482CDE9023A0191336834E06F2841
:1009B00007D119B923F00C020823E9E723F00D024F
:1009C000FAE7692823F010020BD0642809D023F03D
:1009D0001C0209B123F01D020A23D9E723F00D02FE
:1009E0007AE709B123F0110294053FF5DDAED00599
:1009F00006F1040401D5336802E0510616D53378B8
:100A0000CDE904820A22002B02924FEAD372CDF87C
:100A10000CA00192B8BF5B4200932A464B46584651
:100A20000699FFF7A4FD26460546BDE61306E2D566
:100A3000B6F90030E4E723F00C02A0E76D050008EA
:100A400021081200510608D53178CDE9023A002379
:100A5000CDE90482CDE90013DFE7316812F0800FA1
:100A600018BF89B2F1E713F0020424D04FF0010A55
:100A70006B1C07932A464B46069916F8040BD84779
:100A800064B35446079A1FE04B4620200699D84786
:100A900005EB0A020AF1010AD045F5D8B8F1000FBA
:100AA00008F1FF3308BF002308F1010A1D4408BF05
:100AB0004FF0020ADCE7A246EAE7551C4B4620202D
:100AC0000699D8472A4601344445F6D3A8EB0A03D1
:100AD000D04538BF0023079A1A440792079D63E662
:100AE000324652F8041BBAF1000FCDE9071214BFC9
:100AF00052464FF0FF3239B10C460A44217809B111
:100B0000A24210D1079AA41A13F48062099202D06B
:100B1000544528BF544613F002030A9317D1631BB0
:100B20002A460B9307E00134E8E7561C4B46202089
:100B30000699D84732460B9BD3184345F5D3A8EB0B
:100B40000403A04538BF002301341D441C44184E43
:100B5000079B002B08BF33461E46EB1A0793079BE3
:100B6000F51816F8010B30B1099B53B10AF1FF33A8
:100B7000BAF1000F04D10A9BC3B12A46661B0CE0F0
:100B80009A464B462A460699D847E8E702F1010AF9
:100B90004B4620200699D847524693199845F5D8D8
:100BA000A8EB0403A04538BF00231D44089EFBE5C5
:100BB000C0B50708054B9A6C9204FCD59A6C910756
:100BC000F9D558649A6C9206FCD5704700000A501B
:100BD00000B1EFE7704730B5EFF3108572B60468E7
:100BE00084EA02030B406340036005B962B630BD7E
:100BF0000E4BD3F8403103F00303022B0DD0032B2F
:100C00000FD0012B0BBF0A2301234FF40042002217
:100C100000B1026001B10B60704709234FF400423C
:100C2000F6E70C234FF47A72F2E700BF0080005021
:100C3000064B33F81030CB40DB0700D4FEE73023FF
:100C400001225843024B8A401A50704768C807086F
:100C500040E00350064B33F81030CB40DB0700D4A4
:100C6000FEE7302301225843024B8A401A50704756
:100C700068C8070840D00350FEE74FF0B4439868B7
:100C8000C0F304400C280AD8DFE800F00B0909097A
:100C90000909072119091B1D1F0010487047002072
:100CA00070479B6803F04073B3F1807F11D0B3F1BC
:100CB000007F10D00A4A002B08BF10467047094831
:100CC0007047094870470948704709487047094804
:100CD0007047094870470948704700BF405DC6002B
:100CE00000093D00C0EA210180BA8C010048E801FA
:100CF000005A62020024F40080841E0040420F006B
:100D000010B5154B0446D3F8283103F00703013B17
:100D1000052B04D8DFE803F004141C100C18FEE7C0
:100D20000E4B1868052304B1206001B10B6010BDA3
:100D30000A4B18680623F6E7FFF79FFF0723F2E741
:100D4000064B58680323EEE7044B58680423EAE790
:100D500002230348E7E700BF00800050B48D002065
:100D6000002D310110B5164B0446D3F8200100F0D8
:100D70000700062805D8DFE800F01D050D1F111536
:100D80001900FEE70F4B1868052304B1206001B17C
:100D90000B6010BD0B4B58680323F6E7FFF76DFFA0
:100DA0000723F2E7074B18680623EEE7054B586860
:100DB0000423EAE70123E8E702230348E5E700BF4D
:100DC00000800050B48D0020002D310108B5094B82
:100DD00020F04040421C1A60FFF7D2FA0122064878
:100DE0000649437802339A404B6B1342FCD0007C97
:100DF00008BD00BF008F0020000000B000000450BC
:100E00007047827802F0040102F00103920706D4D1
:100E1000B1B99FED0D0AF7EE007A002B05E039B964
:100E20009FED090AF6EE007A002B00FE270A09E082
:100E3000B6EE080AF5EE007A002B07FE800A01E004
:100E40009FED010A837070470000000000EE100A59
:100E5000BAEEEE0A704700BF00EE100ABAEECD0AF5
:100E6000704700BF10B44379C3F3C102022A18D0FF
:100E7000012A0FD049B31F4B1F4A5C680368091B46
:100E8000891002FB01F15A8F61F308025A875DF85D
:100E9000044B7047A9B143F020035DF8044B437144
:100EA0007047E1B1134B144A5C680368091B891051
:100EB00002FB01F1DA8961F30802DA815DF8044B83
:100EC000704761F345134371E1E74FF0FF31036869
:100ED0005A8F61F308025A875DF8044B70474FF050
:100EE000FF310368DA8961F30802DA815DF8044BA7
:100EF000704700BF008F0020B76DDBB64379C3F3A6
:100F0000C103022B05D0012B1CBF036883F83810E6
:100F100070470368197370474379C3F3C103022B09
:100F200009D0012B1FBF036893F83B2061F34402F3
:100F300083F83B2070470368DA7B61F34402DA737D
:100F4000704700BF4379C3F3C103022B05D0012BC7
:100F50001CBF036883F839107047036859737047E2
:100F6000437913F0180F00D0FEE7036893ED040AED
:100F7000704700BF437913F0180F03D1036883ED66
:100F8000040A7047FEE77047704710B50E4A0F48D5
:100F90009368C188DC1C41F30E018C4204DB012301
:100FA0004FF0FF3013730DE00068C1184C78C05C3F
:100FB000043300EB04208C78C97800EB044000EB8C
:100FC0000160936010BD00BF008F0020A037032098
:100FD0000222014B5A737047008F00200222014BFE
:100FE0005A737047008F002070477047704740F277
:100FF00091322021014879F08DBE00BF200100B060
:10100000024A136F43F480631367704700800050F7
:1010100008B54FF480412A4B2A4A9A60D3F88820B9
:1010200042F47002C3F88820274A91664FF0FF31DE
:10103000264A1166264951660221C3F8D010BFF333
:101040004F8FBFF36F8F01204FF440332149C1F818
:101050008001D3600860A2F5005213611E4A1F4B45
:101060009B1A9B100AD11E4B1E498B421BD300209A
:101070001D4B1E498B4221D307F042FD1C49013B09
:1010800052F8040B013B41F8040BF9D2EBE7186866
:1010900050F82240586840F8224001329868824255
:1010A000F5D30C33E1E70022F8E71C6844F822008E
:1010B00001325C68A242F8D30833DBE70022F8E78C
:1010C00000ED00E0000000080090005000A0004487
:1010D000F7FF370000E100E0C8930908C89309084A
:1010E00094920908A0920908A0920908A092090800
:1010F000D8FF03204379C3F3C102022A1ED0012A7C
:101100000CD003685B8F43F30803002B1CDB0F4AF2
:10111000C3EBC303506800EB8300704713F0200358
:1011200012D010B50A4B00685C6D6DF0BFFCBDEECF
:10113000C00A10EE103A54F8230010BD0368DB8992
:1011400043F30803002BE2DA00207047008F0020F1
:10115000A44B00B04379C3F3C103022B12D0012B7F
:1011600008D0BEEECD0A10EE102A036803EB41034F
:101170005A86704779B1012910D00229F9D1006847
:101180006CF0F6BBBEEECD0A10EE102A036803EB3E
:101190004103DA80704700686CF0CCBB00686CF0EB
:1011A000D8BB1FB5094BD3F82033B3F902004DF07B
:1011B00091FF04466DF0B6FCF7EE007A204630EE63
:1011C000270A04B0BDE810406CF027BBA44B00B068
:1011D00038B5114B597B012913D1104A126892F886
:1011E0001C25022A0AD1282500201C690C4A5873A4
:1011F00005FB0422197582F8B50404E007F040FDF0
:1012000001E001225A7372F0C6F8BDE8384010229E
:101210000021044879F07EBD008F00206CB60808DC
:10122000000000B0188F00200FB42DE9F04FADF58D
:10123000057D8EAA52F8043B4C4C039200924C4818
:101240004FF4007204A9FFF7A2FA94F82830002B9B
:1012500000F08680474BD3F8008098F81C35002BAF
:101260007ED000279DF81030E762012B06D142485E
:1012700073F023F980270DF1110502E0022BF9D05C
:1012800004AD0026DFF8F890A9F5907A294615F804
:1012900001BBBBF1000F51D00023626C934204DA12
:1012A000C85C202802D90133F8E704D0216B0B4435
:1012B0009A42B8BF2663636B1BB1A36B013BC4E9C1
:1012C0000D63236BC3B994F8283063B1A06BE36B53
:1012D000013090FBF3F1A06303FB1100202102FB1E
:1012E000009079F017FDA36B002BA1BF03F003035F
:1012F000226C04EB83039A61BBF10A0F06D0BBF1A9
:101300000D0F05D1012326636363BFE72663BDE7A5
:10131000D4E90E2092FBF0FC236B616C00FB1C22D5
:101320000AEB030001339942D8BF334601FB0202A6
:101330004BEA070B82F820B12363A7E798F89835AA
:10134000042B0DD00D4B94F848201B7853EA02056E
:1013500006D1012384F8483072F004FA84F848502A
:101360000DF5057DBDE8F04F04B07047008F0020FB
:10137000AD0100086CB60808C7B50708CFFF032009
:10138000200100B030B52DED048B8DB01F4BD3F88C
:101390002033B3F902004DF09DFE00230446CDE951
:1013A000003302936DF0BEFB2046F0EE408A6DF0F4
:1013B000B9FB2046B0EE608A6FF009046DF0B2FB15
:1013C00007EE904AB8EEE79A6FF0090539EE089AF1
:1013D00007EE905AF8EEE77A012377EEA87A1A46DC
:1013E000694603A80135CDED037A8DED049A5EF0D0
:1013F00053FE0A2DECD101340A2CE1D10448FFF749
:1014000013FF0DB0BDEC048B30BD00BFA44B00B08A
:101410003BC2070808B5054809220121FFF704FF70
:10142000BDE808400248FFF7FFBE00BFD5B507087A
:10143000E6B507080D4B1B6893F87E359A0714D460
:101440000B490B78DB0710D510B58EB0094B93F81C
:101450004940012C07D10C31684679F0C7FC214680
:10146000684662F05DF90EB010BD70476CB60808B2
:10147000A44B00B0008F002008B572F0F4F80022F1
:10148000024B1B6883F8982508BD00BF6CB608089E
:101490000068704703684BB11A4612F8011B2029F7
:1014A0000BD93A29F9D11978302902D04FF0FF3001
:1014B000704702339A42F9D102600020704744F22B
:1014C000AA23044A5843516A536A5B1A8342FBD3E6
:1014D000704700BF008004502DE9F84F0446DFF844
:1014E0006880DFF868902078FF2801D1BDE8F88F88
:1014F0008025A246C8F8A050C8F84050FEF738FE34
:10150000C9F840501AF801BF0BF07F073E46013E74
:10151000F6B2FF2E1AF8010F0CD102371BF0800F24
:101520003C44E0D0FF2808BF4FF4FA700134FFF7C5
:10153000C6FFD8E7C9F8A050C8F84050FEF718FE1B
:10154000C9F84050E3E700BF00E0035000D003506B
:1015500080220C4B1A64052203F500335A61A3F56F
:1015600080539A695206FCD59A699107F9D5D863D8
:101570009A699206FCD540F60A42586A024BC0B2FC
:101580005A61704700D0035000D005500422024B2E
:10159000FF201A67DCE700BF00D0035007B5002228
:1015A0000121034B009279F075F803B05DF804FB5C
:1015B00001B607080F23044A936200BFD36A1B07D2
:1015C000FCD103235363704700000450064B586E50
:1015D000D3F89430C0F30A10C3F30A139842B8BF8B
:1015E00018460130800070470000045008B50A46D4
:1015F000FEF74AFF08BD13B50A4B044693F81D31A8
:101600001BB1010E6846FFF7F1FF6846210CFFF79A
:10161000EDFF210AFFF7EAFF2146FFF7E7FF02B0DF
:1016200010BD00BF000000B07FB52023164C05217F
:101630006846C4F8D030FFF7D9FF144EFF2102A846
:10164000FFF7D4FFDDE90232FF2B01D0FF2A11D1D1
:1016500020250120C6F8D050FFF731FF052168464C
:10166000C4F8D050FFF7C2FFFF2102A8FFF7BEFF6A
:10167000DDE902321343DB07E0D42022034BC3F839
:10168000D02004B070BD00BF00E0035000D0035074
:1016900037B52025074C062104F500536846C3F8EA
:1016A000D050FFF7A3FF04F58054C4F8D05003B026
:1016B00030BD00BF00C0035070B500240F260346A4
:1016C00008462D492D4D4C602D4903324C60A1F543
:1016D000C0212C708E622B4EF46003F0030414447E
:1016E000294AA408168B013CC4F30A0464F30E16BD
:1016F0001683168F106264F30E16841C146402F1B4
:10170000080416870C6720242832C1F8A0201F4A3D
:10171000C2F8D0400A6B9407FCD103221C4C6263D0
:101720008A6472B620211B4AC2F8D01012494A6856
:101730009207FCD401224FF48076114C4A6062601B
:10174000104AD66095F81D51134A02EA530265B15A
:101750005B0E43F430634B646364130A4B64120200
:1017600063644A64626462B670BD5B0C43F43063C8
:101770004B646364F5E700BF0000015B000000B04C
:1017800000000A5000800350B48D002000D00350A8
:101790000020045000E00350FEFFFF7F2DE9F843D6
:1017A0000026144B80461E7009B30F46DFF84C909C
:1017B000114CD9F8000000BFBD1BB5F5005F28BF74
:1017C0004FF40055EA1C08EB060122F00302FFF774
:1017D00073FF00BF636B03F00303032BFAD1D9F847
:1017E00000002E442844B742C9F80000E4D840461F
:1017F000BDE8F883000000B000000450008F002016
:1018000008B5FEF7BDFD0123044905484A780232B8
:101810009340426B1A42FCD0087C08BD000000B027
:101820000000045070B50023012414481449154ADF
:101830004B6053600370144B80F81C415C6C03F1E7
:101840002800850865F39F045C645D6A03F1080461
:10185000A60866F39F055D620C4B1C67C3F8A000E9
:101860004B689807FCD453689B07FCD40A230449AF
:101870004B61536101234B60536070BD000000B0A9
:101880000000015B00000A50B48D002000000450ED
:101890000F220F4B0F489A624FF48072A3F5C0439A
:1018A000DA6000220C4903F5CC234A605A600270CA
:1018B00080F81C214A689007FCD45A689207FCD42F
:1018C000022205494A615A6101224A605A60704702
:1018D00000000450000000B00000015B2DE9FF4152
:1018E000254DEB6C002B43D1244E96F81C710FB1A3
:1018F000FFF7CEFF4FF020084FF48004204B6846DE
:10190000C3F8D0809021FFF771FE0021FFF76EFE33
:101910000021FFF76BFE0021FFF768FE0021FFF7B3
:1019200065FE002102A8FFF761FE029B039A153BAA
:10193000153A04FA03F39440A342124A34BF5C0000
:101940006400C2F8D080EC640FB1FFF76BFFB4F114
:10195000806F0DD30123202486F81D31084BB72159
:10196000C3F8D0406846FFF741FE064BC3F8D040AD
:10197000E86C04B0BDE8F081008F0020000000B0EA
:1019800000E0035000D003502DE9F04F85B03E4BEE
:10199000044693F81C310D46904600930BB1FFF7B7
:1019A00077FF394B24F0404493F81D3124F00304B1
:1019B00003B902344FF0000A4FF02009334BC245FF
:1019C000C3F8D09006D3009B002B5AD005B0BDE8D9
:1019D000F04F27E7FFF75CFE2D4B0221C3F8D090B4
:1019E00002A86708FFF702FE3846FFF704FE264B01
:1019F00093F81D2132B30027C4F30802C2F5007327
:101A0000019307EB0A06464504D2019B05F1040B3E
:101A1000BB4207D83C441D4BB246C3F8D090FFF7F9
:101A200003FECBE71BF8012C1BF8031C02A8FEF7F2
:101A30002BFD1BF8022C1BF8041CFEF725FD5D4650
:101A40000437DEE7564605EB0A0BFFB2A4EB0A0AA1
:101A5000B04506EB0A04DED9B7F5807FDBD0FB0783
:101A600047BF9BF803209BF801109BF800201BF850
:101A7000021C02A8FEF708FD023601370BF1020B2B
:101A8000E6E705B0BDE8F08F000000B000D00350DD
:101A900000E0035002B177E77047F8B50B4C0746FA
:101AA0000E46206D00211D46FEF726FD3860606D54
:101AB000FEF722FD3060A06D0121FEF71DFD1060D4
:101AC000E06D0021FEF718FD2860F8BD008F0020B2
:101AD0002DE9F04110232022144C154D23640146BA
:101AE000FEF72CFDC5F8D020FEF728FDC4F8D02065
:101AF000FEF724FDC5F8D020FEF720FD00221E468B
:101B00001F46DFF83080D8F844402F64FEF716FDFA
:101B10000648C4F340140664FEF710FD013B44EA96
:101B20004202F0D1D2430A80BDE8F08100E00350C8
:101B300000D0035000C00350044BDFED057A93ED55
:101B4000090AB8EE400A20EE270A704700C0045088
:101B5000ACA8FB360EB40FB505AA52F8043B0146FB
:101B60000392009204484FF0FF32FEF710FE04B0DB
:101B70005DF804EB03B07047AD0100080CB41FB56D
:101B800006AC54F8043B0A4600940146044803940A
:101B9000FEF7FDFD04B0BDE8104002B0704700BF85
:101BA000AD010008F8B5994C0D46237823B1002308
:101BB000974A237082F86030964B984240F0C58077
:101BC000934F97F86030AB4255D0934A136B13F0A4
:101BD0000A0FFBD18F4B5A68D10702D59A6C920439
:101BE000F9D501218D4A51605A6812F00202FBD1E9
:101BF000012D46D11A638A4ADA608A4A1A610222A2
:101C00005A6140F201429A605D60824B5A6D12F057
:101C1000280FFBD14FF485729A635A6D12F0280F8A
:101C2000FBD19A6CD24312F4405FFAD1794A536DDA
:101C3000002BFCD1237094F81C31FBB1FFF7F2FDAF
:101C4000794B7A4AC3F8CC2402F50032C3F8C42495
:101C50004FF00312C3F8C8241C22C3F8B424022294
:101C600003F5A0435A6203225A63072203F5BE23F9
:101C70005A630023237087F86050F8BDFFF708FE11
:101C8000DEE7022D60D10F21634A624C91625B68EE
:101C90001BB1636DC3F30B03FAE74CF0DDFF0423C4
:101CA0005E4A634900260B6113610B6113610B618E
:101CB00013610B611361202341F2020123614FF490
:101CC000A023E660A6606161A661A6656362594BC8
:101CD000E6612662A662E66266632665D3642663D1
:101CE0006369052023F44C5323F00F030B43636116
:101CF000A36823F0804323F0E203A3604CF0CCFF01
:101D00004FF4E13130464CF0E9FF4CF0A5FF414A79
:101D1000936CDB4313F4405FFAD14FF4702305203A
:101D2000D3604CF0B9FF4FF4614143484CF0D6FF0B
:101D30003D4B424AC3F8CC2402F58032C3F8C42498
:101D40001422C3F8B42496E7FEE73D4B984294D1A1
:101D50002F4A92F86130AB428FD03A4991F80E3257
:101D6000002BFBD12C48036BDE06FCD4344B5868A7
:101D7000C0B901205860012D18D140F60A415961BF
:101D8000314999600521D960142159610021D96137
:101D9000254B2E49C3F838174FF4C021C3F8341728
:101DA00018212EE098698406FCD5E4E7EB1E012B90
:101DB00050D88021264B042D19644FF0100103F5F3
:101DC0008043996240F60A4103F5D83359611E49B0
:101DD00099604FF00501D9604FF0150159610CBFB2
:101DE0004FF480714FF44741D96102210E4BC3F883
:101DF00030171649C3F838174FF4C021C3F8341709
:101E00001C21C3F8201782F8615036E7000000B0AB
:101E1000008F002000000A500000045000200A50EB
:101E200000000F180100000100C003500300020071
:101E300000100A50FF3F0D0304AA11040200040021
:101E400000C005503450012001040080010005004D
:101E500000D00350052DD6D191F80E32002BFBD1C6
:101E60000E490B6BD806FCD40D4B596811B9996912
:101E70008904FCD510210B4B996240F60A4103F509
:101E8000D8335961084999600521D96015215961F4
:101E90004FF48071D961A3F500337AE70000045054
:101EA00000C005500010045001040080F8B502067F
:101EB00004460D4607D500213720FFF7F7FF01281C
:101EC00044D804F07F040C2C1ED0FFF75FFB244B9A
:101ED000244893F84810FFF765FE0422224B234F55
:101EE0001A67FF20FFF734FB214E7B6A1E44FF2058
:101EF000FFF72EFBFF2807D07B6AF31A002BF6DCD6
:101F0000FFF744FBFF2021E044F04000FFF720FBF7
:101F1000280EFFF71DFBC5F30740FFF719FBC5F3BC
:101F20000720FFF715FBE8B2FFF712FB7CB1082C86
:101F30000FD18720FFF70CFB0A24FF20FFF708FBD7
:101F4000030603D5013C14F0FF04F6D1F8BD95203B
:101F5000F0E70120FFF7FCFA0C2CEDD1FF20E9E7B8
:101F6000B48D002000C0055000E0035000800450F4
:101F70000834820038B50D461C46114678BB73B351
:101F8000194B93F84930DA072BD4184B93F8623089
:101F9000DB0658BF4902012C0FD11120FFF786FF45
:101FA00028B928464CF030FEB0FA80F46409FFF7F7
:101FB000EDFA201E18BF012038BD1220FFF776FF72
:101FC0000028F4D128464CF01FFE18B1013C05F55D
:101FD0000075F7D100210C20FFF768FFE7E7042028
:101FE000EAE70320E8E700BFB48D0020008F00205F
:101FF00038B5436A05468B420C4611D001230A4688
:1020000000F128014078FFF7B5FF002818BF4FF016
:10201000FF3403460CBF034601236C62184638BDEB
:102020000023FBE738B50023C3704FF0FF33436252
:102030000446FFF7DDFF002852D194F82830B4F8A9
:102040002652EB2B09D01833DBB2012B05D94AF607
:1020500055239D420DD1022038BD4AF655239D429D
:1020600030D0B4F8332094F83530B2F5007F00D189
:1020700093BB0320F0E7B4F8332094F83530B2F581
:10208000007FE8D1002BE6D05A1E1A42E3D1E38E3E
:10209000002BDCD094F83830013B012BD7D8B4F8B2
:1020A0003930002BD3D0B4F83B307F2B06D804F165
:1020B0004800FFF7EDF9B0F5803FC8D3E38F002B60
:1020C000C5D007E00822074904F17A0078F012FE33
:1020D0000028D0D10020BFE75A1E1A42C9D1D6E746
:1020E0000420B9E70FB607082DE9F04385B00D4687
:1020F000B14C00BF94F80E32002BFBD1AF4A00BFA9
:1021000093699B04FCD594F80D32AB4240F03281C8
:102110000121AA48FFF746FD4FF08009002301275F
:102120001022A74EDFF8B88206F20441C4F8041268
:10213000C8F8409084F80E72A4F8083284F80A3285
:1021400018461D469C469E4694F80A32904606EB79
:1021500043233768043300BFAFF30080AFF3008040
:1021600008784D7891F802C091F803E037F8100034
:1021700037F8155037F81CC037F81EE040EA054024
:10218000C3F800004CEA0E4CC3F804C008794D793E
:1021900091F806C091F807E037F8100037F81550AD
:1021A00037F81CC037F81EE040EA0540C3F80800C5
:1021B0004CEA0E4CC3F80CC0087A4D7A91F80AC06C
:1021C00091F80BE037F8100037F8155037F81CC0BD
:1021D00037F81EE040EA0540C3F810004CEA0E4C08
:1021E000C3F814C0087B4D7B91F80EC091F80FE046
:1021F00037F8100037F8155037F81CC037F81EE0D4
:1022000040EA0540C3F818004CEA0E4CC3F81CC065
:1022100003F1200301F11001B8F10108A0D14FF43E
:102220000018B4F80832C4F8041201339BB2A4F8C1
:10223000083294F80A326349C3F10103DBB284F82F
:102240000A32614B614FC1F8243194F80A32C3F16C
:10225000010306EB43230433C1F82831C7F880801B
:10226000BFF34F8FBFF36F8F0020594B84465A62E4
:1022700094F80A32864606EB432305463668D4F8BE
:1022800004120433AFF30080AFF30080AFF300809B
:10229000087891F801C091F802E0CD7836F8100086
:1022A00036F81CC036F81EE036F8155040EA0C40EF
:1022B000C3F800004EEA054EC3F804E0087991F82F
:1022C00005C091F806E0CD7936F8100036F81CC04C
:1022D00036F81EE036F8155040EA0C40C3F8080006
:1022E0004EEA054EC3F80CE0087A91F809C091F85F
:1022F0000AE0CD7A36F8100036F81CC036F81EE039
:1023000036F8155040EA0C40C3F810004EEA054E6E
:10231000C3F814E0087B91F80DC091F80EE0CD7B76
:1023200036F8100036F81CC036F81EE036F81550A6
:1023300040EA0C40C3F818004EEA054EC3F81CE012
:1023400003F1200301F11001013AA1D1B4F80832E0
:10235000C4F8041201339BB2A4F8083294F80A328C
:10236000C3F10103DBB284F80A32C7F8008005B07C
:10237000BDE8F0838026174F052110483E64EDB27A
:10238000FFF710FC84F80D5294F80D3273B1FF235F
:10239000114A0192114A01A88DF80C300292FFF700
:1023A0009BF80F4BC7F8A0601E64B1E60A4AFF23F2
:1023B00001920C4AEFE700BF3450012000C00550E5
:1023C0003490002000000450F00F803400E100E061
:1023D0000010045000D003502B04001400DB2C002C
:1023E00000E0035000AB2C000EB42DE9F04F94B088
:1023F0003D4D059095F86330182B3BD84FEAC30943
:10240000013385F8633000241EAB0DF124080893D6
:10241000009329221D9B41463448FEF7B8F995F8F0
:1024200064300493324B93F84A30039318F9043024
:1024300018F80460002B4FEAC40143DD00272D4B40
:1024400001F1080B03EBC6060D4609EB070316F86E
:10245000012B069312F0010FDDE9033008BF03469C
:10246000B5F5A07F4FEA520205F1010A15DB55468A
:10247000D2B2EFE708242046FDF79CFE0146A4F106
:102480000800FDF797FE4FF4A072013478F0B6FC17
:10249000C82CF0D14FF0C009B5E7174890F80C02EE
:1024A000082805D106980793FDF784FE079B43553E
:1024B000DA455546D2B2CDD10137082FC4D1013407
:1024C000282CB3D1059B4BB10B4C012194F80B0286
:1024D000FFF70AFE94F80E32002BFBD114B0BDE8D2
:1024E000F04F03B0704700BF008F0020AD0100081F
:1024F000B48D002070C80708345001207FB5044611
:102500000D460A4E02213046FFF74CFB23464FF0A2
:10251000FF3203A900950648FEF739F90446012168
:102520003046FFF73FFB204604B070BD00000A5064
:10253000D10B00080FB47FB50D4D08AC54F8046BF7
:1025400028460221FFF72EFB33464FF0FF3200945E
:1025500002A908480394FEF71AF904460121284607
:10256000FFF720FB204604B0BDE8704004B0704780
:1025700000000A50D10B00080FB407B504AC54F8A2
:10258000045B0448FFF7D6FF214628460194FFF775
:10259000B5FFFEE718B6070838B50446C088A3881B
:1025A00040F30E0043F30E0342189A420D4618DD25
:1025B00094F90520002A04DB0A4601460E48FFF77D
:1025C000DBFF8B4202DA0D48FFF7D6FFE3790C48B8
:1025D00043F08003E371FEF727FEE3886FF30E03F9
:1025E000E380E388206843F30E010D4465F30E0396
:1025F000E380084438BD00BF20B607087CB6070852
:10260000A2B607082DE98048ADF5844D99B00120A8
:10261000A549FFF7E9FE0EAC0DAB1C60A34B98A8D3
:102620000BAA98931360FEF735FF002805DA0B21FB
:102630009F48FFF77FFF9F493FE29F4B810003EBDD
:102640008000826E0AB10020107000200B448DF8CB
:1026500038000DA90BA80EAA9C664CF021F904467F
:1026600001469348FFF766FF002CE4D1012093490F
:10267000FFF7BAFE01209249FFF7B6FE914B0DAD70
:1026800028460CA92B604CF00BF9044600286CD1AD
:10269000DDF830800CAB2B68CDF860821E4613F855
:1026A000012B2F2AFAD05C2AF8D000239A93337892
:1026B0001F2B50D9A0AF202198AB0B22581878F0CF
:1026C00029FB00254FF0080906F1FF3AC6F1020B7D
:1026D0000BEB0A031AF8014F202C08D92F2C01D03C
:1026E0005C2C63D1F25C2F2A5ED05C2A5CD01E4445
:1026F000002D00F03F819DF88032E52B04BF0523BB
:102700008DF88032202C76D93378202B8CBF002393
:1027100001239B008DF88B32989B98A801934CF075
:102720004FFD0446002840F0EE8083460DF5207AE8
:102730009E990198FFF75CFC0446002840F08380D6
:102740009F980378002B58D19DF88B325C0700F1DD
:10275000E480052409E0802398A88DF88B324CF0A2
:102760002FFD0446002800F0DA800022214656485A
:10277000FFF7E0FE554A56490120FFF735FE55495F
:102780000120FFF731FE4FF4FA60FEF798FEBFF329
:102790004F8F5149514BCA6802F4E0621343CB603A
:1027A000BFF34F8F00BFFDE701339BE72E2C1AD0FC
:1027B000A94540F2DF80220641BF494B04F07F0467
:1027C000E41894F808444748214678F0BAFA0028FB
:1027D00040F0D080A4F16103192B9CBF203CE4B2EF
:1027E0007C55013574E7B9F10B0F00F0C380082563
:1027F0004FF00B096CE704238CE7C47A04F03F0325
:1028000014F008048DF8663217D09C9B989C2033F6
:10281000B3F5001F32D29E99002995D0C3F3080961
:10282000B9F1000F6AD101319E919D9949BB208970
:10283000B0EB531F62D89E9186E70B22514678F089
:1028400059FA0028E1D19DF88B32002C5DD1580750
:1028500065D49DF86632D9067FF57BAF9C9A98F8CF
:102860000010C2F3080208F12803134403295A8B0D
:1028700004BF9B8A42EA03429A921CE7CDF878B2E1
:10288000C9E76589013D15EA532537D120460293F2
:102890004CF040FC01283CD9431C3CD0E168029B31
:1028A000884221D39E954FE7B8B607083CC2070877
:1028B000D0B607081FB80708008F0020DFB607084A
:1028C000F8B607080CB7070826B707080EB70708B9
:1028D00055B7070833B8070800ED00E00400FA0513
:1028E00068C8070817B7070802399D900238884260
:1028F0003EBF6189256A00FB01559E9528344C44F2
:102900009C939F9414E79DF88B32042C7FF42DAF99
:102910001CE7022497E7012495E7042425E79DF9A5
:102920008B32002B26DB9DF86632DA06F5D498F858
:1029300000309F98032B08BF838AB0F81AB000F1CB
:102940001C0008BF4BEA034BFEF7A2FD0646B8F891
:10295000063002460021019080480593FFF7EAFD0A
:10296000324601207E49FFF73FFD002E04DC32464F
:102970007C4901E70624F8E601207B49FFF734FD96
:1029800001207A49FFF730FD01217948FFF70AF964
:10299000784B202493F81C31774D784F002B60D072
:1029A000FEF776FFC5F8D040FEF772FEC7210DEBAB
:1029B0000400C7F8D040FEF719FEC5F8D040FEF776
:1029C00033FEFEF72FFF4FF000094F4601206C4900
:1029D000FFF70AFD6B4BCDF80C90029308F128032A
:1029E000069398F80030002B00F0B680B8F8063057
:1029F000059A934240F0B08098F80130002B40F0E7
:102A0000AB80614B93F8494014F0010440F0A4807E
:102A1000019BF51B9D4228BF1D46B5F5804F28BF81
:102A20004FF480450DF5187A55BB002C3FD0224657
:102A3000029898A9FFF72EF8019B1B1B0193029B9C
:102A400023440293039B5B0704D10120019A4F4961
:102A5000FFF7CAFC039B01330393019B002BC0DCEF
:102A60002AE0C5F8D040FEF713FEC721C7F8D040D2
:102A700008A8FEF7BBFDC5F8D040FEF7D5FDA2E7DC
:102A8000C7F308030493002B4FD1B8F80A20013A8A
:102A900012EA57221DD1A7B14046009907924CF087
:102AA00039FB079A0090009B012B0DD80224224687
:102AB00001203749FFF798FC36490120FFF794FCC5
:102AC0005DE6CDF800B0EEE7009B013301D10124B3
:102AD000EDE7009BA3F1020CD8F80C30023B9C45BB
:102AE000E4D2B8F80A00D8F8201000FB0C11002935
:102AF000DCD0B5F5007F114416D302EB552C84458C
:102B00004FEA552388BF831A0A4698F801005146B8
:102B10000493FFF72FFA0028D9D1049B5B02ED1A2A
:102B20001C449A441F447FE78946049B4946C3F5E9
:102B30000073AB4228BF2B4640460793FFF758FA75
:102B40000028C4D1079B04991A46069B5046194495
:102B500078F054F9079BE2E70924A8E726B70708AD
:102B60003DB7070806B8070869B7070884B707081C
:102B700000000A50000000B000D0035000E00350F5
:102B8000A8B7070804000040B48D0020DEB707088E
:102B9000C1B70708F4B707080148FFF7CBBC00BF6F
:102BA00047B807080148FFF7C5BC00BF5BB8070876
:102BB000044BD3F88420D206FBD4D3F88400C0F3AE
:102BC000811070470040005010B54FF48032164B12
:102BD0009A66A3F580531B6F1A0B12F00E0FC3F306
:102BE000033306D0072B04D00F2B02D0032B00D0C9
:102BF000FEE741F6713203FB00000C4BDC69DA633F
:102C00005A6804F4803422F4401259B908498842C1
:102C100094BF00200120000502435A600CB100223D
:102C2000DA6310BD0349F2E7009000500000035042
:102C3000005A6202002D31010029CCBF0121002180
:102C4000C2E700210048BFE700B4C40408B5022071
:102C50004BF094FDFFF7F5FFFEF7D2F94FF4803209
:102C6000014B1A6708BD00BF009000502DE9F041EC
:102C700098461C4B064633F810300C46CB40DB0719
:102C8000174600D4FEE722B1B8F1000F20D0FDF7BF
:102C9000E1FF0F21072C06EB460588BFA4F10803CE
:102CA0004FEA0515104895BFA3009B0004350C356D
:102CB00007FA03F299402844FDF78DFF7FB92146BA
:102CC0003046B8F1000F06D0BDE8F041FDF7C2BFB5
:102CD000FDF7AEFFDDE7BDE8F041FDF7A9BFBDE8B8
:102CE000F08100BF68C8070830C00350F8B526203F
:102CF0004BF0BEFD28204BF0BBFD0222404B0124CF
:102D00005A6003264FF480721E66C3F880601C630D
:102D10005A66C3F88420FF22DA6110229A66C3F84B
:102D20008820DC600023374D194605222046FFF736
:102D30009DFF0023052221462046C5F80447FFF7E2
:102D400095FF4FF001138022C5F80067C5F80837DA
:102D50002D4B00205A6043F25E022C4E2C4FDFF8C0
:102D6000C4C01C632B49DA61DC602B4AA3F58033B5
:102D7000B7610CF2DC45C3F85001C3F84C01516750
:102D80001567D16E254DF7610D40C3F880010CF237
:102D9000DD41C3F87C01C2F880102048D16F06F5F0
:102DA000A03608401E499036014302F17C00C2F86B
:102DB000846020F0030646F0020640F00200D1676E
:102DC000C2F88860C3F89001154802F16C012843ED
:102DD000D06621F0030040F002009067602241F0CD
:102DE0000201C3F8601103F500510C654A6320210C
:102DF00099644021996403F580535A62F8BD00BF7D
:102E00000080055000C003500000055000400450F1
:102E100003000C0070800550008F00200C80F00033
:102E2000F03F0031000000B00346054A0549D06C70
:102E300003448B428CBF4FF0FF30D364704700BF18
:102E4000B48D0020000004204FF0FF307047FEE7F3
:102E50000020704701207047012070474FF0FF307D
:102E60007047002070470020704700207047094BD2
:102E70001B6F03F00703022B04D0032B05D0012B9B
:102E800006D0FEE7044B18687047034B586870473C
:102E90000248704700800050B48D0020002D3101A1
:102EA00008B5FFF7E4FF044B1B6FC3F30333013393
:102EB000B0FBF3F008BD00BF008000501FB5002339
:102EC0008028019300F0B48065D85E2876D85E280B
:102ED00000F2C881DFE810F0B300C601C601C601E8
:102EE000C601C601C601C601C601C601C601C601AA
:102EF000C601C601C601C601C601C601C601C6019A
:102F0000C601C601C601C601C601C601C601C60189
:102F1000C601C601C601C601B300C100B300C100AD
:102F2000EC00EC00EC00EC00EC00C1000F01C8006C
:102F300034013901C800C100C100C100C601C60189
:102F4000C601C601C601C601C601C601C100C10055
:102F5000C100BF016F01C100C601C601C601C601A3
:102F6000C601C601C601C601C601C601C601C60129
:102F7000C601EC00B300B300B3004F01C800C800A5
:102F80007B01B201F1000A01C601C601C601C601FA
:102F9000C6019101B300B0F5B06F00F0AC801DD850
:102FA000B0F5207F59D00AD8B0F5C07F47D0B0F532
:102FB000007F47D0B0F5807F00F0B180FEE7B0F52C
:102FC000607F5CD003D8B0F5407F4DD0F6E7B0F518
:102FD000806F6DD0B0F5A06F6FD0EFE7B0F5106FD8
:102FE00000F0C98012D8B0F5E06F00F0E48008D896
:102FF000B0F5C06F00F0A480B0F5D06F00F0A580F0
:10300000DCE7B0F5F06F00F02681D7E7B0F5406F50
:103010006CD008D8B0F5206F00F0D980B0F5286FDB
:1030200000F00C81CAE7B0F5486F00F0E680C5E714
:10303000FFF71DFF0190019805B05DF804FBFFF755
:103040002FFFF7E7FFF713FF874BD3F89030C3F359
:1030500004630133B0FBF3F0ECE7FFF721FF824B91
:103060001B6FC3F38023F4E7FFF71AFF7E4B1B6F40
:10307000C3F380230133B0FBF3F04008DAE77A4969
:10308000D1F8803003F00303022B0AD0032B0BD0BE
:10309000012B0CD1FFF7EBFED1F88030C3F3011305
:1030A000D7E7FDF7EAFDF7E7704B1868F4E7FEE7AE
:1030B000002101A8FDF756FEBDE7002303936A4BEC
:1030C000D3F8203203F00703042B04D8DFE803F021
:1030D0000804B00A0A00FEE7002103A8FDF710FE6D
:1030E000039B26E04FF400430393F9E7002101A876
:1030F000FDF706FE9FE703935B4BD3F8803103F0A7
:103100000303022B00F09880032B00F09180012B29
:1031100004D1002103A8FDF725FEE1E7FEE70293B5
:103120004FF0E0231B695B0705D5FFF7B9FE02905E
:10313000029B01937FE703A902A8FDF759FDF7E77A
:10314000002101A8FDF754FD75E7474BD3F80002B5
:1031500000F0070004280DD801A353F820F000BFA9
:1031600035300008B1310008B1310008A331000842
:10317000A9310008FEE73C4BD3F8080200F0070035
:1031800004280DD801A353F820F000BF3530000803
:10319000B1310008B1310008A3310008A93100089D
:1031A000FEE74FF47A7045E7FFF77AFE800A41E7C1
:1031B0004FF400403EE72C4BD3F8403203F00303BA
:1031C000032B4CD0003B18BF0123DB03B1E70023E6
:1031D0000393254BD3F8603203F00703013B032B25
:1031E0000AD801A252F823F0133100082732000850
:1031F0003932000831320008FEE7002303931A4BEE
:10320000D3F8943203F00703013B032B0AD801A241
:1032100052F823F013310008273200083932000831
:1032200031320008FEE7002103A8FDF7E1FC57E773
:10323000FDF723FD039053E70D4B55E700210A4BA3
:103240000391D3F8703203F00303012BECD0022B6F
:103250003FF446AFFEE7044BD3F86031AEE74FF4DE
:103260007A7366E7AAE600BF00800050B48D0020A4
:10327000002D310108B58020FFF720FE034B984256
:103280009EBF4FF48032024B1A6708BD005A62029B
:1032900000A0005008B54FF4C070FFF70FFE0649BC
:1032A000064A884294BF00200120136F23F48063F4
:1032B00043EA8023136708BD80F0FA0200800050C3
:1032C00010B5FFF7EDFD0446FFF772FCC0F10201F7
:1032D0002046FFF7B1FCFFF7CAFD02204BF04EFA83
:1032E000FFF7D8FFBDE81040C4E72DE9F0474FF4E1
:1032F000C022012104469F4B5A6603F598335A6851
:103300009D4A51605E6816F00206FBD121689B4B16
:10331000994200D8FEE79A4DA94200D9FEE7A3885A
:10332000B3F5967F00D8FEE7B3F5805F00D3FEE7E4
:10333000E388B3F5805F00D3FEE7FFF739FC01288F
:1033400003D1904B994200D9FEE700238E4A1068C2
:10335000814202D35068814205D90133192B02F111
:103360001002F4D10023894A02EB0313D3F89074BE
:10337000D3F89434002B36D0854A934262D01CD8BF
:10338000844A934254D011D8834A93424AD009D8F0
:10339000824A934222D0824A93421FD0814A93426A
:1033A0001CD0FEE7804A93423FD0FAE77F4A93421F
:1033B00041D07F4A934241D0F3E77E4A93424DD0B9
:1033C00006D87D4A934241D07C4A934242D0E8E7F6
:1033D0007B4A934246D0AB4248D0E2E7794B9B6DA3
:1033E00003F07F031F434BF0B5F905287ED14FF45E
:1033F000803ADFF88091DFF8E081FFF722FCFDF7EB
:10340000FFFDC9F870A0D8F870301D0B15F00E053F
:10341000C3F303332ED0072B67D00F2B68D0032BB9
:1034200068D0FEE7674B5B6EDAE7664B1B6FD7E74A
:10343000644B5B6FD4E7634B9B6FD1E7614BD3F871
:103440008030CDE75F4BD3F88430C9E75D4BD3F8CC
:103450008830C5E75B4BD3F88C30C1E7594BD3F8C4
:103460009030BDE7574BD3F89430B9E7554BD3F8BC
:103470009830B5E75E1C4BBBFFF7E3FBFDF7C0FDE3
:10348000C9F870A0D8F8703023F4704343F4805327
:10349000C8F87030FFF704FD0546FFF789FBC0F15F
:1034A00002012846FFF7C8FB0125FFF7F3FEFFF7EF
:1034B000E1FE454BDA6812F0060FFBD19A689F6077
:1034C0009B687B4013F4F81F16D0FEE7022EF0D164
:1034D000FFF7B7FBFDF794FDC9F870A0D8F870307E
:1034E00023F4704343F44053D2E708260025E0E775
:1034F0001026FBE70426F9E7A288E38843EA0243A3
:10350000324AD360A368032B68D1A2F5A032D2F867
:10351000003123F0030343F00103C2F80031072117
:10352000237D627D9B0043EA821322691343227B41
:1035300043EA4203254A9360D4F80080244BC3F841
:1035400000800D4B19610121A3F580535960176963
:1035500017F00707FBD04BF0FDF8052840F08580F9
:10356000002D6AD0751E012D4AD91A4BF340DA0797
:1035700046D4FEE70090005000E001509FBB0D00D4
:1035800000B4C404005A6202F0CC070868C80708F7
:103590000048E8010024F400C0CF6A0080841E00C7
:1035A00000093D0040420F00405DC600C0EA210115
:1035B00080BA8C01007E560380D54302006CDC0289
:1035C0000090D0030080E00F0000015000C00150C7
:1035D000B48D00201001010000800050092B07D19C
:1035E000244AD2F8003123F0030343F0020394E7A6
:1035F000082B94D11F4AD2F8003143F003038CE723
:10360000FFF71FFB4FF48031FDF7FAFC1A4B194A04
:103610001967136F23F4704343EA05331367FFF709
:103620003FFC0546FFF7C4FAC0F102012846FFF748
:1036300003FBFFF72FFEFFF71DFEFFF731FC2368AA
:103640000546834200D2FEE7804500D2FEE798455A
:1036500000D0FEE7FFF7ACFAC0F102012846FFF701
:10366000EBFAFFF717FEFFF705FE7B1E58425841A5
:10367000BDE8F08700800050009000502DE9F04F29
:10368000ABB06FF004035021AE48AF4C13F0800F85
:1036900003F1010240F0D08523444C2A83F8001343
:1036A0001346F3D14FF00042A84B07215A664AF661
:1036B000CD3203F50B23586C1A64A54A00F00100C3
:1036C000D1635A6B12F00B02FBD159684FF00044E2
:1036D00021F4F87141F48071596040F20911996048
:1036E00040F20311196199494C664AF6CD34596C80
:1036F0001C64984C984B01F00101256B2D0740F19B
:10370000A6859A4240F0A085924B002940F0B385EF
:1037100008B1924A1A644FF00042914B586E03F57B
:1037200080535A664AF6CD3203F50B23596C1A645E
:1037300001F001015D6B15F08005FBD11A6A22F0E2
:103740000F0242F006021A6209B1844A1A64002884
:10375000A2BF4FF00042834B5A66834BD3F84C21F3
:10376000170340F18C854FF6FF72A3F5FE431B88CB
:10377000934240F091858C247C4B7D4A5360784B7A
:103780001B6F03F00703032B01D1FFF789FB4AF0FE
:10379000E1FF032851D04FF480126C4B4FF0A06131
:1037A0005A6645F60E03734AC2F88030724B99622E
:1037B0004FF4803103F580539962936DDE03FCD49E
:1037C000936D5800FCD404F12801FF29A8BFFF2104
:1037D0006A4B240213619369A4B203F0004343EAE5
:1037E0000143234343F0407343F03C039361136A66
:1037F00023F00F031362916A614B0B4043F4803353
:10380000936260495B4A936D31EA0303FBD14FF049
:10381000807159488162136923F4700343F44013A3
:1038200013614FF000434FF480328361564B99622D
:103830009A62504A936D5900FCD4544E0FAC0FCE8F
:103840000FC496E8030084E803004AF083FF0528CC
:103850000FAE40F02485424CFFF7F8F9236F23F0B8
:10386000070343F001032367FFF72AFD31204AF0E5
:10387000FFFF3046FFF739FDFFF7E8F9236F23F02C
:10388000070343F002032367FFF71AFD344CFFF7E9
:10389000DDF9236F374623F0070343F00203236764
:1038A000FFF70EFDD4F82031DFF8E4C023F0070362
:1038B00043F00103C4F82031D4F8283123F0070382
:1038C00043F00103C4F82831D4F8403123F0030356
:1038D00043F00103C4F84031D4F8603123F003030E
:1038E00043F00103C4F86031D4F8403223F00303FD
:1038F00043F00103C4F84032D4F8003223F0070348
:1039000043F00103C4F80032D4F8083223F007036F
:1039100043F00103C4F808320D4B5A6F42F0010224
:103920005A67DA6E22F03002DA66BCE80F000FC781
:103930009CE8030087E803004AF00CFF052840F0EC
:10394000B68427E000ED00E000E100E000900050C8
:10395000004000500040095040420F003254FFFF29
:103960000080005000A000500080E00FC0175302FC
:10397000B48D00200040005A0050005A2008C00BAF
:10398000C7FFFEFE030001000060005A80CE07085A
:1039900098CE0708FFF75AF9236F23F0070343F087
:1039A00001032367FFF78CFC31204AF061FF3046AA
:1039B000FFF79BFCFFF74AF9236F23F0070343F05F
:1039C00002032367FFF77CFCD04AD14C136F23F42A
:1039D0008063136754F8040B01354AF049FF0C2D3E
:1039E000F8D14FF4E012CB4B01245A604FF0FF3274
:1039F000C9491C63DA61DC6003F5804359601C63CC
:103A0000DA61DC60A3F58823C3F880421A6F0021D5
:103A100022F480321A674FF030404FF4A04277F022
:103A200079F92022BD4B0220C3F8D020042223467E
:103A30001146FFF71BF92346042205210220FFF758
:103A400015F96922B649304677F0D8F923460422A1
:103A500007210220FFF70AF923460422072100204C
:103A6000FFF704F90522234611462046FFF7FEF82A
:103A70002346062100200522FFF7F8F83024002114
:103A8000A84804FB01F303F1A04303F570331A6B5C
:103A9000013122F07012024304291A63F1D180240B
:103AA0009E4D32202C64C5F8A040FDF708FD322061
:103AB000FDF705FD3220FDF702FD4FF0010840F64D
:103AC0000A42994B994FC3F804805A61984A30468C
:103AD0009A600522DA6014225A610022DA61954B5D
:103AE000C7F838374FF4C023C7F834371823C7F85E
:103AF0002037FDF7F1FCC5F8A0404FF416354046DD
:103B0000FDF7DDFC8C4B1C640020FCF731FB013D14
:103B1000FAD18024894F05ABD7F8E516D7F8E1062E
:103B200097F8E92603C30DF1140B1A705846FDF7F8
:103B3000D3FC7A4B0120C3F8A040FDF7C0FC7E4ABD
:103B4000DFF8449214640120FDF7B9FC29464CF2D9
:103B50001022484677F0DEF84FF00803FB210124DD
:103B60004FF0040A07F2EA62C9F8002009F5404262
:103B7000A2F8081282F80C32714A724B82F8645033
:103B8000694A7149714883F84A40C2F814A0A2F505
:103B9000E032546048614FF48031C2F81C116C4926
:103BA000DFF88881C2F82C111021C2F83051C2F818
:103BB000205102F58052516591636021654A82F877
:103BC00015134FF4001111604FF43E42294609F2DB
:103BD000044077F09FF828465F49FEF705FCDFF8C0
:103BE000349120465D4A5E49FEF7FEFB5D4A204661
:103BF0005D49FEF7F9FBD9F82430214628460193A8
:103C0000FEF772FA21462846FEF76EFA0A21019B5A
:103C1000D9F824202046D21AB2FBF1F25349FEF71C
:103C2000E3FB76F0F6FC524902462046FEF7DCFB49
:103C3000504A204622F4FF5222F01F024E49FEF75E
:103C4000D3FB4E492046FEF7CFFB4FF4FA70FDF749
:103C500036FC2022314B0320C3F8D0200522234616
:103C60001146FFF703F82346052208212846FEF7F0
:103C7000FDFF2346022209212846FEF7F7FF5146A1
:103C8000234605222046FEF7F1FF234605220221A6
:103C90000320FEF7EBFF5146234602220320FEF7E6
:103CA000E5FF0321234605220846FEF7DFFF4FF418
:103CB0000023C8F8AC344FF41023C8F8A434304BB8
:103CC000304AC8F8A8341C23C8F89434C8F8CC2467
:103CD00002F50032C8F8C4244FF0031207F2F4676B
:103CE000C8F8C824C8F8B43497E80F00A8465F465F
:103CF0008BE80F00DFF89490DFF894A057F8044B9E
:103D00006368002B40F0DB8244E000BF008000507D
:103D1000B0CE0708008004500000FC0F00D0035014
:103D2000E0CE07081000700000C0055000C003502E
:103D3000010400800100050000E0035068C8070886
:103D4000008F0020B48D00200040045002000400C9
:103D500044C0055000E100E072B8070898B80708B1
:103D6000A4B80708B2B80708BBB80708C9B807085D
:103D7000E3B807089FB20900FAB807080EB90708A8
:103D800001000400030002003490002000000F181E
:103D9000010000280223C4F83080C4F80C90C4F855
:103DA00010A0636140F20143A36001236360636D6F
:103DB00013F0280FFBD14FF485730A20A363FDF79E
:103DC0007EFB636D002BFCD10135042D96D11023B1
:103DD000C94AD16B013B04910499FAD14FF4807325
:103DE00010249363C54BDA6B013C0492049AFAD118
:103DF0004FF480729A630123C14DB4466B600F2368
:103E00004FF0300A2746DFF85CE3DFF85C83DFF829
:103E10005C93AB629EE80F0086E80F005CF8042B11
:103E200008EB84035A600AFB0453A21E012A1F6692
:103E3000DF6500F24A82B34A022C5A66B24ADA6659
:103E40001F6700F05782B14BAB4AC5F8F830072323
:103E5000AA4D20246B6353630822AD4BDFF8D88250
:103E60009A676420C3F88420AA4EFDF728FB02A8B5
:103E70005021C8F8D040FDF7B9FB1121C6F8D04059
:103E8000C8F8D040FDF7B2FB0021FDF7AFFBC6F844
:103E9000D040FDF7C9FB6420FDF711FB6F606A6835
:103EA00012F00202FBD101239B4929616B60924B06
:103EB0005A605C6814F00204FBD1012219615A6057
:103EC000FDF70CFDFDF7AEFCFDF708FD021EBCBFC3
:103ED00002F57F2202F6FF72012090491215FEF7CB
:103EE00083FA8F4B01201D465A688E49FEF77CFAF3
:103EF00040F292436A682025B2FBF3F201201203DC
:103F00008949FEF771FA834B0120C3F8D0508749E5
:103F1000FEF76AFA01208649FEF766FA8549012014
:103F2000FEF762FAC820FDF7CAFA834B0121C3F8F5
:103F3000D0507148FDF736FE012305211A460020B6
:103F4000FEF794FE0123042205210320FEF78EFED6
:103F50000422012311460020FEF788FE00230621DB
:103F60001A460220FEF782FE002303211A46184655
:103F7000FEF77CFE002308211A460220FEF776FE9B
:103F800000235D466D4E1A4609210220FEF76EFEA3
:103F90000FCE0FC50FCE0FC596E803004E2285E861
:103FA000030000210DF13E0076F0B4FE01232A202B
:103FB0008DF83C308DF841308DF846308DF84B301F
:103FC0008DF850308DF855308DF85A308DF85F30BF
:103FD0008DF864308DF869308DF86E308DF873305F
:103FE0008DF878308DF87D308DF882308DF88730FF
:103FF0004AF03EFC524A2A20D2F88031514E23F03A
:10400000030343F00203C2F88031FEF757FF4E4B23
:10401000C5189D4285BF0133B5FBF3F5002505F1B9
:10402000FF35032D494828BF0325FEF783FA0323F4
:104030008DF8173040F6E443089305232A208DF8C5
:104040001530FEF73BFF6B1CB0FBF3F0404B00F567
:10405000F42000F21F10984286BF0133B0FBF3F04A
:10406000002040F2FF3388BF00F1FF30984294BF38
:104070000790079301238DF840308DF845308DF877
:104080004A308DF84F30A8238DF83D30A9238DF8A4
:10409000423083238DF84730A6232A208DF84C30F8
:1040A000FEF70CFF2B4B2C4A0344934224BFB3FB77
:1040B000F2F303F1FF347369DF01FCD40122274BD3
:1040C0005A60776817F00207FBD12A20FEF7F6FE48
:1040D000032C28BF0324EDB2E4B2AC4238BF2C4617
:1040E0001D4DA842C0F00B81B0FBF4F01C4B00F555
:1040F000742000F23F203BE000000A500000015B0A
:104100000000045020008037100000B03C000A502E
:104110000080035000D00350010000012FB90708B0
:10412000B48D002046B9070852B907083CC20708F9
:104130005EB9070876B9070800E003507CCF07088E
:104140000080005000400059FF2C310191B9070850
:104150001FA10700FF596202005A62020060005965
:1041600040420F006CCF0708004004503C00015B48
:10417000B0FBF3F001387F2828BF7F206A4B22076D
:1041800042EA00429A6000225D46DFF8CC91DFF8F7
:10419000CCA1DFF8CC811A611A62AB682A202E7894
:1041A0000193FEF78BFE002E0CBFCB46D346631C5B
:1041B000B0FBF3F00BF1FF331844B0FBFBFC39010B
:1041C00001F1B24202F580428345906C06F0030390
:1041D00000EA080040EA03006B7895F803E04FEA34
:1041E000830303F01C0340EA0300AB7898BF0CF193
:1041F000FF3C1B0303F4E04303434FEA0E4000F48B
:10420000E0200343287C400500F460000343287944
:10421000000700F0405003439364936C434AC3F398
:104220000233013B042B00F2D881DFE813F09D003C
:104230009D00C101CD01D20103F00F03043B0344F3
:1042400019761346FFF722BA0132FFF756BA9A429F
:104250003FF45AAA2022364B9A620122A3F58053DA
:104260005A60344B344A946AA4063FF54DAA013B88
:10427000F9D1FFF749BA314A1A64FFF749BAD3F8BE
:10428000504114F0FF047FF477AA4FF6FF722C4BD5
:104290001B8893423FF470AA1C46FFF76DBA312089
:1042A0004AF0E6FA3046FFF720F8FFF7EFBA312080
:1042B0004AF0DEFA3046FFF718F8FFF785BBC4F87E
:1042C000048063689B07FCD464E51E4A012C5A668F
:1042D00006D01D4B0124EB662F67C5F8689099E561
:1042E0001A4B0224C5F89C30194BC5F8A070C5F8CC
:1042F00098308FE5174B0324C5F8C8308AE50028AD
:104300007FF4F4AE2A20FEF7D9FD48B1A8427FF62B
:10431000EDAEB368C3F302730133B0FBF3F0E5E62F
:104320000120E3E61F4638E7004000590080E00F17
:104330000060095041420F00004009503254FFFF15
:104340000001E00F80008317100000B0120000B0E1
:104350003C000A503C00015B80969800404B4C00AA
:10436000E08F18CF00000000D2F88031002E40F01E
:104370002F815FED047A9BB2180401F1B24000F581
:104380008040866C4FF00100C6F3820606F1010BF7
:1043900000FA0BF006EE100A23F4C0424FEA824204
:1043A000B8EEC66AF6EE006AB34848BF42F0004273
:1043B000002E40F02481D0F88C0100B207EE100AE4
:1043C000B8EEC77A77EE877ABEF1000F40F02C8105
:1043D0004FF480369FEDA97AA948466600F5E6209D
:1043E0008069DFEDA85A67EE277A85EE867A9FED21
:1043F000A66A27EE067AB1EE006AB2F1004F07EE28
:10440000867A0BD09FEDA16A07EE903A77EE065AB6
:10441000FAEEE87AB0EE467A17EEA57AB5EEC07AF3
:10442000F1EE10FACBBFB1EE477A76EEC76A37EEFF
:10443000667AFDEEE67AC8BFFDEEC77A17EE903ACF
:10444000B3F5003FC0F2FD806FEA52426FEA42428C
:1044500001F1B24101F580410A6540F2FF32944515
:1044600028BF9446BDF804301435634538BF634611
:10447000C3F309034B650123002F3FF453AF844A74
:104480005360844B5A69D101FCD40121824A5160A6
:10449000586810F00200FBD14FF49872C3F88020E6
:1044A000DA6A7C4D22F0170242F01002DA620FAB9A
:1044B000194602461C4602F1280631F8057B0132F6
:1044C000102A45F82670F6D10121714A5160002268
:1044D0001D7915B101FA02F528430132102A03F1C2
:1044E0000503F5D16B4E6D4BB061D3F828136C4DBD
:1044F00041F48071C3F82813D3F8201305F18C0719
:1045000041F08071C3F82013D3F82813384641F4E2
:104510008071C3F82813D3F8281341F08071C3F8D1
:104520002813002176F0F6FB5E4A5F4B5F49C5E930
:10453000232305F15003C5F8943095F898305C4872
:1045400023F0030343F0030385F8983080234FF4EE
:1045500020250B6505620025564AC2F8B051C2F805
:10456000AC51C2F8C071EFF31187302080F311888D
:10457000506D1843506550488D6185614B6393645D
:1045800087F3118808232046F360FDF7A1FABDF8F0
:104590003C40012022464949FDF726FF2146484874
:1045A000FDF7C8FF43F25003A34353D1FEF72AF8A7
:1045B000D2F8803166B9D2F88C211B0C121407EEA8
:1045C000902AF8EEE77AD7E6D2F884319BB256B15A
:1045D000FEE7D2F884315EB1FAE7D2F88031002EDE
:1045E0003FF4C7AEF4E7D2F88C2112145200E6E78C
:1045F000D2F88C211B0C121402EB4202DFE7D0F838
:10460000906166EE265A36B207EE106AB8EEC77AA7
:1046100077EE677AD0F8880187EEA57A00B207EEC8
:10462000900AF8EEE77ACDE695ED037A9FED255AEC
:10463000B8EE477AC7EE055AB7EE045A85EE257AEA
:10464000CFE613F5003FAABFC3F3110342F40032D3
:104650001A43FDE62B46042203210220FEF706FB47
:1046600001211948FDF79EFA75F0D6FF2BB0BDE881
:10467000F04F60F08DBB00BF0080E00F3D3B843FFA
:1046800000900050000080430000204400000049DA
:1046900000500059004000590060005900C003500C
:1046A000008F00203000000B84400059002004508F
:1046B000004004500000045000100450A6B9070840
:1046C000B8B9070800007A4400000A502DE9F84FF5
:1046D0008046A9B3DFF8CCB00F46DBF8003013F00A
:1046E000030630D18A0754D0DFF8BC90DFF8B0A0C1
:1046F0002A4C00BFBD1BB5F5847F28BF4FF48475DD
:10470000EA1C5146184622F00302FCF7D5FF00BF11
:10471000636B03F00303032BFAD1DBF8001008EB03
:10472000060001F0030110312A46494476F066FB89
:10473000DBF800302E442B44B742CBF80030D9D8F8
:104740004046BDE8F88F0422154923F00300FCF72A
:10475000B3FFDBF80010114A01F00301C1F10406B8
:10476000BE4228BF3E4600BF536B03F00303032B3A
:10477000FAD1DFF83490103132464046494476F0A1
:104780003DFBDBF80030BE423344CBF80030ADD304
:10479000D6E7BDE8F84FFDF701B800BF00000450B0
:1047A000100000B0008F0020000000B02DE9F84F8D
:1047B000DFF8D8B021F040438046CBF800308AB310
:1047C00011F00306174630D1BA0756D0DFF8C09073
:1047D000DFF8B4A02B4C00BFBD1BB5F5847F28BF0C
:1047E0004FF48475EA1C5146184622F00302FCF788
:1047F00063FF00BF636B03F00303032BFAD1DBF805
:10480000001008EB060001F0030110312A4649446C
:1048100076F0F4FADBF800302E442B44B742CBF8A4
:104820000030D9D84046BDE8F88F21F0404004223E
:10483000154920F00300FCF73FFFDBF80010114A98
:1048400001F00301C1F10406BE4228BF3E4600BF8D
:10485000536B03F00303032BFAD1DFF834901031CC
:1048600032464046494476F0C9FADBF80030B74298
:104870003344CBF80030ABD8D4E73946BDE8F84F25
:10488000FCF78CBF00000450100000B0008F002027
:10489000000000B07FB5334B1C6894F87E35980754
:1048A0005ED5D4F8AC0575F086FFD4F8B00575F088
:1048B00082FF002294F87E35C4F8B02562F34103EC
:1048C00084F87E35012384F81C3594F87E35C4F8CD
:1048D0008425590744D562F3820384F87E35224B40
:1048E000D4F8902504F2945494ED007AD3ED107A24
:1048F00077EEC77AF5EE407AD3F89C50F1EE10FAD5
:10490000A5EB020505F1FF3507EE105A08BFF7EEDB
:10491000007AF8EEC76A86EEA77ADFED146A27EE12
:10492000267ABDEEC77A4FF47A7317EE104A67EE17
:10493000A67A94FBF3F6FDEEE77A03FB164417EE36
:10494000902A334629460A480094CDED037AFCF7B5
:104950006BFC33462946039A05480094FDF7EAFDAF
:1049600004B070BD6CB60808008F002000007A44C7
:10497000CBB907082DE9FF41474B1C6894F87E35F9
:104980009A0702D4454D464E7CE094F89825042AB7
:1049900021D15B0712D54349D4F88C35D1F89C203E
:1049A000934251D0D4F89035C4F88C2501339A4203
:1049B00011D10A6C04F294531A600CE004F594626D
:1049C00004F5936392ED007AD3ED007AB4EEE77AC2
:1049D000F1EE10FA38D904F21C48D8F8002004F59A
:1049E000856304F584671A603A6804F22C4304F284
:1049F00024461A60326804F586631A60D4F8841578
:104A0000D4F8803510221944244D6846FFF7CEFEB5
:104A1000009AEB8842F30E0262F30E03EB80D4F8A7
:104A2000803501991033C4F88035C8F80010029918
:104A3000D4F888053960039931609918814205D30B
:104A4000C4F88015FFF726FF002022E0D4F8841573
:104A500028681944FFF7AAFEEA88D4F8803542F3A3
:104A60000E0213440120C4F8803512E0EB88C3F332
:104A70000E03012B0DD12B681B78012B09D1304679
:104A8000FCF7D2FBD4F89C0552F074F8431E012BBE
:104A9000ECD904B0BDE8F0816CB60808A03703205B
:104AA000F2B90708008F0020C3886FF30E03C3809C
:104AB0007047024BD3F8A000704700BF008F002062
:104AC00070470FB404B07047054BD3F8A030834251
:104AD000C3BF044B03EB8003D3F8DC0C02487047E0
:104AE000008F0020000000B03CC2070810B504464B
:104AF0000120FFF7E9FF037823B94FF0FF30227858
:104B0000637807E075F00CFF2278824213D0637857
:104B1000834210D00AB9207007E00BB9607004E03E
:104B20000548BDE81040FCF77FBBA378DA075CBFFF
:104B300043F00303A37010BD12BA07080048D5E77D
:104B4000A48F00200048D1E7A88F00200048CDE7BF
:104B5000AC8F00200048C9E7B08F00200048C5E7AF
:104B6000B48F00200048C1E7B88F00200048BDE79F
:104B7000BC8F00200048B9E7C08F00200048B5E78F
:104B8000C48F00200048B1E7C88F00200048ADE77F
:104B9000CC8F00200048A9E7D08F00200048A5E76F
:104BA000D48F00200048A1E7D88F002000489DE75F
:104BB000DC8F0020004899E7E08F0020004895E74F
:104BC000E48F002010B504460120FFF77DFF037835
:104BD00033B175F0A5FE23786278834207D102E0F5
:104BE000238004230FE0002323702AB10CE08242CB
:104BF0000AD1002262703BB9A378DA0704D523F00A
:104C0000010343F00403A37010BD0148DAE700BFBD
:104C1000A48F002010B5084C04F1A800FFF7D2FFC4
:104C200094F8AA30DB0706D4044B1B781BB1BDE80F
:104C3000104073F0E7B910BD008F0020BCFF0320C7
:104C40000048BFE7AC8F00200048BBE7B08F0020D2
:104C50000048B7E7B48F00200048B3E7B88F0020C2
:104C60000048AFE7BC8F00200048ABE7C08F0020B2
:104C70000048A7E7C48F00200048A3E7C88F0020A2
:104C800000489FE7CC8F002000489BE7D08F002092
:104C9000004897E7D48F0020004893E7D88F002082
:104CA00000488FE7DC8F002000488BE7E08F002072
:104CB000004887E7E48F002070B50124094E0A4DB3
:104CC000D6F8A0309C4208DA2046FFF7FDFE0146E8
:104CD0002846FCF7A9FA0134F2E70448BDE8704021
:104CE000FCF7A2BA008F002031BA07083BC20708C0
:104CF00008B50120FFF7E8FEBDE80840014601487D
:104D0000FDF718BC35BA0708154BD3F8A030022BB5
:104D100001D0144821E0144B1B78DB071CD510B5DB
:104D20008EB0124B1B6893F87E1511F0020404D06C
:104D30000F480EB0BDE810400FE05EF085FC01208A
:104D4000FFF7C2FE0146684676F050F821466846F5
:104D50005EF0E6FC0EB010BD0548FCF765BA00BF7A
:104D6000008F00204DBA0708A44B00B06CB60808AD
:104D700085BA070800B58FB0FF220D4B1B6883F87A
:104D8000552593F87E359B0703D5FFF783FD4AF041
:104D900009FD0120FFF798FE0146684676F026F8E7
:104DA00068464AF0ABFDFCF767FB0FB05DF804FB0B
:104DB0006CB60808F0B58BB04FF480324CF2A063AB
:104DC0004FF41021CDE90023A4480823FDF7B2FBDE
:104DD000A34B93F84920012A40F03D81A14A127863
:104DE000D20701D4A04830E0A04A1268D2F890441B
:104DF0000CB19F4829E09F4D6879012801D09E4859
:104E000023E0D3F8A030022B01D09C481DE0FFF72F
:104E10005BFE9B4975F0C7FF10B92E46942703E04F
:104E2000984812E0013494366B79A34212DD07FBF7
:104E300004531B7ADB07F5D5F06869F091FFB5EEF6
:104E4000C00AF1EE10FAEDD88F480BB0BDE8F04083
:104E5000FCF7EAB9082501200795FFF735FE8B49D5
:104E600007AA013060F0FEF8079B072B01D988489C
:104E7000EFE0FCF733FDA0F510240798013004EBB8
:104E8000004049F0B7FC0798042204EB004000F50D
:104E9000813080495C30FCF777FD0798042204EBF1
:104EA000004000F5DF307C4900F5D670FCF76CFD62
:104EB0004FF020332A46794908A80893CDF82330CB
:104EC00075F05EFF002307982A4604EB004000F5CA
:104ED000803008A90C308DF82730FCF755FD079875
:104EE000042204EB004000F581306D496030FCF78E
:104EF0004BFD0798202204EB004000F58130674904
:104F00007030FCF741FD0798042204EB004000F5E7
:104F1000813064496430FCF737FD0798042204EBC4
:104F2000004000F5813060496830FCF72DFD07989E
:104F3000042204EB004000F581305C496C30FCF742
:104F400023FD74F0C4FB069074F0BBFB059007983A
:104F5000042204EB004000F5E33006A99830FCF78A
:104F600013FD0798042204EB004000F5E33005A987
:104F70009430FCF709FD0798042204EB004000F58B
:104F8000E3304B499030FCF7FFFC0798402204EBDC
:104F9000004000F5803047491430FCF7F5FC0798D5
:104FA000802204EB004000F5803043495430FCF788
:104FB000EBFC0798402204EB004000F580303F49AD
:104FC000D430FCF7E1FC07984BF61C5204EB004090
:104FD00000F581303A499030FCF7D6FC07984FF441
:104FE000DC6204EB004000F5DF30364900F5D87094
:104FF000FCF7CAFC07984FF4A47204EB004000F5DC
:105000008030314900F58A70FCF7BEFC0798042215
:1050100004EB004000F5E3302C499C30FCF7B4FC75
:10502000042207982A4B04EB004000F5803010441E
:1050300004A90493FCF7A8FC05230393079B04220F
:1050400004EB034000F58030083003A9FCF79CFC1A
:105050002048FCF7E9F80BB0F0BD00BFA6BA07087E
:10506000008F0020A44B00B0D1BA07086CB6080826
:10507000ECBA0708084B00B009BB070828BB0708B3
:1050800009B7070847BB07086CBB0708EBD8070838
:105090008FBB0708BC4E00B04C3D0320B04B00B0A6
:1050A000E88F0020A84B00B0C44E00B0C84E00B03E
:1050B000C03903203C4B00B0FC4D00B07C4E00B02A
:1050C000F8400320284400B0FC0C00B0D83C03207A
:1050D00078563412A8BB07082DE9F043A5B0DFF8D5
:1050E000588398F84900012840F06D81D8F8A03025
:1050F000022B05D0B54825B0BDE8F043FCF794B8C5
:10510000B34BB4491F68FF2387F855350823049330
:10511000FFF7DAFC04AA01305FF0A4FF049B072B21
:1051200001D9AD48A1E0FCF7D9FB04220499A0F510
:10513000102505EB014101F58031114403A8FFF76B
:1051400035FB0399A54A914201D0A5480EE0049988
:10515000042205EB014101F58031083102A8FFF777
:1051600025FB0299052904D005229E48FCF75CF82E
:1051700029E10499402205EB014101F58031143108
:1051800014A8FFF713FB0499202205EB014101F558
:105190008131703106A8FFF709FB0499042205EB61
:1051A000014101F58131643105A8FFF7FFFA8E4B0B
:1051B00004991C6D05EB014124F0030401F58131D4
:1051C00004226031A4F5517408F1E8001C65FFF772
:1051D000EDFA864906A875F0FFFD854E814620B19F
:1051E00098ED3A0AB8EEC00A28E0824AD8F8E830CA
:1051F00012789A421ED1337BCBB131464FF45172B3
:10520000204675F0FBFD98ED3A0A7B48B8EEC00ADF
:1052100062F0A9FA4AF010FB23784FF4517269F357
:10522000000321463046237075F0E8FD0BE007EEE1
:10523000902A01E007EE903AB8EEE70A6E4862F075
:1052400092FA4AF0F9FA002106A85EF069FA049988
:10525000042205EB014101F5E33168489C31FFF779
:10526000A5FA3378DA0703D46548FBF7DDFFAAE037
:10527000049923F0060305EB014101F5803143F069
:105280000603802254315F483370FFF78FFA049988
:10529000402205EB014101F58031D4315A48FFF736
:1052A00085FA0499042205EB014101F5DF3101F58E
:1052B000D6715648FFF77AFA0499042205EB0141AA
:1052C00001F581315C315248FFF770FAD6F81813B6
:1052D0005048FDF72FF904994BF61C5205EB01419C
:1052E00001F5813190314C48FFF760FA04990422AE
:1052F00005EB014101F5813168314848FFF756FA65
:105300000499042205EB014101F581316C314448D7
:10531000FFF74CFA012006F00DFC04220499414CE1
:1053200005EB014101F5E331E06094310DEB020042
:10533000FFF73CFA0499042205EB014101F5E33142
:1053400098316846FFF732FADDE9001074F0AEF9E3
:105350000499042205EB014101F5E3319031324813
:10536000FFF724FA04994FF4DC6205EB014101F5E3
:10537000DF3101F5D8712D48FFF718FA049B4FF47F
:10538000A47205EB034101F5803101F58A712848CB
:10539000FFF70CFA059B343414AD73600FCD0FC4C6
:1053A0000FCD0FC40FCD0FC495E80F0084E80F0098
:1053B00097F81C353BB11F484AF0A0FAFCF75CF89F
:1053C000002387F8983525B0BDE8F083AFBB070808
:1053D0006CB60808EBD807088FBB0708785634125C
:1053E000CEBB0708F1BB0708B48D0020B04B00B05E
:1053F000A44B00B0B6FF032011BC0708D83C032023
:1054000017BC0708FC4D00B07C4E00B04C3D03209B
:10541000BC4E00B02ABC0708F8400320C44E00B0C0
:10542000C84E00B0084B00B0C0390320284400B07B
:10543000FC0C00B0F1BF0708008F002020B1044B26
:10544000C31AC3F38F0300E0034643800380704711
:10545000F8400320428842B10388064921F82230EF
:105460002BB101EB83014A807047128000E05B8022
:10547000FFDE00BFF84003200C4A19B18B1AC3F3BA
:105480008F0300E00B4643800B88038053B1811AE1
:1054900002EB8303C1F38F015980438823B122F8C3
:1054A000231070475B8000E01B80FFDEF840032084
:1054B00010B540EA020414F003040CD10B0443EAD3
:1054C00001230B43921043EA0163A24209DD40F835
:1054D00024300134F9E70023934202DAC154013346
:1054E000FAE710BD2DE9F0412DED028B914B1D68BF
:1054F00095F89835042B40F019818F4E044696F8A4
:10550000D63096ED3B8AD80744BF8C4BD3ED007A5A
:1055100096F8DA3048BF28EE278AD9071ED4884B80
:1055200005F58767B3F90030864806EE903AF8EE45
:10553000E66AFBF766FC66EE886A97ED007A043847
:10554000A6EEC07AFBF75DFCA6EE807AB0EE470AC5
:1055500087ED007A50F088FE87ED000A96F8A630B5
:10556000DFF8148213F0010F05F2344717D072F000
:105570007AFDB8F90030744807EE103AB8EEC77AF1
:10558000FBF73FFC27EE087AD7ED006A0430E7EE20
:10559000406AFBF736FCE7EE006AC7ED006A6B482D
:1055A000FBF72FFC0430F0EE406AFBF72AFCB8F959
:1055B000003097ED007A07EE903AF8EEE77A67EE62
:1055C000887AF5EE406AA6EEE77AF1EE10FAA0EEE0
:1055D000277A87ED007A04D1B5EE400AF1EE10FA91
:1055E00001D072F040FD97ED007ADFED597AB4EE0C
:1055F000E77AF1EE10FA06DCDFED567AB4EEE77AE0
:10560000F1EE10FA01D5C7ED007A05F23C4595EDB3
:10561000007ADFED517AB4EEE77AF1EE10FA06DCAB
:10562000DFED4E7AB4EEE77AF1EE10FA01D5C5ED72
:10563000007A182200212046FFF73AFF96F8DA3068
:10564000474D13F0010F13D0B5F900303D4806EE79
:10565000903AFBF7D6FBF8EEE66A94ED047A04384C
:10566000A6EE807AFBF7CDFBA6EEC07A84ED047A35
:10567000B5F900303B4807EE103AFBF7C2FBB8EE35
:10568000C77AD4ED046A0438E7EE006AFBF7B9FB89
:10569000354BE7EE406AB3F90030203806EE103A99
:1056A000C4ED046AFBF7ADFBB8EEC66A94ED057A6B
:1056B0000430A6EE007AFBF7A4FBA6EE407A96F83B
:1056C000A63084ED057ADA071BD4284B0C30B3F9E9
:1056D000003005EE903AFBF794FBF8EEE55A94EDB6
:1056E000036A234BA5EE806AB3F90030043005EE5F
:1056F000903AFBF786FBF8EEE55AA5EEC06A84ED1A
:10570000036A96F8D630DB0710D51A4B94ED036A7E
:10571000D3ED007A26EE276A66EEA76A27EE277A8F
:1057200084ED036AC4ED046A84ED057ABDEC028B56
:10573000BDE8F0816CB60808008F002014530120EA
:1057400078FF0320B88F0020BC8F0020C48F00207A
:105750000000A04200008CC200004842000048C285
:105760007AFF0320D08F002080FF03207EFF0320DC
:105770007CFF03201853012076FF032010B540EA78
:105780000103134313F0030308D192109A420DDD75
:1057900051F8234040F823400133F7E700239342B8
:1057A00004DACC5CE4B2C4540133F8E710BD01392B
:1057B00011F8013F13B100F8013BF9E7037070479E
:1057C00075F029BB70B5044608460D46FFF7F8FF93
:1057D000E288236842F30E02134413F8013C461C8E
:1057E00033B131462046FCF7D7FE3246294606E063
:1057F00001462046FCF7D0FE324629460138BDE876
:105800007040FFF7BBBF38B504460D46FFF7D8FF21
:1058100029462044BDE83840FFF7C9BF431E01397F
:1058200013F8012F11F8010F904202D10028F7D18F
:1058300070474FF0FF30704702449042034601F139
:10584000FF3101D10020704710B51C7811F8010F0D
:10585000A04205D130B101339342F6D1002001E0DE
:105860004FF0FF3010BD70B504460244A2422578C7
:1058700011F8010B1AD0854214D0A5F16106192E3A
:10588000A0F1610302D9192B07D911E0192B0FD907
:10589000203DA8420CD10134E8E7A0F120039D424D
:1058A00006D1284601340028E0D103E0002001E0C1
:1058B0004FF0FF3070BD30B503782D2B08BF01309D
:1058C00003780CBF4FF0FF320122302B20D14378F8
:1058D00003F0DF03582B1DD10023023010F8011B09
:1058E000A1F13004092C03D801EB0313303BF5E799
:1058F000A1F16104052C03D801EB0313573BEDE73D
:10590000A1F14104052C13D801EB0313373BE5E764
:10591000272B02D000230A2404E0437808E004FB8C
:105920000313303B10F8011BA1F13005092DF6D906
:1059300002FB03F030BD08B50120FFF7C5F8FFF703
:10594000BAFF024BC3F8F00008BD00BF008F002073
:1059500030B503782D2B08BF013003780CBF4FF012
:10596000FF320122302B41D1437803F0DF03582B63
:105970003ED19FED3B0AB3EE007A9FED3A5AF2EE2C
:10598000046ADFED395A9FED396A023010F8013BA5
:10599000A3F13001092908D807EE903AF8EEE77A2A
:1059A000E0EE077A37EEC60AF0E7A3F161010529B8
:1059B00008D807EE903AF8EEE77AE0EE077A77EE4D
:1059C000E57A0BE0A3F1410105290AD807EE903AE8
:1059D000F8EEE77AE0EE077A77EEC57A37EEA60AB8
:1059E000D4E707EE902AF8EEE77A36E0272B09D0C5
:1059F00000234FF0FF349FED1A0AF2EE046A9FED88
:105A00001B7A16E04378534300EE103AB8EEC00A12
:105A100025E0A1F13005092D11D807EE901AF8EE16
:105A2000E77AE0EE267A591C37EEC70A23461C4671
:105A30000B4610F8011B2E29EBD11946F7E707EEAC
:105A4000902A621CF8EEE77A07D0B2EE047A9C4204
:105A500003DA80EE070A013BF9E720EE270A30BDA2
:105A600000000000000082420000C24200004042EC
:105A700010B50C460121FCF78FFD047010BD144BCE
:105A800093F84930012B22D110B5124B1C6894F8C1
:105A90007E35DB0701D4104815E010480221C38889
:105AA0006FF30E03C380FFF7E3FF002394F87E2516
:105AB0000B4863F30002C4F88435C4F88035C4F899
:105AC000883584F87E25BDE81040FBF7ADBB7047F4
:105AD000008F00206CB6080841BC0708A0370320DF
