:020000040800F2
:10000000A88D0020650F0008CD0B0008CD0B00085F
:10001000CD0B0008CD0B0008CD0B0008CD0B000860
:10002000CD0B0008CD0B0008CD0B0008CD0B000850
:10003000CD0B0008CD0B0008CD0B0008CD0B000840
:10004000CD0B0008CD0B0008CD0B0008CD0B000830
:10005000CD0B0008CD0B0008CD0B0008CD0B000820
:10006000CD0B0008CD0B0008CD0B0008CD0B000810
:10007000CD0B0008CD0B0008CD0B0008CD0B000800
:10008000CD0B0008CD0B0008CD0B0008CD0B0008F0
:10009000CD0B0008D1010008CD0B0008CD0B0008E6
:1000A000CD0B0008CD0B0008CD0B0008CD0B0008D0
:1000B000CD0B0008CD0B0008CD0B0008CD0B0008C0
:1000C000CD0B0008CD0B0008CD0B0008CD0B0008B0
:1000D000CD0B0008CD0B0008CD0B0008CD0B0008A0
:1000E000CD0B0008CD0B0008CD0B0008CD0B000890
:1000F000CD0B0008CD0B0008CD0B0008CD0B000880
:10010000CD0B0008CD0B0008CD0B0008CD0B00086F
:10011000CD0B0008CD0B0008CD0B0008CD0B00085F
:10012000CD0B0008CD0B0008CD0B0008CD0B00084F
:10013000CD0B0008CD0B0008CD0B0008CD0B00083F
:10014000CD0B0008CD0B0008CD0B0008CD0B00082F
:10015000CD0B0008CD0B0008CD0B0008CD0B00081F
:10016000CD0B0008CD0B0008CD0B0008CD0B00080F
:1001700082B006220C4B8DF807005A61A3F580531C
:100180009A695006FCD59A699107F9D59DF8072020
:10019000D2B2DA639A699206FCD540F60A02024BA3
:1001A0005A6102B0704700BF00D005509A4238BF74
:1001B000885470479728D2BF034B044B983800EB04
:1001C000800003EB801070471C94002050FB02203D
:1001D000654A136DDB0640F1A98070B51021634CB0
:1001E000634B216593F80D02A3F5404500280CBF31
:1001F000BE26FA26B3F8080280B2B04200F3978018
:10020000616393F80A02C0F1010005EB402004305D
:10021000C2F828015748C2F8240102F58052516201
:10022000B3F8082292B2F92A00F28B80D3F80412B4
:1002300003F50172914200F08B80002093F80A22AE
:100240002E6805EB42220446102584468646043279
:1002500008784C7891F802C091F803E036F8100065
:1002600036F8144036F81CC036F81EE040EA044068
:10027000C2F800004CEA0E4CC2F804C008794C7970
:1002800091F806C091F807E036F8100036F81440EF
:1002900036F81CC036F81EE040EA0440C2F80800F8
:1002A0004CEA0E4CC2F80CC0087A4C7A91F80AC09D
:1002B00091F80BE036F8100036F8144036F81CC000
:1002C00036F81EE040EA0440C2F810004CEA0E4C3A
:1002D000C2F814C0087B4C7B91F80EC091F80FE077
:1002E00036F8100036F8144036F81CC036F81EE018
:1002F00040EA0440C2F818004CEA0E4CC2F81CC098
:1003000002F1200201F11001013DA1D1B3F8082250
:10031000C3F80412013292B2A3F8082293F80A2219
:10032000C2F10102D2B283F80A2270BD7047FB25E8
:100330000020114AA3F80852616383F80E0291620B
:1003400070BDB3F80822013292B2A3F8082270BD42
:100350000A4993F80D22C3F8041212B9FB22A3F83C
:100360000822064969E700BF00000450002004503D
:1003700018500120F00F80340010045050FB022070
:10038000F0B50122354B36491A6491F81D5100F041
:100390000202C0F3400400F001031DB34008F2B1B3
:1003A0000138C31A2F4A0D7845FA04F010F0010005
:1003B00021D001252C48056472B691F81D51A01C6E
:1003C0008DBB1D0C45F43065556453645364302374
:1003D000434303F1A043254A03F5802333E0C31AC6
:1003E000234AE0E71AB10230C3EB5003DAE7C3EB6C
:1003F00050030233F4E70F271E4E5060B762A6F594
:100400000046F0600120A04005430D705068800751
:10041000FCD40120506005209063906C00F0030034
:100420000328FAD1C5E71D0E45F4306555641D0A51
:100430001B02556453645364302343430E4A03F153
:10044000A04303F580235A660F220C4B5A63012305
:100450000B4A8340536262B64C70F0BD00D003502B
:10046000000000B000000A5000E0035020000037F8
:100470000000015B000004503000003700200450F1
:100480000010045030B50024144B1C70144B5964F8
:1004900014494A644FF48071134A91609A6C95072D
:1004A000FCD59A6CD404FCD50E4B9A6C9107FCD504
:1004B0009A6CD204FCD50A4A0C4DD46BD96B0A2332
:1004C000AB630B4DAB63936C9D07FCD4054A936CF7
:1004D0009B07FCD4C0E9004130BD00BF000000B064
:1004E0000000015B00000A50008003500010015B17
:1004F00000100A504FF00A000138FDD17047074B39
:100500009FED077AD3ED097AF8EE677A67EE877A7E
:10051000FCEEE77A17EE900A704700BF00800450A7
:100520002700703D70472DE9F04F87B09846109B2B
:100530001646DDE91452019107469DF844E01299F0
:1005400002F4806923B922F01002B9F1000F20D122
:1005500012F0200F14BF412061201C4600230DF132
:10056000080AA0F10A0BB4FBF1FC01FB1C4C5FFA7A
:100570008CF0BCF1090F94BF30305844C0B28C42AB
:100580000AF8010B03F10103B4FBF1F001D3102BC6
:1005900010D112F0020A1ED102F001003DB130B1BB
:1005A000BEF1000F02D112F00C0F00D0013D4FF050
:1005B000300C05E00446D6E702AC04F803C0013372
:1005C000139C9C4201D9102BF6D120B130209D42C2
:1005D00001D90F2B0BD9D00646D5B9F1000F47D161
:1005E0001BBB102907D1910618D5582306E002AC91
:1005F000E0540133EBE7022912D162238DF8083071
:1006000030238DF809300223BEF1000F5DD02D217B
:100610005C1C18336B4403F8101C37E07823EDE7BB
:1006200030238DF808300123EEE71398984201D06B
:10063000AB421DD15C1E2046D3D010293CD19C1E5C
:10064000930676D40F2C21D804F118030DEB030484
:10065000782304F8103C044604F11801631C0DEBE8
:100660000104302104F8101C0F2BCDD91C460DE0DD
:10067000102920D194065BD40F2BF7D878215C1C6D
:1006800018336B4403F8101C0F2CE5D993073CD0AA
:10069000B146A1444846A9EB0402002C39D1BAF175
:1006A000000F05D0A9EB06094D4506EB090037D828
:1006B00007B0BDE8F08F1C460229E5D10F2CE5D824
:1006C00004F1180362216B4439E0500704D55C1C27
:1006D00018332B216B449EE71107C7D55C1C1833D8
:1006E00020216B4497E7434620200199B84709F140
:1006F00001094D450BEB0902F5D8A5EB0409A5420C
:1007000038BF4FF00009B144C3E7A146A6EB040B84
:10071000EFE7013C02A843460199005DB847B9E7FD
:100720000246434620200199B84709F10109BBE779
:100730001C460F2CAAD8582104F118036B4403F867
:10074000101C0134A0E72DE9F04F8DB01F460B1EA1
:100750000693A84B914614BF83469B460025169EE0
:10076000387870B94D4538BF2A464B464FF00000E7
:10077000069928BF09F1FF32D84728460DB0BDE8D9
:10078000F08F252807F1010706D02A464B46069927
:100790006C1CD8472546E3E700230DE02D2A29D01D
:1007A000302A06D0303A092A4FF0000812D80A241D
:1007B00031E043F001030F46394611F8012B2B2A93
:1007C0001BD0EBD8202A1BD0232A1CD02A2A2AD0BF
:1007D0004FF000083A782E2A66D179787A1CA1F178
:1007E0003000092843F4806355D817464FF0000ABB
:1007F0000A2428E043F00203DDE743F00403DAE7CC
:1008000043F00803D7E743F01003D4E70F4604FB97
:100810000822A2F13008394611F8012BA2F130006C
:100820000928F3D9D6E756F8048B0F46B8F1000F24
:10083000BCBF43F00203C8F10008CBE70F4604FB3E
:100840000A22A2F1300A394611F8012BA2F1300038
:100850000928F3D93A4612F8011B6C292CD026D866
:10086000682930D06A2938D017F8010B78288CD83D
:10087000632835D8622860D0632800F0D08025280E
:1008800083D0582881D15A0500F1848023F00C02CE
:1008900042F020024FE02A2905D156F8042B0237F6
:1008A00022EAE27AD6E717464FF0000AD2E77A2921
:1008B000DAD143F480730BE079786C29F9D143F4F1
:1008C00040730237D0E77978682903D043F080037A
:1008D0001746C9E743F0C003F3E743F40073F7E7B3
:1008E0000122A0F16404E4B202FA04F4424A144082
:1008F00019D1732800F0D08070287FF446AF43F000
:10090000210305930823CDE903A31023CDE9014377
:1009100056F8043B2A46009358464B460699FFF783
:1009200002FE05461CE7782803F480611BD10029EC
:100930005DD023F00D02102306E0590554BF23F0CB
:100940000C0223F00D02022312F400717FF408AFB1
:10095000D00506F1040451D5CDE90482CDE9023A6F
:100960000191336834E06F2807D119B923F00C02E4
:100970000823E9E723F00D02FAE7692823F01002C3
:100980000BD0642809D023F01C0209B123F01D020A
:100990000A23D9E723F00D027AE709B123F0110207
:1009A00094053FF5DDAED00506F1040401D53368AA
:1009B00002E0510616D53378CDE904820A22002BD5
:1009C00002924FEAD372CDF80CA00192B8BF5B42FD
:1009D00000932A464B4658460699FFF7A4FD264643
:1009E0000546BDE61306E2D5B6F90030E4E723F08C
:1009F0000C02A0E72505000821081200510608D5C1
:100A00003178CDE9023A0023CDE90482CDE9001323
:100A1000DFE7316812F0800F18BF89B2F1E713F0F9
:100A2000020424D04FF0010A6B1C07932A464B4660
:100A3000069916F8040BD84764B35446079A1FE08A
:100A40004B4620200699D84705EB0A020AF1010A15
:100A5000D045F5D8B8F1000F08F1FF3308BF0023E7
:100A600008F1010A1D4408BF4FF0020ADCE7A24664
:100A7000EAE7551C4B4620200699D8472A46013400
:100A80004445F6D3A8EB0A03D04538BF0023079AA4
:100A90001A440792079D63E6324652F8041BBAF1E6
:100AA000000FCDE9071214BF52464FF0FF3239B1A3
:100AB0000C460A44217809B1A24210D1079AA41A1F
:100AC00013F48062099202D0544528BF544613F0B3
:100AD00002030A9317D1631B2A460B9307E00134E4
:100AE000E8E7561C4B4620200699D84732460B9B18
:100AF000D3184345F5D3A8EB0403A04538BF002322
:100B000001341D441C44184E079B002B08BF33467C
:100B10001E46EB1A0793079BF51816F8010B30B128
:100B2000099B53B10AF1FF33BAF1000F04D10A9BBC
:100B3000C3B12A46661B0CE09A464B462A460699E4
:100B4000D847E8E702F1010A4B4620200699D8472A
:100B5000524693199845F5D8A8EB0403A04538BF31
:100B600000231D44089EFBE560AE0708054B9A6C08
:100B70009204FCD59A6C9107F9D558649A6C920648
:100B8000FCD5704700000A5000B1EFE770470E4BEC
:100B9000D3F8403103F00303022B0DD0032B0FD009
:100BA000012B0BBF0A2301234FF40042002200B1A6
:100BB000026001B10B60704709234FF40042F6E771
:100BC0000C234FF47A72F2E700800050FEE74FF0FA
:100BD000B4439868C0F304400C280AD8DFE800F05A
:100BE0000B0909090909072119091B1D1F001048D4
:100BF0007047002070479B6803F04073B3F1807F1B
:100C000011D0B3F1007F10D00A4A002B08BF104664
:100C100070470948704709487047094870470948B4
:100C2000704709487047094870470948704700BF36
:100C3000405DC60000093D00C0EA210180BA8C0178
:100C40000048E801005A62020024F40080841E007B
:100C500040420F0010B5154B0446D3F8283103F07D
:100C60000703013B052B04D8DFE803F004141C1034
:100C70000C18FEE70E4B1868052304B1206001B183
:100C80000B6010BD0A4B18680623F6E7FFF79FFFBD
:100C90000723F2E7064B58680323EEE7044B586836
:100CA0000423EAE702230348E7E700BF008000507F
:100CB000B48D0020002D310110B5164B0446D3F839
:100CC000200100F00700062805D8DFE800F01D0528
:100CD0000D1F11151900FEE70F4B1868052304B10D
:100CE000206001B10B6010BD0B4B58680323F6E781
:100CF000FFF76DFF0723F2E7074B18680623EEE7BF
:100D0000054B58680423EAE70123E8E70223034878
:100D1000E5E700BF00800050B48D0020002D3101B8
:100D200008B5094B20F04040421C1A60FFF728FB31
:100D3000012206480649437802339A404B6B13421E
:100D4000FCD0007C08BD00BF008F0020000000B078
:100D5000000004507047827802F0040102F00103A1
:100D6000920706D4B1B99FED0D0AF7EE007A002B79
:100D700005E039B99FED090AF6EE007A002B00FE76
:100D8000270A09E0B6EE080AF5EE007A002B07FE06
:100D9000800A01E09FED010A8370704700000000A7
:100DA00000EE100ABAEEEE0A704700BF00EE100A1D
:100DB000BAEECD0A704700BF10B44379C3F3C10245
:100DC000022A18D0012A0FD049B31F4B1F4A5C6872
:100DD0000368091B891002FB01F15A8F61F30802B5
:100DE0005A875DF8044B7047A9B143F020035DF8C2
:100DF000044B43717047E1B1134B144A5C680368BC
:100E0000091B891002FB01F1DA8961F30802DA811A
:100E10005DF8044B704761F345134371E1E74FF010
:100E2000FF3103685A8F61F308025A875DF8044B5B
:100E300070474FF0FF310368DA8961F30802DA8105
:100E40005DF8044B704700BF008F0020B76DDBB624
:100E50004379C3F3C103022B05D0012B1CBF0368E8
:100E600083F8381070470368197370474379C3F3E8
:100E7000C103022B09D0012B1FBF036893F83B204D
:100E800061F3440283F83B2070470368DA7B61F327
:100E90004402DA73704700BF4379C3F3C103022BE6
:100EA00005D0012B1CBF036883F839107047036815
:100EB00059737047437913F0180F00D0FEE70368A9
:100EC00093ED040A704700BF437913F0180F03D164
:100ED000036883ED040A7047FEE77047704710B55A
:100EE0000E4A0F489368C188DC1C41F30E018C4206
:100EF00004DB01234FF0FF3013730DE00068C118CD
:100F00004C78C05C043300EB04208C78C97800EB8B
:100F1000044000EB0160936010BD00BF008F002013
:100F2000903703200222014B5A737047008F002034
:100F30000222014B5A737047008F002070477047A0
:100F40007047034A136F43F480631367704700BF11
:100F50000080005040F291322021014879F028BBF6
:100F6000200100B008B54FF480412A4B2A4A9A600C
:100F7000D3F8882042F47002C3F88820274A91668B
:100F80004FF0FF31264A1166264951660221C3F807
:100F9000D010BFF34F8FBFF36F8F01204FF440335A
:100FA0002149C1F88001D3600860A2F500521361A5
:100FB0001E4A1F4B9B1A9B100AD11E4B1E498B4287
:100FC0001BD300201D4B1E498B4221D307F0BCFAD6
:100FD0001C49013B52F8040B013B41F8040BF9D2C8
:100FE000EBE7186850F82240586840F82240013278
:100FF00098688242F5D30C33E1E70022F8E71C68D9
:1010000044F8220001325C68A242F8D30833DBE7DF
:101010000022F8E700ED00E000000008009000501A
:1010200000A00044F7FF370000E100E0308C090821
:10103000308C0908FC8A0908088B0908088B090804
:10104000088B0908C8FF03204379C3F3C102022AB1
:101050001ED0012A0CD003685B8F43F30803002BDA
:101060001CDB0F4AC3EBC303506800EB83007047DF
:1010700013F0200312D010B50A4B00685C6D6DF0C0
:1010800083F9BDEEC00A10EE103A54F8230010BDEB
:101090000368DB8943F30803002BE2DA0020704782
:1010A000008F0020A44B00B04379C3F3C103022B8F
:1010B00012D0012B08D0BEEECD0A10EE102A036824
:1010C00003EB41035A86704779B1012910D00229F8
:1010D000F9D100686CF0BAB8BEEECD0A10EE102A55
:1010E000036803EB4103DA80704700686CF090B846
:1010F00000686CF09CB81FB5094BD3F82033B3F9E6
:1011000002004DF05BFC04466DF07AF9F7EE007AD0
:10111000204630EE270A04B0BDE810406BF0EBBF6C
:10112000A44B00B038B5114B597B012913D1104A9B
:10113000126892F81C25022A0AD1282500201C6971
:101140000C4A587305FB0422197582F8B50404E0B3
:1011500007F0BAFA01E001225A7371F08AFDBDE886
:10116000384010220021044879F022BA008F002074
:10117000D4AE0808000000B0188F00200FB42DE98D
:10118000F04FADF5057D8EAA52F8043B4C4C03920E
:1011900000924C484FF4007204A9FFF7D4FA94F877
:1011A0002830002B00F08680474BD3F8008098F859
:1011B0001C35002B7ED000279DF81030E762012BF4
:1011C00006D1424872F0E7FD80270DF1110502E0DB
:1011D000022BF9D004AD0026DFF8F890A9F5907A3B
:1011E000294615F801BBBBF1000F51D00023626CFA
:1011F000934204DAC85C202802D90133F8E704D00E
:10120000216B0B449A42B8BF2663636B1BB1A36B7F
:10121000013BC4E90D63236BC3B994F8283063B173
:10122000A06BE36B013090FBF3F1A06303FB1100B3
:10123000202102FB009079F0BBF9A36B002BA1BF2A
:1012400003F00303226C04EB83039A61BBF10A0FE2
:1012500006D0BBF10D0F05D1012326636363BFE701
:101260002663BDE7D4E90E2092FBF0FC236B616C92
:1012700000FB1C220AEB030001339942D8BF33461E
:1012800001FB02024BEA070B82F820B12363A7E7B8
:1012900098F89835042B0DD00D4B94F848201B7806
:1012A00053EA020506D1012384F8483071F0C8FEE4
:1012B00084F848500DF5057DBDE8F04F04B0704747
:1012C000008F0020AD010008D4AE080867AE070803
:1012D000BFFF0320200100B030B52DED048B8DB091
:1012E0001F4BD3F82033B3F902004DF067FB002306
:1012F0000446CDE9003302936DF082F82046F0EE0B
:10130000408A6DF07DF82046B0EE608A6FF00904E7
:101310006DF076F807EE904AB8EEE79A6FF009059F
:1013200039EE089A07EE905AF8EEE77A012377EE45
:10133000A87A1A46694603A80135CDED037A8DEDEA
:10134000049A5EF017FB0A2DECD101340A2CE1D18E
:101350000448FFF713FF0DB0BDEC048B30BD00BF98
:10136000A44B00B0F0BA070808B5054809220121CE
:10137000FFF704FFBDE808400248FFF7FFBE00BFCB
:1013800075AE070886AE0708064B93F84920012A78
:1013900002D10548FFF7F2BEDA6C137843F002037E
:1013A00013707047008F0020A1AE07080D4B1B681B
:1013B00093F87E359A0714D40B490B78DB0710D5C8
:1013C00010B58EB0094B93F84940012C07D10C3170
:1013D000684679F059F92146684661F00FFE0EB073
:1013E00010BD7047D4AE0808A44B00B0008F002099
:1013F00008B571F0A6FD0022024B1B6883F8982502
:1014000008BD00BFD4AE08080068704703684BB140
:101410001A4612F8011B20290BD93A29F9D119785B
:10142000302902D04FF0FF30704702339A42F9D191
:1014300002600020704744F2AA23044A5843516ACC
:10144000536A5B1A8342FBD3704700BF008004508D
:101450002DE9F84F0446DFF87080DFF870902078AF
:10146000FF2801D1BDE8F88F01254FF0800A2746FB
:10147000C8F8A0A0C8F8A050FEF77AFEC9F8A0509E
:1014800017F801BF0BF07F063546013DEDB2FF2D89
:1014900017F8010F0CD102361BF0800F3444DED058
:1014A000FF2808BF4FF4FA700134FFF7C4FFD6E7F6
:1014B0000123C9F8A0A0C8F8A030FEF759FE012307
:1014C000C9F8A030E1E700BF00E0035000D00350AE
:1014D00001220D4BC3F8A020052203F500335A6109
:1014E000A3F580539A695206FCD59A699107F9D5FC
:1014F000D8639A699206FCD540F60A42586A034BB3
:10150000C0B25A61704700BF00D0035000D00550F0
:101510000222024BFF20C3F8A020D9E700D00350DD
:1015200007B500220121034B009278F001FD03B0C2
:101530005DF804FBC6AE07080F23044A936200BFA0
:10154000D36A1B07FCD10323536370470000045088
:10155000064B586ED3F89430C0F30A10C3F30A1345
:101560009842B8BF18460130800070470000045010
:1015700008B50A46FEF786FF08BD13B50A4B0446B8
:1015800093F81D311BB1010E6846FFF7F1FF684665
:10159000210CFFF7EDFF210AFFF7EAFF2146FFF7D5
:1015A000E7FF02B010BD00BF000000B07FB501230F
:1015B000144D052168462B64FFF7DAFF124EFF2118
:1015C00002A8FFF7D5FFDDE90232FF2B01D0FF2A89
:1015D0000FD1012420463464FFF72DFF0521684612
:1015E0002C64FFF7C5FFFF2102A8FFF7C1FFDDE96B
:1015F00002321343DB07E2D40122034B1A6404B026
:1016000070BD00BF00E0035000D0035037B5012586
:10161000064C062104F5005368461D64FFF7A8FF39
:1016200004F58054256403B030BD00BF00C00350F2
:1016300070B500240F26034608462C492C4D4C60FB
:101640002C4903324C60A1F5C0212C708E622A4EC9
:10165000F46003F003041444284AA408168B013CE8
:10166000C4F30A0464F30E161683168F106264F333
:101670000E16841C146402F1080416870C670124FA
:101680002832C1F8A0201E4A14640A6B9407FCD1CA
:1016900003221C4C62638A6472B601211A4A1164E7
:1016A00012494A689207FCD401224FF48076114C0B
:1016B0004A606260104AD66095F81D51134A02EAEA
:1016C000530265B15B0E43F430634B646364130AE9
:1016D0004B64120263644A64626462B670BD5B0C60
:1016E00043F430634B646364F5E700BF0000015BC3
:1016F000000000B000000A5000800350B48D0020AC
:1017000000D003500020045000E00350FEFFFF7F94
:101710002DE9F8430026144B80461E7009B30F468E
:10172000DFF84C90114CD9F8000000BFBD1BB5F597
:10173000005F28BF4FF40055EA1C08EB060122F0B9
:101740000302FFF775FF00BF636B03F00303032B76
:10175000FAD1D9F800002E442844B742C9F8000055
:10176000E4D84046BDE8F883000000B00000045013
:10177000008F002008B5FEF703FE01230449054849
:101780004A7802329340426B1A42FCD0087C08BD72
:10179000000000B00000045070B50023012414487C
:1017A0001449154A4B6053600370144B80F81C4178
:1017B0005C6C03F12800850865F39F045C645D6A36
:1017C00003F10804A60866F39F055D620C4B1C67D5
:1017D000C3F8A0004B689807FCD453689B07FCD45F
:1017E0000A2304494B61536101234B60536070BD70
:1017F000000000B00000015B00000A50B48D002022
:10180000000004500F220F4B0F489A624FF4807271
:10181000A3F5C043DA6000220C4903F5CC234A60EB
:101820005A60027080F81C214A689007FCD45A68FC
:101830009207FCD4022205494A615A6101224A609A
:101840005A60704700000450000000B00000015BC7
:101850002DE9FF41244D2B6D002B41D1234E96F8ED
:101860001C710FB1FFF7CEFF4FF001084FF4800459
:101870001F4B6846C3F840809021FFF779FE002196
:10188000FFF776FE0021FFF773FE0021FFF770FEE1
:101890000021FFF76DFE002102A8FFF769FE029B01
:1018A000039A153B153A04FA03F39440A342114AF4
:1018B00034BF03FA08F46400C2F840802C650FB10D
:1018C000FFF76AFFB4F1806F0AD30124084B86F852
:1018D0001D41B7211C646846FFF74AFE054B1C6496
:1018E000286D04B0BDE8F081008F0020000000B03A
:1018F00000E0035000D003502DE9F04F85B03E4B7F
:10190000044693F81C310D46904600930BB1FFF747
:1019100079FF394B24F0404493F81D3124F003043F
:1019200003B902344FF0000A4FF00109334BC245AE
:10193000C3F8409006D3009B002B5AD005B0BDE8F9
:10194000F04F29E7FFF762FE2D4B0221C3F84090CC
:1019500002A86708FFF70CFE3846FFF70EFE264B7D
:1019600093F81D2132B30027C4F30802C2F50073B7
:10197000019307EB0A06464504D2019B05F1040BCF
:10198000BB4207D83C441D4BB246C3F84090FFF71A
:101990000DFECBE71BF8012C1BF8031C02A8FEF779
:1019A00071FD1BF8022C1BF8041CFEF76BFD5D4655
:1019B0000437DEE7564605EB0A0BFFB2A4EB0A0A32
:1019C000B04506EB0A04DED9B7F5807FDBD0FB0714
:1019D00047BF9BF803209BF801109BF800201BF8E1
:1019E000021C02A8FEF74EFD023601370BF1020B76
:1019F000E6E705B0BDE8F08F000000B000D003506E
:101A000000E0035002B177E7704710B5002404608E
:101A10000C6014601C6010BDF8B50123134A144E0D
:101A2000C2F8D0300146FEF765FD3364FEF762FD73
:101A30001364FEF75FFD3364FEF75CFD08240022AB
:101A40000C4FD7F8D450C6F8D030FEF753FD0748F6
:101A5000C5F34005C0F8D030FEF74CFD013C45EA27
:101A60004202EED1D2430A80F8BD00BF00E003502D
:101A700000D0035000C00350044BDFED057A93ED16
:101A8000090AB8EE400A20EE270A704700C0045049
:101A9000ACA8FB360EB40FB505AA52F8043B0146BC
:101AA0000392009204484FF0FF32FEF74CFE04B060
:101AB0005DF804EB03B07047AD0100080CB41FB52E
:101AC00006AC54F8043B0A460094014604480394CB
:101AD000FEF739FE04B0BDE8104002B0704700BF09
:101AE000AD010008F8B59A4C0D46237823B10023C8
:101AF000984A237082F85430974B984240F0C58042
:101B0000944F97F85430AB4254D0944A136B13F06F
:101B10000A0FFBD1904B5A68D10702D59A6C9204F8
:101B2000F9D501218E4A51605A6812F00202FBD1A8
:101B3000012D45D11A638B4ADA608B4A1A61022261
:101B40005A6140F201429A605D60834B5A6D12F017
:101B5000280FFBD14FF485729A635A6D12F0280F4B
:101B6000FBD19A6CD24312F4405FFAD17A4A536D9A
:101B7000002BFCD1237094F81C31F3B1FFF70CFE5D
:101B80007A4B7B4AC3F8CC244FF48022C3F8C42498
:101B90000232C3F8C8241C22C3F8B424022203F57D
:101BA000A0435A6203225A63072203F5BE235A63F5
:101BB0000023237087F85450F8BDFFF723FEDFE7BA
:101BC000022D61D10F21654A634C91625B681BB1A4
:101BD000636DC3F30B03FAE74CF0B2FC0423604AD5
:101BE000644900260B6113610B6113610B61136182
:101BF0000B611361202341F2020123614FF4A02302
:101C0000E660A6606161A661A66563625A4BE66103
:101C10002662A662E66266632665D364266363690C
:101C2000052023F44C5323F00F030B436361A36897
:101C300023F0804323F0E203A3604CF0A1FC4FF4B7
:101C4000E13130464CF0BEFC4CF07AFC424A936CD9
:101C5000DB4313F4405FFAD14FF470230520D360C7
:101C60004CF08EFC4FF4614144484CF0ABFC4FF417
:101C7000A0223E4BC3F8CC244FF4C022C3F8C424A6
:101C80001422C3F8B42495E7FEE73D4B984293D164
:101C9000304A92F85530AB428ED03A4991F80E3224
:101CA000002BFBD12D48036BDE06FCD4344B586867
:101CB000C0B901205860012D18D140F60A41596180
:101CC000314999600521D960142159610021D961F8
:101CD000264B2E49C3F838174FF00211C3F83417BA
:101CE000182130E098698406FCD5E4E7EB1E012B4F
:101CF00052D80121264B042DC3F8A0104FF010013B
:101D000003F58043996240F60A4103F5D8335961DF
:101D10001D4999604FF00501D9604FF015015961D7
:101D20000CBF4FF480714FF44741D9610F4B1949F3
:101D3000C3F83017A1F54031C3F838174FF002113E
:101D4000C3F834171C21C3F8201782F8555033E725
:101D5000000000B0008F002000000A500000045076
:101D600000200A5000000F180100000100C00350BD
:101D70000200050000100A50FF3F0D0304AA1104E1
:101D800000C005501850012001040080020003002B
:101D900000D0035002000600052DD6D191F80E3276
:101DA000002BFBD10E490B6BD806FCD40D4B5968A8
:101DB00011B999698904FCD510210B4B996240F641
:101DC0000A4103F5D8335961084999600521D96062
:101DD000152159614FF48071D961A3F5003378E77B
:101DE0000000045000C005500010045001040080A1
:101DF000F8B5020604460D4607D500213720FFF747
:101E0000F7FF012845D804F07F040C2C1FD0FFF702
:101E10007FFB254B254893F84810FFF763FE02220D
:101E2000234B244FC3F8A020FF20FFF751FB224E85
:101E30007B6A1E44FF20FFF74BFBFF2807D07B6A1D
:101E4000F31A002BF6DCFFF763FBFF2021E044F0E0
:101E50004000FFF73DFB280EFFF73AFBC5F30740B4
:101E6000FFF736FBC5F30720FFF732FBE8B2FFF7B9
:101E70002FFB7CB1082C0FD18720FFF729FB0A2408
:101E8000FF20FFF725FB030603D5013C14F0FF04F8
:101E9000F6D1F8BD9520F0E70120FFF719FB0C2CD7
:101EA000EDD1FF20E9E700BFB48D002000C0055050
:101EB00000E00350008004500834820038B50D461D
:101EC0001C46114678BB73B3194B93F84930DA07B7
:101ED0002BD4184B93F85630DB0658BF4902012C1F
:101EE0000FD11120FFF784FF28B928464CF000FBE2
:101EF000B0FA80F46409FFF70BFB201E18BF012025
:101F000038BD1220FFF774FF0028F4D128464CF0AA
:101F1000EFFA18B1013C05F50075F7D100210C204E
:101F2000FFF766FFE7E70420EAE70320E8E700BFE2
:101F3000B48D0020008F002038B5436A05468B42DF
:101F40000C4611D001230A4600F128014078FFF722
:101F5000B5FF002818BF4FF0FF3403460CBF0346FF
:101F600001236C62184638BD0023FBE738B5002317
:101F7000C3704FF0FF3343620446FFF7DDFF0028D4
:101F800052D194F82830B4F82652EB2B09D01833EC
:101F9000DBB2012B05D94AF655239D420DD1022013
:101FA00038BD4AF655239D4230D0B4F8332094F81A
:101FB0003530B2F5007F00D193BB0320F0E7B4F8D1
:101FC000332094F83530B2F5007FE8D1002BE6D00D
:101FD0005A1E1A42E3D1E38E002BDCD094F838303D
:101FE000013B012BD7D8B4F83930002BD3D0B4F84B
:101FF0003B307F2B06D804F14800FFF705FAB0F517
:10200000803FC8D3E38F002BC5D007E008220749E3
:1020100004F17A0078F0BCFA0028D0D10020BFE7A4
:102020005A1E1A42C9D1D6E70420B9E7D4AE070830
:102030002DE9F04184B00D46B04C00BF94F80E324B
:10204000002BFBD1AE4A00BF93699B04FCD594F8EA
:102050000D32AB4240F02E810121A948FFF742FD2D
:10206000012700231022A74EDFF8B88206F20441B0
:10207000C4F80412C8F8A07084F80E72A4F80832EC
:1020800084F80A3218461D469C469E4694F80A3249
:10209000904606EB43233768043300BFAFF300805C
:1020A00008784D7891F802C091F803E037F81000F5
:1020B00037F8155037F81CC037F81EE040EA0540E5
:1020C000C3F800004CEA0E4CC3F804C008794D79FF
:1020D00091F806C091F807E037F8100037F815506E
:1020E00037F81CC037F81EE040EA0540C3F8080086
:1020F0004CEA0E4CC3F80CC0087A4D7A91F80AC02D
:1021000091F80BE037F8100037F8155037F81CC07D
:1021100037F81EE040EA0540C3F810004CEA0E4CC8
:10212000C3F814C0087B4D7B91F80EC091F80FE006
:1021300037F8100037F8155037F81CC037F81EE094
:1021400040EA0540C3F818004CEA0E4CC3F81CC026
:1021500003F1200301F11001B8F10108A0D14FF4FF
:102160000018B4F80832C4F8041201339BB2A4F882
:10217000083294F80A326449C3F10103DBB284F8EF
:102180000A32624B624FC1F8243194F80A32C3F12B
:10219000010306EB43230433C1F82831C7F88080DC
:1021A000BFF34F8FBFF36F8F00205A4B84465A62A4
:1021B00094F80A32864606EB432305463668D4F87F
:1021C00004120433AFF30080AFF30080AFF300805C
:1021D000087891F801C091F802E0CD7836F8100047
:1021E00036F81CC036F81EE036F8155040EA0C40B0
:1021F000C3F800004EEA054EC3F804E0087991F8F0
:1022000005C091F806E0CD7936F8100036F81CC00C
:1022100036F81EE036F8155040EA0C40C3F80800C6
:102220004EEA054EC3F80CE0087A91F809C091F81F
:102230000AE0CD7A36F8100036F81CC036F81EE0F9
:1022400036F8155040EA0C40C3F810004EEA054E2F
:10225000C3F814E0087B91F80DC091F80EE0CD7B37
:1022600036F8100036F81CC036F81EE036F8155067
:1022700040EA0C40C3F818004EEA054EC3F81CE0D3
:1022800003F1200301F11001013AA1D1B4F80832A1
:10229000C4F8041201339BB2A4F8083294F80A324D
:1022A000C3F10103DBB284F80A32C7F8008004B03E
:1022B000BDE8F0810126184F05211148C7F8A0603C
:1022C000EDB2FFF70FFC84F80D5294F80D3283B194
:1022D000FF23124A0192124A01A802928DF80C3093
:1022E000FFF7B6F880220F4BC7F8A020C3F8A06014
:1022F000B2E60A4AFF2301920B4AEDE7185001208B
:1023000000C005501890002000000450F00F8034E9
:1023100000E100E00010045000D003502B04001432
:1023200000DB2C0000E0035000AB2C000EB42DE9C4
:10233000F04F94B03D4D059095F85730182B3BD891
:102340004FEAC309013385F8573000241EAB0DF165
:1023500024080893009329221D9B41463448FEF728
:10236000F2F995F858300493324B93F84A300393BE
:1023700018F9043018F80460002B4FEAC40143DD5B
:1023800000272D4B01F1080B03EBC6060D4609EBA8
:10239000070316F8012B069312F0010FDDE9033055
:1023A00008BF0346B5F5A07F4FEA520205F1010AC6
:1023B00015DB5546D2B2EFE708242046FDF7FAFEBA
:1023C0000146A4F10800FDF7F5FE4FF4A0720134B8
:1023D00078F062F9C82CF0D14FF0C009B5E7174882
:1023E00090F80C02082805D106980793FDF7E2FE45
:1023F000079B4355DA455546D2B2CDD10137082F58
:10240000C4D10134282CB3D1059B4BB10B4C012115
:1024100094F80B02FFF70CFE94F80E32002BFBD160
:1024200014B0BDE8F04F03B0704700BF008F00202C
:10243000AD010008B48D00201CC107081850012010
:102440007FB504460D460A4E02213046FFF74AFB8F
:1024500023464FF0FF3203A900950648FEF773F9B3
:10246000044601213046FFF73DFB204604B070BD15
:1024700000000A50890B00080FB47FB50D4D08AC61
:1024800054F8046B28460221FFF72CFB33464FF02B
:10249000FF32009402A908480394FEF754F9044659
:1024A00001212846FFF71EFB204604B0BDE870401E
:1024B00004B0704700000A50890B00080FB407B53C
:1024C00004AC54F8045B0448FFF7D6FF21462846C5
:1024D0000194FFF7B5FFFEE7DDAE070838B5044607
:1024E000C088A38840F30E0043F30E0342189A42BB
:1024F0000D4618DD94F90520002A04DB0A46014642
:102500000E48FFF7DBFF8B4202DA0D48FFF7D6FFDC
:10251000E3790C4843F08003E371FEF72FFEE38874
:102520006FF30E03E380E388206843F30E010D444C
:1025300065F30E03E380084438BD00BFE5AE07082D
:1025400041AF070867AF07082DE98048ADF5844D16
:1025500099B00120A549FFF7E9FE0EAC0DAB1C6058
:10256000A34B98A80BAA98931360FEF74FFF00287F
:1025700005DA0B219F48FFF77FFF9F4938E29F4B09
:10258000810003EB8000C26D0AB1002010700020B2
:102590000B448DF838000DA90BA80EAADC654BF092
:1025A000F5FD044601469348FFF766FF002CE4D191
:1025B00001209349FFF7BAFE01209249FFF7B6FECA
:1025C000914B0DAD28460CA92B604BF0DFFD044666
:1025D00000286CD1DDF830800CAB2B68CDF8608220
:1025E0001E4613F8012B2F2AFAD05C2AF8D00023BC
:1025F0009A9333781F2B50D9A0AF202198AB0B2290
:10260000581877F0D5FF00254FF0080906F1FF3A7A
:10261000C6F1020B0BEB0A031AF8014F202C08D964
:102620002F2C01D05C2C63D1F25C2F2A5ED05C2A67
:102630005CD01E44002D00F03F819DF88032E52BD8
:1026400004BF05238DF88032202C76D93378202BD7
:102650008CBF002301239B008DF88B32989B98A898
:1026600001934CF021FA0446002840F0EE808346A6
:102670000DF5207A9E990198FFF75EFC044600282C
:1026800040F083809F980378002B58D19DF88B32BF
:102690005C0700F1E480052409E0802398A88DF808
:1026A0008B324CF001FA0446002800F0DA80002258
:1026B00021465648FFF7E0FE554A56490120FFF7EC
:1026C00035FE55490120FFF731FE4FF4FA60FEF761
:1026D000B2FEBFF34F8F5149514BCA6802F4E0621A
:1026E0001343CB60BFF34F8F00BFFDE701339BE780
:1026F0002E2C1AD0A94540F2DF80220641BF494B5B
:1027000004F07F04E41894F800444748214677F029
:1027100066FF002840F0D080A4F16103192B9CBF14
:10272000203CE4B27C55013574E7B9F10B0F00F0A1
:10273000C38008254FF00B096CE704238CE7C47AAB
:1027400004F03F0314F008048DF8663217D09C9B08
:10275000989C2033B3F5001F32D29E99002995D062
:10276000C3F30809B9F1000F6AD101319E919D9917
:1027700049BB2089B0EB531F62D89E9186E70B229C
:10278000514677F005FF0028E1D19DF88B32002CEF
:102790005DD1580765D49DF86632D9067FF57BAFC9
:1027A0009C9A98F80010C2F3080208F12803134419
:1027B00003295A8B04BF9B8A42EA03429A921CE780
:1027C000CDF878B2C9E76589013D15EA532537D1BF
:1027D000204602934CF012F901283CD9431C3CD00E
:1027E000E168029B884221D39E954FE77DAF0708A1
:1027F000F1BA070895AF0708E4B00708008F00207A
:10280000A4AF0708BDAF0708D1AF0708EBAF0708B3
:10281000D3AF07081AB00708F8B0070800ED00E0CA
:102820000400FA051CC10708DCAF070802399D90B7
:10283000023888423EBF6189256A00FB01559E959A
:1028400028344C449C939F9414E79DF88B32042CBD
:102850007FF42DAF1CE7022497E7012495E70424B9
:1028600025E79DF98B32002B26DB9DF86632DA06D0
:10287000F5D498F800309F98032B08BF838AB0F8EE
:102880001AB000F11C0008BF4BEA034BFEF7BCFD79
:102890000646B8F806300246002101907D480593AF
:1028A000FFF7EAFD324601207B49FFF73FFD002E8E
:1028B00004DC3246794901E70624F8E6012078492C
:1028C000FFF734FD01207749FFF730FD01217648FD
:1028D000FFF708F9754B012493F81C31744D754FBF
:1028E000002B5CD0FEF78EFF2C64FEF78FFEC72115
:1028F00008A83C64FEF73CFE2C64FEF757FEFEF78A
:102900004BFF4FF000094F4601206B49FFF70EFDCA
:102910006A4BCDF80C90029308F12803069398F8BF
:102920000030002B00F0B380B8F80630059A9342CF
:1029300040F0AD8098F80130002B40F0A880604B4B
:1029400093F8494014F0010440F0A180019BF51B6D
:102950009D4228BF1D46B5F5804F28BF4FF48045E6
:102960000DF5187A3DBB002C3CD02246029898A960
:10297000FFF748F8019B1B1B0193029B2344029322
:10298000039B5B0704D10120019A4E49FFF7CEFC5F
:10299000039B01330393019B002BC0DC27E02C64D5
:1029A000FEF734FEC7213C6408A8FEF7E1FD2C6465
:1029B000FEF7FCFDA5E7C7F308030493002B4FD1F6
:1029C000B8F80A20013A12EA57221DD1A7B14046B1
:1029D000009907924CF012F8079A0090009B012B87
:1029E0000DD80224224601203749FFF79FFC3749C2
:1029F0000120FFF79BFC64E6CDF800B0EEE7009BFA
:102A0000013301D10124EDE7009BA3F1020CD8F8BA
:102A10000C30023B9C45E4D2B8F80A00D8F82010EC
:102A200000FB0C110029DCD0B5F5007F114416D352
:102A300002EB552C84454FEA552388BF831A0A467A
:102A400098F8010051460493FFF738FA0028D9D1CD
:102A5000049B5B02ED1A1C449A441F4482E789469A
:102A6000049B4946C3F50073AB4228BF2B46404642
:102A70000793FFF761FA0028C4D1079B04991A460F
:102A8000069B5046194477F007FE079BE2E70924AE
:102A9000A8E700BFEBAF070802B00708CBB00708F4
:102AA0002EB0070849B0070800000A50000000B027
:102AB00000D0035000E003506DB007080400004050
:102AC000B48D0020A3B0070886B00708B9B0070886
:102AD0000148FFF7D1BC00BF0CB107080148FFF760
:102AE000CBBC00BF20B1070830B5EFF3108572B63C
:102AF000046884EA02030B406340036005B962B6D0
:102B000030BD054BD3F88420D206FBD4D3F8840023
:102B1000C0F38110704700BF0040005010B54FF463
:102B20008032164B9A66A3F580531B6F1A0B12F076
:102B30000E0FC3F3033306D0072B04D00F2B02D0A4
:102B4000032B00D0FEE741F6713203FB00000C4B73
:102B5000DC69DA635A6804F4803422F4401259B90B
:102B60000849884294BF00200120000502435A60B2
:102B70000CB10022DA6310BD0349F2E70090005067
:102B800000000350005A6202002D31010029CCBF21
:102B900001210021C2E700210048BFE700B4C404BE
:102BA00008B502204BF01EFAFFF7F5FFFEF7C9F952
:102BB0004FF48032014B1A6708BD00BF00900050EF
:102BC000074B03EB4003B3F88034CB40DB0700D462
:102BD000FEE7302301225843024B8A401A507047C7
:102BE0001CC1070840D003500346054A0549D06C74
:102BF00003448B428CBF4FF0FF30D364704700BF5B
:102C0000B48D0020000004204FF0FF307047FEE735
:102C10000020704701207047012070474FF0FF30BF
:102C20007047002070470020704700207047094B14
:102C30001B6F03F00703022B04D0032B05D0012BDD
:102C400006D0FEE7044B18687047034B586870477E
:102C50000248704700800050B48D0020002D3101E3
:102C600008B5FFF7E4FF044B1B6FC3F303330133D5
:102C7000B0FBF3F008BD00BF008000501FB500237B
:102C80008028019300F0B48065D85E2876D85E284D
:102C900000F2C881DFE810F0B300C601C601C6012A
:102CA000C601C601C601C601C601C601C601C601EC
:102CB000C601C601C601C601C601C601C601C601DC
:102CC000C601C601C601C601C601C601C601C601CC
:102CD000C601C601C601C601B300C100B300C100F0
:102CE000EC00EC00EC00EC00EC00C1000F01C800AF
:102CF00034013901C800C100C100C100C601C601CC
:102D0000C601C601C601C601C601C601C100C10097
:102D1000C100BF016F01C100C601C601C601C601E5
:102D2000C601C601C601C601C601C601C601C6016B
:102D3000C601EC00B300B300B3004F01C800C800E7
:102D40007B01B201F1000A01C601C601C601C6013C
:102D5000C6019101B300B0F5B06F00F0AC801DD892
:102D6000B0F5207F59D00AD8B0F5C07F47D0B0F574
:102D7000007F47D0B0F5807F00F0B180FEE7B0F56E
:102D8000607F5CD003D8B0F5407F4DD0F6E7B0F55A
:102D9000806F6DD0B0F5A06F6FD0EFE7B0F5106F1A
:102DA00000F0C98012D8B0F5E06F00F0E48008D8D8
:102DB000B0F5C06F00F0A480B0F5D06F00F0A58032
:102DC000DCE7B0F5F06F00F02681D7E7B0F5406F93
:102DD0006CD008D8B0F5206F00F0D980B0F5286F1E
:102DE00000F00C81CAE7B0F5486F00F0E680C5E757
:102DF000FFF71DFF0190019805B05DF804FBFFF798
:102E00002FFFF7E7FFF713FF874BD3F89030C3F39B
:102E100004630133B0FBF3F0ECE7FFF721FF824BD3
:102E20001B6FC3F38023F4E7FFF71AFF7E4B1B6F82
:102E3000C3F380230133B0FBF3F04008DAE77A49AB
:102E4000D1F8803003F00303022B0AD0032B0BD000
:102E5000012B0CD1FFF7EBFED1F88030C3F3011347
:102E6000D7E7FDF7B4FEF7E7704B1868F4E7FEE725
:102E7000002101A8FDF720FFBDE7002303936A4B63
:102E8000D3F8203203F00703042B04D8DFE803F063
:102E90000804B00A0A00FEE7002103A8FDF7DAFEE5
:102EA000039B26E04FF400430393F9E7002101A8B8
:102EB000FDF7D0FE9FE703935B4BD3F8803103F01F
:102EC0000303022B00F09880032B00F09180012B6C
:102ED00004D1002103A8FDF7EFFEE1E7FEE702932E
:102EE0004FF0E0231B695B0705D5FFF7B9FE0290A1
:102EF000029B01937FE703A902A8FDF748FEF7E7CD
:102F0000002101A8FDF743FE75E7474BD3F8000207
:102F100000F0070004280DD801A353F820F000BFEB
:102F2000F52D0008712F0008712F0008632F00088D
:102F3000692F0008FEE73C4BD3F8080200F00700B9
:102F400004280DD801A353F820F000BFF52D000888
:102F5000712F0008712F0008632F0008692F0008E7
:102F6000FEE74FF47A7045E7FFF77AFE800A41E703
:102F70004FF400403EE72C4BD3F8403203F00303FC
:102F8000032B4CD0003B18BF0123DB03B1E7002328
:102F90000393254BD3F8603203F00703013B032B67
:102FA0000AD801A252F823F0D32E0008E72F000818
:102FB000F92F0008F12F0008FEE7002303931A4BB6
:102FC000D3F8943203F00703013B032B0AD801A284
:102FD00052F823F0D32E0008E72F0008F92F00083D
:102FE000F12F0008FEE7002103A8FDF7D0FD57E709
:102FF000FDF7EDFD039053E70D4B55E700210A4B1C
:103000000391D3F8703203F00303012BECD0022BB1
:103010003FF446AFFEE7044BD3F86031AEE74FF420
:103020007A7366E7AAE600BF00800050B48D0020E6
:10303000002D3101F8B526204BF048F854204BF014
:1030400045F84FF48022524B5420C3F82823FFF751
:1030500015FE00234F4A1C460133B0FBF3F19142A9
:1030600002D9802BF7D17F244BF048F84A4B4B4EC6
:1030700043EAC4134A4C4B4FE36025694BF03EF8DA
:1030800044F2100301226361636B23F47F7323F026
:1030900003036363444B5A60216B444B0B4043F47E
:1030A000E03343F010032363E261AA0748BF102313
:1030B000374A48BFE361D2F8283343F48063C2F84B
:1030C000283325694BF01AF844F210030122A3615A
:1030D000636B374823F0FF7323F4C0336363324BD1
:1030E0005A60216B334B0B4043F0A06343F0200345
:1030F00023631023E361EB0748BFE26180222E4B7C
:1031000001255A6043F25E0200211D632B4CDA61F7
:103110002B4ADD602B4B8661C2F85011C2F84C116E
:10312000C661C2F88011C2F87C116119186F596725
:103130002549264E01403943196703F170019E6706
:1031400021F0030646F0020641F00201DE67C2F8F4
:1031500090115C661C491C6E03F1600021403943EC
:1031600019661B49996620F0030141F00201D966F6
:103170006023184940F00200C2F860010D654B63FE
:10318000202191644021916402F580525362F8BD80
:1031900000C0035020A107002000002003000C0005
:1031A00000400259F03F003100500259EE0EE0FF9E
:1031B00000400450DDFD3F8000000550DC0400B0FD
:1031C00000000450008F00200C80F0002C400259B9
:1031D000284002590020045008B58020FFF74EFD1A
:1031E000034B98429EBF4FF48032024B1A6708BDD2
:1031F000005A620200A0005008B54FF4C070FFF7FB
:103200003DFD0649064A884294BF00200120136F05
:1032100023F4806343EA8023136708BD80F0FA0239
:103220000080005010B5FFF71BFD0446FFF769FC56
:10323000C0F102012046FFF7A9FCFFF7F8FC0220CD
:103240004AF0D0FEFFF7D8FFBDE81040C4E72DE9F3
:10325000F0474FF4C022012104469F4B5A6603F504
:1032600098335A689D4A51605E6816F00206FBD199
:1032700021689B4B994200D8FEE79A4DA94200D99C
:10328000FEE7A388B3F5967F00D8FEE7B3F5805F2D
:1032900000D3FEE7E388B3F5805F00D3FEE7FFF7D6
:1032A00030FC012803D1904B994200D9FEE700235E
:1032B0008E4A1068814202D35068814205D9013399
:1032C000192B02F11002F4D10023894A02EB0313F7
:1032D000D3F89074D3F89434002B36D0854A9342B7
:1032E00062D01CD8844A934254D011D8834A934266
:1032F0004AD009D8824A934222D0824A93421FD0B0
:10330000814A93421CD0FEE7804A93423FD0FAE7BD
:103310007F4A934241D07F4A934241D0F3E77E4AAD
:1033200093424DD006D87D4A934241D07C4A934285
:1033300042D0E8E77B4A934246D0AB4248D0E2E72E
:10334000794B9B6D03F07F031F434AF037FE05283E
:103350007ED14FF4803ADFF88091DFF8E081FFF70B
:103360001AFCFDF7EEFDC9F870A0D8F870301D0BFF
:1033700015F00E05C3F303332ED0072B67D00F2BA8
:1033800068D0032B68D0FEE7674B5B6EDAE7664BCD
:103390001B6FD7E7644B5B6FD4E7634B9B6FD1E741
:1033A000614BD3F88030CDE75F4BD3F88430C9E769
:1033B0005D4BD3F88830C5E75B4BD3F88C30C1E761
:1033C000594BD3F89030BDE7574BD3F89430B9E759
:1033D000554BD3F89830B5E75E1C4BBBFFF7DBFBD2
:1033E000FDF7AFFDC9F870A0D8F8703023F4704332
:1033F00043F48053C8F87030FFF732FC0546FFF7FE
:1034000080FBC0F102012846FFF7C0FB0125FFF752
:10341000F3FEFFF7E1FE454BDA6812F0060FFBD131
:103420009A689F609B687B4013F4F81F16D0FEE7F4
:10343000022EF0D1FFF7AFFBFDF783FDC9F870A0B6
:10344000D8F8703023F4704343F44053D2E7082691
:103450000025E0E71026FBE70426F9E7A288E388C9
:1034600043EA0243324AD360A368032B68D1A2F532
:10347000A032D2F8003123F0030343F00103C2F875
:1034800000310721237D627D9B0043EA821322697C
:103490001343227B43EA4203254A9360D4F8008019
:1034A000244BC3F800800D4B19610121A3F5805313
:1034B0005960176917F00707FBD04AF07FFD052810
:1034C00040F08580002D6AD0751E012D4AD91A4B17
:1034D000F340DA0746D4FEE70090005000E00150C8
:1034E0009FBB0D0000B4C404005A6202A4C50708C3
:1034F0001CC107080048E8010024F400C0CF6A009E
:1035000080841E0000093D0040420F00405DC6005F
:10351000C0EA210180BA8C01007E560380D54302A7
:10352000006CDC020090D0030080E00F000001502E
:1035300000C00150B48D0020100101000080005037
:10354000092B07D1244AD2F8003123F0030343F0BA
:10355000020394E7082B94D11F4AD2F8003143F0BC
:1035600003038CE7FFF717FB4FF48031FDF7E9FC0D
:103570001A4B194A1967136F23F4704343EA053352
:103580001367FFF76DFB0546FFF7BBFAC0F10201B9
:103590002846FFF7FBFAFFF72FFEFFF71DFEFFF7A8
:1035A0005FFB23680546834200D2FEE7804500D2D8
:1035B000FEE7984500D0FEE7FFF7A3FAC0F102014D
:1035C0002846FFF7E3FAFFF717FEFFF705FE7B1E1D
:1035D00058425841BDE8F0870080005000900050EC
:1035E0002DE9F04FA5B06FF004035021AE48AF4C69
:1035F00013F0800F03F1010240F0608423444C2A51
:1036000083F800131346F3D14FF00042A84B072173
:103610005A664AF6CD3203F50B23586C1A64A54A54
:1036200000F00100D1635A6B12F00B02FBD1596814
:103630004FF0004421F4F87141F48071596040F278
:103640000911996040F20311196199494C664AF6D3
:10365000CD34596C1C64984C984B01F00101256BDA
:103660002D0740F136849A4240F03084924B002975
:1036700040F0438408B1924A1A644FF00042914BE3
:10368000586E03F580535A664AF6CD3203F50B2384
:10369000596C1A6401F001015E6B16F08006FBD1D3
:1036A0001A6A22F00F0242F006021A6209B1844A35
:1036B0001A640028A2BF4FF00042834B5A66834B26
:1036C000D3F84C21120340F11C844FF6FF72A3F58E
:1036D000FE431B88934240F021848C247C4B7D4A1E
:1036E0005360784B1B6F03F00703032B01D1FFF7E7
:1036F000B7FA4AF063FC032851D04FF480126C4BA8
:103700004FF0A0615A6645F60E03734AC2F8803046
:10371000724B99624FF4803103F580539962936D37
:10372000DF03FCD4936D5D00FCD404F12801FF2974
:10373000A8BFFF216A4B240213619369A4B203F06E
:10374000004343EA0143234343F0407343F03C0307
:103750009361136A23F00F031362916A614B0B406C
:1037600043F48033936260495B4A936D31EA03030B
:10377000FBD14FF0807159488162136923F47003C3
:1037800043F4401313614FF000434FF480328361E0
:10379000564B99629A62504A936D5800FCD4544D2E
:1037A00009AC0FCD0FC495E8030084E803004AF08C
:1037B00005FC052809AD40F0B483424CFFF7F0F951
:1037C000236F23F0070343F001032367FFF72AFD6C
:1037D00031204AF07BFC2846FFF739FDFFF7E0F97E
:1037E000236F23F0070343F002032367FFF71AFD5B
:1037F000344CFFF7D5F9236F2F4623F0070343F02E
:1038000002032367FFF70EFDD4F82031DFF8E4C090
:1038100023F0070343F00103C4F82031D4F8283122
:1038200023F0070343F00103C4F82831D4F84031F2
:1038300023F0030343F00103C4F84031D4F86031AE
:1038400023F0030343F00103C4F86031D4F840329D
:1038500023F0030343F00103C4F84032D4F80032EC
:1038600023F0070343F00103C4F80032D4F8083210
:1038700023F0070343F00103C4F808320D4B5A6FDD
:1038800042F001025A67DA6E22F03002DA66BCE8D2
:103890000F000FC79CE8030087E803004AF08EFB87
:1038A000052840F0458327E000ED00E000E100E05E
:1038B00000900050004000500040095040420F006E
:1038C0003254FFFF0080005000A000500080E00F45
:1038D000C0175302B48D00200040005A0050005A17
:1038E0002008C00BC7FFFEFE030001000060005A65
:1038F00034C707084CC70708FFF752F9236F23F0B6
:10390000070343F001032367FFF78CFC31204AF0E3
:10391000DDFB2846FFF79BFCFFF742F9236F23F0FE
:10392000070343F002032367FFF77CFCC74AC84C38
:10393000136F23F48063136754F8040B01364AF0C5
:10394000C5FB0C2EF8D14FF4E012C24B01245A6093
:103950004FF0FF32C0491C63DA61DC6003F580433D
:1039600059601C63DA61DC60A3F58823C3F88042E8
:103970001A6F002122F480321A674FF030404FF462
:10398000A04276F015FEB54B04221C6405210020F0
:103990004AF0DCFB0422062100204AF0D7FB692212
:1039A000AF49284676F078FE0422072102204AF02B
:1039B000CDFB0422002102204AF0C8FB052203218E
:1039C00002204AF0C3FB0221052208464AF0BEFB52
:1039D00030240021A34804FB01F303F1A04303F5C5
:1039E00070331A6B013122F07012024304291A63FA
:1039F000F1D101244FF08008984E3220C6F8A04043
:103A0000C6F8A080FDF717FD3220FDF714FD322027
:103A1000FDF711FD40F60A42934B944F5C605A61EA
:103A2000934A28469A600522DA6014225A610022DD
:103A3000DA61904BC7F838374FF00213C7F83437C4
:103A40001823C7F82037FDF703FD2046C6F8A080ED
:103A5000FDF7F1FC884BC3F8A0404FF4163400206A
:103A6000FCF786FB013CFAD1844F05ABD7F8E5168D
:103A7000D7F8E10697F8E92603C30DF1140840468C
:103A80001A70FDF7E5FC80230126744A0120C2F874
:103A9000A030FDF7D0FC784BDFF82CB2C3F8A06063
:103AA0003046FDF7C8FC21464CF21022584676F00D
:103AB0007FFD082207F2EA63CBF800300BF54043A4
:103AC00083F80C22FB224FF0040AA3F808226C4B67
:103AD0006C4A83F84A606C4B6C4983F85840624BDF
:103AE000DFF88891C3F814A0A3F5E0335E6051615C
:103AF0004FF48032C3F81C21654AC3F82C211022F0
:103B0000C3F83041C3F8204103F580535A659A63E6
:103B10006022604B83F815234FF400121A604FF4B3
:103B20003E4221460BF2044076F042FD20465A49BF
:103B3000FEF7FCFBDFF81CB13046584A5849FEF747
:103B4000F5FB584A30465849FEF7F0FBDBF82430C5
:103B5000314620460193FEF76BFA31462046FEF7C8
:103B600067FADBF82420019B5049D31A0A22304619
:103B7000B3FBF2F2FEF7DAFB76F099F94C49024614
:103B80003046FEF7D3FB4B4A304622F4FF5222F078
:103B90001F024949FEF7CAFB48493046FEF7C6FBFB
:103BA0004FF4FA70FDF747FC2C4A21462046166474
:103BB00005224AF0CBFA0522214630464AF0C6FAE1
:103BC0000222304611464AF0C1FA052231463046FB
:103BD0004AF0BCFA0522022011464AF0B7FA5146D3
:103BE000022220464AF0B2FA5146052202204AF04B
:103BF000ADFA334BC9F8AC64C9F8A4344FF00113E3
:103C0000C9F8A8341C232F4AC9F89434C9F8CC2425
:103C10004FF480221D4907F2F467C9F8C424C9F89B
:103C2000C814C9F8B43497E80F00274688E80F0095
:103C3000DFF89890DFF898A058F8046B7368002BB1
:103C400048D0776073689907FCD443E00080005047
:103C500064C70708008004500000FC0F00D0035028
:103C600094C707081000700000C0055000C0035042
:103C7000010400800200030000E003501CC107089B
:103C8000B48D002000400450008F0020020004008A
:103C900044C0055000E100E037B107085DB10708F6
:103CA00069B1070877B1070880B107088EB1070826
:103CB000A8B1070807AB0900BFB10708D3B10708CF
:103CC00001000200020005001890002000000F18FB
:103CD0000100002802233763C6F80C90C6F810A034
:103CE000736140F20143B36001237360736D13F09D
:103CF000280FFBD14FF485730A20B363FDF79BFBBC
:103D0000736D002BFCD10134042C95D110239E4AF5
:103D1000D16B013B04910499FAD14FF480731024C4
:103D200093639A4BDA6B013C0492049AFAD14FF4F4
:103D300080729A630123964EAC4673600F234FF056
:103D400030082746DFF8AC92DFF8ACE2DFF848A293
:103D5000DFF89CB2B36299E80F0085E80F005CF8C9
:103D6000042B0EEB84035A6008FB0463A21E012A95
:103D70001F66DF6500F2E380864A022C5A66864A97
:103D8000DA661F6700F0F080844B804CC6F8F8308C
:103D900007237D4A6363536308220126804BDFF8C3
:103DA00028929A676420C3F88420DFF80C82FDF71C
:103DB00042FB02A85021C9F84060FDF7D9FB112150
:103DC000C8F84060C9F84060FDF7D2FB0021FDF75C
:103DD000CFFBC8F84060FDF7E9FB6420FDF72BFB43
:103DE0006760626812F00202FBD101236D49216114
:103DF0006360654B5A605A689207FCD401221961CE
:103E00005A60FDF725FDFDF7C7FCFDF721FD021EF9
:103E1000BCBF02F57F2202F6FF7201206249121533
:103E2000FEF784FA614B01201C465A686049FEF790
:103E30007DFA40F2924362680124B2FBF3F2012062
:103E400012035C49FEF772FA5B4B20461C645B4927
:103E5000FEF76CFA20465A49FEF768FA594920469F
:103E6000FEF764FAC820FDF7E6FA574B21461C64BA
:103E70004548FDF737FE2246214603204AF066F901
:103E80000021042208464AF061F90422002103209F
:103E90004AF05CF92846FDF7BFFDBDF824502046E6
:103EA0002A464A49FEF742FA2946494805F0E10503
:103EB000FEF7E2FAE12D5CD1FEF746FB03F00F03BB
:103EC000043B034419761346FFF792BB0132FFF718
:103ED000C6BB9A423FF4CAAB20223E4B9A620122F3
:103EE000A3F580535A603C4B3C4A946AA4063FF5C4
:103EF000BDAB013BF9D1FFF7B9BB394A1A64FFF7F3
:103F0000B9BBD3F8504114F0FF047FF4E7AB4FF690
:103F1000FF72344B1B8893423FF4E0AB1C46FFF723
:103F2000DDBB31204AF0D2F82846FFF790F95FE474
:103F300031204AF0CBF82846FFF789F9F6E42A4AFF
:103F4000012C5A6606D0C6F86CA001243767C6F863
:103F500068B000E7254B0224C6F89C300F4BC6F82A
:103F6000A070C6F89830F6E6214B0324C6F8C83096
:103F7000F1E621460448FDF7B5FD75F09BFF25B03D
:103F8000BDE8F04F60F072BB00000A500000015B1A
:103F90000000045020008037100000B03C000A50A0
:103FA0000080035001000001F4B10708B48D002027
:103FB0000BB2070817B2070800D00350F1BA070880
:103FC00023B2070840B2070800E003505BB20708BD
:103FD0006DB207080060095041420F0000400950CF
:103FE0003254FFFF0001E00F80008317120000B081
:103FF0003C00015B20C80708004004502DE9F84F41
:104000008046A9B3DFF8CCB00F46DBF8003013F0E0
:10401000030630D18A0754D0DFF8BC90DFF8B0A097
:104020002A4C00BFBD1BB5F5847F28BF4FF48475B3
:10403000EA1C5146184622F00302FDF7F9FA00BFC8
:10404000636B03F00303032BFAD1DBF8001008EBDA
:10405000060001F0030110312A46494476F01CFBAA
:10406000DBF800302E442B44B742CBF80030D9D8CF
:104070004046BDE8F88F0422154923F00300FDF700
:10408000D7FADBF80010114A01F00301C1F1040670
:10409000BE4228BF3E4600BF536B03F00303032B11
:1040A000FAD1DFF83490103132464046494476F078
:1040B000F3FADBF80030BE423344CBF80030ADD326
:1040C000D6E7BDE8F84FFDF723BB00BF0000045062
:1040D000100000B0008F0020000000B02DE9F84F64
:1040E000DFF8D8B021F040438046CBF800308AB3E7
:1040F00011F00306174630D1BA0756D0DFF8C0904A
:10410000DFF8B4A02B4C00BFBD1BB5F5847F28BFE2
:104110004FF48475EA1C5146184622F00302FDF75D
:1041200087FA00BF636B03F00303032BFAD1DBF8BC
:10413000001008EB060001F0030110312A46494443
:1041400076F0AAFADBF800302E442B44B742CBF8C5
:104150000030D9D84046BDE8F88F21F04040042215
:10416000154920F00300FDF763FADBF80010114A4F
:1041700001F00301C1F10406BE4228BF3E4600BF64
:10418000536B03F00303032BFAD1DFF834901031A3
:1041900032464046494476F07FFADBF80030B742B9
:1041A0003344CBF80030ABD8D4E73946BDE8F84FFC
:1041B000FDF7AEBA00000450100000B0008F0020E0
:1041C000000000B07FB5334B1C6894F87E3598072B
:1041D0005ED5D4F8AC0575F03CFFD4F8B00575F0A9
:1041E00038FF002294F87E35C4F8B02562F341030D
:1041F00084F87E35012384F81C3594F87E35C4F8A4
:104200008425590744D562F3820384F87E35224B16
:10421000D4F8902504F2945494ED007AD3ED107AFA
:1042200077EEC77AF5EE407AD3F88050F1EE10FAC7
:10423000A5EB020505F1FF3507EE105A08BFF7EEB2
:10424000007AF8EEC76A86EEA77ADFED146A27EEE9
:10425000267ABDEEC77A4FF47A7317EE104A67EEEE
:10426000A67A94FBF3F6FDEEE77A03FB164417EE0D
:10427000902A334629460A480094CDED037AFCF78C
:104280007DFF33462946039A05480094FEF7F4F86B
:1042900004B070BDD4AE0808008F002000007A443E
:1042A00080B207082DE9FF41474B1C6894F87E3522
:1042B0009A0702D4454D464E7CE094F89825042A8E
:1042C00021D15B0712D54349D4F88C35D1F8802031
:1042D000934251D0D4F89035C4F88C2501339A42DA
:1042E00011D10A6C04F294531A600CE004F5946244
:1042F00004F5936392ED007AD3ED007AB4EEE77A99
:10430000F1EE10FA38D904F21C48D8F8002004F570
:10431000856304F584671A603A6804F22C4304F25A
:1043200024461A60326804F586631A60D4F884154E
:10433000D4F8803510221944244D6846FFF7CEFE8C
:10434000009AEB8842F30E0262F30E03EB80D4F87E
:10435000803501991033C4F88035C8F800100299EF
:10436000D4F888053960039931609918814205D3E2
:10437000C4F88015FFF726FF002022E0D4F884154A
:1043800028681944FFF7AAFEEA88D4F8803542F37A
:104390000E0213440120C4F8803512E0EB88C3F309
:1043A0000E03012B0DD12B681B78012B09D1304650
:1043B000FCF7E4FED4F89C0552F04AF8431E012BAA
:1043C000ECD904B0BDE8F081D4AE080890370320E2
:1043D000A7B20708008F0020C3886FF30E03C380C5
:1043E0007047024BD3F88400704700BF008F002055
:1043F00070470FB404B07047054BD3F88430834244
:10440000C3BF044B03EB8003D3F8DC0C02487047B6
:10441000008F0020000000B0F1BA070810B5044674
:104420000120FFF7E9FF037823B94FF0FF3022782E
:10443000637807E075F0C2FE2278824213D0637879
:10444000834210D00AB9207007E00BB9607004E015
:104450000548BDE81040FCF791BEA378DA075CBFC1
:1044600043F00303A37010BDC7B207080048D5E7A7
:10447000888F00200048D1E78C8F00200048CDE7CE
:10448000908F00200048C9E7948F00200048C5E7BE
:10449000988F00200048C1E79C8F00200048BDE7AE
:1044A000A08F00200048B9E7A48F00200048B5E79E
:1044B000A88F00200048B1E7AC8F00200048ADE78E
:1044C000B08F00200048A9E7B48F00200048A5E77E
:1044D000B88F00200048A1E7BC8F002000489DE76E
:1044E000C08F0020004899E7C48F0020004895E75E
:1044F000C88F002010B504460120FFF77DFF037828
:1045000033B175F05BFE23786278834207D102E015
:10451000238004230FE0002323702AB10CE08242A1
:104520000AD1002262703BB9A378DA0704D523F0E0
:10453000010343F00403A37010BD0148DAE700BF94
:10454000888F002010B5084C04F18C00FFF7D2FFD3
:1045500094F88E30DB0706D4044B1B781BB1BDE802
:10456000104073F09DB910BD008F0020ACFF0320F8
:104570000048BFE7908F00200048BBE7948F0020E1
:104580000048B7E7988F00200048B3E79C8F0020D1
:104590000048AFE7A08F00200048ABE7A48F0020C1
:1045A0000048A7E7A88F00200048A3E7AC8F0020B1
:1045B00000489FE7B08F002000489BE7B48F0020A1
:1045C000004897E7B88F0020004893E7BC8F002091
:1045D00000488FE7C08F002000488BE7C48F002081
:1045E000004887E7C88F002070B50124094E0A4DA6
:1045F000D6F884309C4208DA2046FFF7FDFE0146DB
:104600002846FCF7BBFD0134F2E70448BDE87040E2
:10461000FCF7B4BD008F0020E6B20708F0BA070827
:1046200008B50120FFF7E8FEBDE808400146014853
:10463000FDF722BFEAB20708154BD3F88430022BEE
:1046400001D0144821E0144B1B78DB071CD510B5B2
:104650008EB0124B1B6893F87E1511F0020404D043
:104660000F480EB0BDE810400FE05EF05BFC01208B
:10467000FFF7C2FE0146684676F006F82146684616
:104680005EF0BCFC0EB010BD0548FCF777BD00BF66
:10469000008F002002B30708A44B00B0D4AE080876
:1046A0003AB3070800B58FB0FF220D4B1B6883F8A3
:1046B000552593F87E359B0703D5FFF783FD4AF018
:1046C000E5FC0120FFF798FE0146684675F0DCFF27
:1046D00068464AF087FDFCF78BFE0FB05DF804FBDF
:1046E000D4AE0808F0B58BB04FF480324CF2A06322
:1046F0004FF41021CDE90023A4480823FDF7BCFEA8
:10470000A34B93F84920012A40F03D81A14A127839
:10471000D20701D4A04830E0A04A1268D2F89044F1
:104720000CB19F4829E09F4D6879012801D09E482F
:1047300023E0D3F88430022B01D09C481DE0FFF722
:104740005BFE9B4975F07DFF10B92E46942703E070
:10475000984812E0013494366B79A34212DD07FBCE
:1047600004531B7ADB07F5D5F06869F067FFB5EEF7
:10477000C00AF1EE10FAEDD88F480BB0BDE8F0405A
:10478000FCF7FCBC082501200795FFF735FE8B4997
:1047900007AA013060F0D4F8079B072B01D988489D
:1047A000EFE0FDF755F8A0F510240798013004EB71
:1047B000004049F053FC0798042204EB004000F548
:1047C000813080495C30FDF797F80798042204EBAC
:1047D000004000F5DF307C4900F5D670FDF78CF81D
:1047E0004FF020332A46794908A80893CDF82330A2
:1047F00075F014FF002307982A4604EB004000F5EB
:10480000803008A90C308DF82730FDF775F807982F
:10481000042204EB004000F581306D496030FDF763
:104820006BF80798202204EB004000F581306749BF
:104830007030FDF761F80798042204EB004000F5A2
:10484000813064496430FDF757F80798042204EB7F
:10485000004000F5813060496830FDF74DF8079859
:10486000042204EB004000F581305C496C30FDF718
:1048700043F874F07AFB069074F071FB059007988A
:10488000042204EB004000F5E33006A99830FDF760
:1048900033F80798042204EB004000F5E33005A943
:1048A0009430FDF729F80798042204EB004000F546
:1048B000E3304B499030FDF71FF80798402204EB96
:1048C000004000F5803047491430FDF715F807988F
:1048D000802204EB004000F5803043495430FDF75E
:1048E0000BF80798402204EB004000F580303F4968
:1048F000D430FDF701F807984BF61C5204EB00404A
:1049000000F581303A499030FCF7F6FF07984FF4F4
:10491000DC6204EB004000F5DF30364900F5D8706A
:10492000FCF7EAFF07984FF4A47204EB004000F58F
:104930008030314900F58A70FCF7DEFF07980422C9
:1049400004EB004000F5E3302C499C30FCF7D4FF29
:10495000042207982A4B04EB004000F580301044F5
:1049600004A90493FCF7C8FF05230393079B0422C3
:1049700004EB034000F58030083003A9FCF7BCFFCE
:104980002048FCF7FBFB0BB0F0BD00BF5BB3070892
:10499000008F0020A44B00B086B30708D4AE0808EF
:1049A000A1B30708084B00B0BEB30708DDB3070882
:1049B000CEAF0708FCB3070821B4070852D1070897
:1049C00044B40708BC4E00B03C3D0320B04B00B0DF
:1049D000CC8F0020A84B00B0C44E00B0C84E00B031
:1049E000B03903203C4B00B0FC4D00B07C4E00B011
:1049F000E8400320284400B0FC0C00B0C83C032071
:104A0000785634125DB407082DE9F043A5B0DFF8FD
:104A1000588398F84900012840F06D81D8F8843017
:104A2000022B05D0B54825B0BDE8F043FCF7A6BB86
:104A3000B34BB4491F68FF2387F855350823049307
:104A4000FFF7DAFC04AA01305FF07AFF049B072B22
:104A500001D9AD48A1E0FCF7FBFE04220499A0F5C2
:104A6000102505EB014101F58031114403A8FFF742
:104A700035FB0399A54A914201D0A5480EE004995F
:104A8000042205EB014101F58031083102A8FFF74E
:104A900025FB0299052904D005229E48FCF76EFBF0
:104AA00029E10499402205EB014101F580311431DF
:104AB00014A8FFF713FB0499202205EB014101F52F
:104AC0008131703106A8FFF709FB0499042205EB38
:104AD000014101F58131643105A8FFF7FFFA8E4BE2
:104AE00004991C6D05EB014124F0030401F58131AB
:104AF00004226031A4F5517408F1CC001C65FFF765
:104B0000EDFA864906A875F0B5FD854E814620B1BF
:104B100098ED330AB8EEC00A28E0824AD8F8CC30C3
:104B200012789A421ED1337BCBB131464FF4517289
:104B3000204675F0B1FD98ED330A7B48B8EEC00A07
:104B400062F07FFA4AF0ECFA23784FF4517269F37D
:104B5000000321463046237075F09EFD0BE007EE02
:104B6000902A01E007EE903AB8EEE70A6E4862F04C
:104B700068FA4AF0D5FA002106A85EF03FFA0499D7
:104B8000042205EB014101F5E33168489C31FFF750
:104B9000A5FA3378DA0703D46548FCF7EFFAAAE000
:104BA000049923F0060305EB014101F5803143F040
:104BB0000603802254315F483370FFF78FFA04995F
:104BC000402205EB014101F58031D4315A48FFF70D
:104BD00085FA0499042205EB014101F5DF3101F565
:104BE000D6715648FFF77AFA0499042205EB014181
:104BF00001F581315C315248FFF770FAD6F818138D
:104C00005048FDF739FC04994BF61C5205EB014165
:104C100001F5813190314C48FFF760FA0499042284
:104C200005EB014101F5813168314848FFF756FA3B
:104C30000499042205EB014101F581316C314448AE
:104C4000FFF74CFA012006F0A9FB04220499414C1D
:104C500005EB014101F5E331E06094310DEB020019
:104C6000FFF73CFA0499042205EB014101F5E33119
:104C700098316846FFF732FADDE9001074F064F904
:104C80000499042205EB014101F5E33190313248EA
:104C9000FFF724FA04994FF4DC6205EB014101F5BA
:104CA000DF3101F5D8712D48FFF718FA049B4FF456
:104CB000A47205EB034101F5803101F58A712848A2
:104CC000FFF70CFA059B343414AD73600FCD0FC49D
:104CD0000FCD0FC40FCD0FC495E80F0084E80F006F
:104CE00097F81C353BB11F484AF07CFAFCF780FB73
:104CF000002387F8983525B0BDE8F08364B4070831
:104D0000D4AE080852D1070844B4070878563412C4
:104D100083B40708A6B40708B48D0020B04B00B0D8
:104D2000A44B00B0A6FF0320C6B40708C83C03206C
:104D3000CCB40708FC4D00B07C4E00B03C3D0320D5
:104D4000BC4E00B0DFB40708E8400320C44E00B0FA
:104D5000C84E00B0084B00B0B0390320284400B062
:104D6000FC0C00B0A6B80708008F002020B1044B4F
:104D7000C31AC3F38F0300E00346438003807047E8
:104D8000E8400320428842B10388064921F82230D6
:104D90002BB101EB83014A807047128000E05B80F9
:104DA000FFDE00BFE84003200C4A19B18B1AC3F3A1
:104DB0008F0300E00B4643800B88038053B1811AB8
:104DC00002EB8303C1F38F015980438823B122F89A
:104DD000231070475B8000E01B80FFDEE84003206B
:104DE00010B540EA020414F003040CD10B0443EAAA
:104DF00001230B43921043EA0163A24209DD40F80C
:104E000024300134F9E70023934202DAC15401331C
:104E1000FAE710BD2DE9F0412DED028B914B1D6895
:104E200095F89835042B40F019818F4E044696F87A
:104E3000BA3096ED348AD80744BF8C4BD3ED007A54
:104E400096F8BE3048BF28EE278AD9071ED4884B73
:104E500005F58767B3F90030864806EE903AF8EE1C
:104E6000E66AFBF778FF66EE886A97ED007A043809
:104E7000A6EEC07AFBF76FFFA6EE807AB0EE470A87
:104E800087ED007A50F05EFE87ED000A96F88A30D2
:104E9000DFF8148213F0010F05F2344717D072F0D7
:104EA00030FDB8F90030744807EE103AB8EEC77A12
:104EB000FBF751FF27EE087AD7ED006A0430E7EEE2
:104EC000406AFBF748FFE7EE006AC7ED006A6B48EF
:104ED000FBF741FF0430F0EE406AFBF73CFFB8F906
:104EE000003097ED007A07EE903AF8EEE77A67EE39
:104EF000887AF5EE406AA6EEE77AF1EE10FAA0EEB7
:104F0000277A87ED007A04D1B5EE400AF1EE10FA67
:104F100001D072F0F6FC97ED007ADFED597AB4EE2D
:104F2000E77AF1EE10FA06DCDFED567AB4EEE77AB6
:104F3000F1EE10FA01D5C7ED007A05F23C4595ED8A
:104F4000007ADFED517AB4EEE77AF1EE10FA06DC82
:104F5000DFED4E7AB4EEE77AF1EE10FA01D5C5ED49
:104F6000007A182200212046FFF73AFF96F8BE305B
:104F7000474D13F0010F13D0B5F900303D4806EE50
:104F8000903AFBF7E8FEF8EEE66A94ED047A04380E
:104F9000A6EE807AFBF7DFFEA6EEC07A84ED047AF7
:104FA000B5F900303B4807EE103AFBF7D4FEB8EEF7
:104FB000C77AD4ED046A0438E7EE006AFBF7CBFE4B
:104FC000354BE7EE406AB3F90030203806EE103A70
:104FD000C4ED046AFBF7BFFEB8EEC66A94ED057A2D
:104FE0000430A6EE007AFBF7B6FEA6EE407A96F8FD
:104FF0008A3084ED057ADA071BD4284B0C30B3F9DC
:10500000003005EE903AFBF7A6FEF8EEE55A94ED77
:10501000036A234BA5EE806AB3F90030043005EE35
:10502000903AFBF798FEF8EEE55AA5EEC06A84EDDB
:10503000036A96F8BA30DB0710D51A4B94ED036A71
:10504000D3ED007A26EE276A66EEA76A27EE277A66
:1050500084ED036AC4ED046A84ED057ABDEC028B2D
:10506000BDE8F081D4AE0808008F00200453012071
:1050700068FF03209C8F0020A08F0020A88F0020B5
:105080000000A04200008CC200004842000048C25C
:105090006AFF0320B48F002070FF03206EFF0320FF
:1050A0006CFF03200853012066FF032010B540EA7F
:1050B0000103134313F0030308D192109A420DDD4C
:1050C00051F8234040F823400133F7E7002393428F
:1050D00004DACC5CE4B2C4540133F8E710BD013902
:1050E00011F8013F13B100F8013BF9E70370704775
:1050F00075F0DFBA70B5044608460D46FFF7F8FFB5
:10510000E288236842F30E02134413F8013C461C64
:1051100033B131462046FDF7E1F93246294606E033
:1051200001462046FDF7DAF9324629460138BDE846
:105130007040FFF7BBBF38B504460D46FFF7D8FFF8
:1051400029462044BDE83840FFF7C9BF431E013956
:1051500013F8012F11F8010F904202D10028F7D166
:1051600070474FF0FF30704702449042034601F110
:10517000FF3101D10020704710B51C7811F8010FE4
:10518000A04205D130B101339342F6D1002001E0B5
:105190004FF0FF3010BD70B504460244A24225789E
:1051A00011F8010B1AD0854214D0A5F16106192E11
:1051B000A0F1610302D9192B07D911E0192B0FD9DE
:1051C000203DA8420CD10134E8E7A0F120039D4224
:1051D00006D1284601340028E0D103E0002001E098
:1051E0004FF0FF3070BD30B503782D2B08BF013074
:1051F00003780CBF4FF0FF320122302B20D14378CF
:1052000003F0DF03582B1DD10023023010F8011BDF
:10521000A1F13004092C03D801EB0313303BF5E76F
:10522000A1F16104052C03D801EB0313573BEDE713
:10523000A1F14104052C13D801EB0313373BE5E73B
:10524000272B02D000230A2404E0437808E004FB63
:105250000313303B10F8011BA1F13005092DF6D9DD
:1052600002FB03F030BD08B50120FFF7C5F8FFF7DA
:10527000BAFF024BC3F8D40008BD00BF008F002066
:1052800030B503782D2B08BF013003780CBF4FF0E9
:10529000FF320122302B41D1437803F0DF03582B3A
:1052A0003ED19FED3B0AB3EE007A9FED3A5AF2EE03
:1052B000046ADFED395A9FED396A023010F8013B7C
:1052C000A3F13001092908D807EE903AF8EEE77A01
:1052D000E0EE077A37EEC60AF0E7A3F1610105298F
:1052E00008D807EE903AF8EEE77AE0EE077A77EE24
:1052F000E57A0BE0A3F1410105290AD807EE903ABF
:10530000F8EEE77AE0EE077A77EEC57A37EEA60A8E
:10531000D4E707EE902AF8EEE77A36E0272B09D09B
:1053200000234FF0FF349FED1A0AF2EE046A9FED5E
:105330001B7A16E04378534300EE103AB8EEC00AE9
:1053400025E0A1F13005092D11D807EE901AF8EEED
:10535000E77AE0EE267A591C37EEC70A23461C4648
:105360000B4610F8011B2E29EBD11946F7E707EE83
:10537000902A621CF8EEE77A07D0B2EE047A9C42DB
:1053800003DA80EE070A013BF9E720EE270A30BD79
:1053900000000000000082420000C24200004042C3
:1053A00010B50C460121FDF799F8047010BD144B9F
:1053B00093F84930012B22D110B5124B1C6894F898
:1053C0007E35DB0701D4104815E010480221C38860
:1053D0006FF30E03C380FFF7E3FF002394F87E25ED
:1053E0000B4863F30002C4F88435C4F88035C4F870
:1053F000883584F87E25BDE81040FBF7BFBE7047B6
:10540000008F0020D4AE0808F6B4070890370320B8
:105410000DB5070838B51C4B1C6894F81C35022BD9
:1054200008D00020FEF7E8FFBDE8384001461748E5
:10543000FBF7A4BE94F87E0510F0020522D104F516
:10544000B46404212046FFF7ABFF2846FEF7D4FFE3
:105450000F4A10490546FFF79EFE38B129462046FF
:10546000FFF748FE20460C49FFF744FE0B4B204651
:10547000D3F88420012ACCBFD3F8D8100849BDE85E
:10548000384037E638BD00BFD4AE08081DB5070860
:105490009F86010038B50708DBAE0708008F0020A3
:1054A000F0BA070810B5164B93F84930012B06D116
:1054B000144B1B78DB0704D4BDE81040AAE7124C5C
:1054C00000E0124C12484BF015FC01461148A04771
:1054D00009A3D3E900231048A04710491048A0476A
:1054E000104B11485A79114B19682346BDE81040FA
:1054F000184700BFAFF30080000000E0A370F13F49
:10550000008F0020A44B00B0FD5B00087D11000857
:105510003CB5070845B5070852B50708B04B00B0C1
:1055200062B50708084B00B06FB507088C37032039
:10553000034B93F84930012B00D16BE7704700BF54
:10554000008F002038B5634C94F84930012B02D10C
:10555000BDE838405EE7604BD3ED067AF5EE407A61
:10556000F1EE10FA04D0E36C1B781B0740F1B08019
:105570000120FEF741FF05460220FEF73DFF74F0D3
:105580001DFE2B7800EE100A732B00F2A180672B12
:1055900005D8392B0FD82F2B40F29A800EE0683BAC
:1055A0000B2B00F29580DFE803F0809393939393A5
:1055B0006A9393937562632B7FD089E094F8DC2023
:1055C000002A41D0303B092B40D8DFE803F031817D
:1055D0003F3F3F3F053F3F25404B1C686B782046CF
:1055E000612B08D169F0C0F8BDEEC00A10EE103A88
:1055F00043F4803307E069F0B7F8BDEEC00A10EE5F
:10560000103A43F0100300EE103A2046BDE838404F
:10561000B8EEC00A68F019B8304B1C68204669F033
:10562000A3F8BDEEC00A10EE103A43F40003EAE717
:105630002A4B1C68204669F097F8BDEEC00A10EEB0
:10564000103A43F08003DEE7312B41D9234B1C682D
:10565000204669F089F80123BDEEC00A2A78323A63
:10566000934010EE102A1A4300EE102ACDE71B4B90
:10567000B8EEC00A1868BDE8384067F0AABF94F8D1
:10568000DD302BBB154BB8EEC00A1868BDE83840BA
:1056900067F0AEBF94F8DD30D3B9104BB8EEC00A56
:1056A0001868BDE8384067F0B2BF0C4BB8EEC00ACE
:1056B0001868BDE8384067F02FBF94F8DD303BB97B
:1056C000064BB8EEC00A1868BDE8384067F0AEBFB8
:1056D00038BD00BF008F0020FC0C00B0CC3D032083
:1056E00038B5324DD5F88420012A0CD1304B3148E1
:1056F000197801F00F020909FBF740FDBDE83840B9
:105700002D48FBF73BBD0120FEF776FE022A03D1B0
:1057100074F054FD044607E074F050FD0446022086
:10572000FEF76AFE74F04AFD00F00F0004F00F046B
:105730000D28A8BF0D200D2CA8BF0D2495F84930C9
:1057400000EB0414012B0FD107EE904A1B48B8EE72
:10575000E70A61F076FC1A4B1B6893F81C35022BA4
:1057600022D1BDE8384055E6421C00EE102AEB6C11
:10577000B8EEC00A5868C3F88C4068F054F811219C
:105780001048FFF70DFEE96C0F4B0E48C91A0F4B7E
:1057900089105943FFF704FEEB6C0A48D3F88C10CC
:1057A000BDE83840FFF7FCBD38BD00BF008F0020CA
:1057B000AFFF03208DB50708A1B50708B6B50708E8
:1057C000D4AE0808D84E00B0104B00B0AD1B4C91C1
:1057D000FFF7E6BD10B50C460221FCF77FFE047012
:1057E0002412447010BD10B50C460421FCF776FE5F
:1057F000231204704370231424168370C47010BDE8
:10580000F0EE407AFEEEEE7A17EE901AFFF7E2BF66
:10581000FDEEC07A17EE901A4FF4B473090291FBB3
:10582000F3F1C9B2FFF7BCBD0022024B9A601A73B4
:10583000704700BF008F00200848094AC18893685C
:1058400041F30E019942D5BF012301684FF0FF30AB
:10585000C856CABF01331373936070479037032053
:10586000008F00200848094AC188936841F30E015F
:105870009942D5BF012301684FF0FF30C85CCABF11
:10588000013313739360704790370320008F00201B
:1058900010B50C4A0C489368C1885C1C41F30E019A
:1058A0008C4204DB01234FF0FF30137308E00168E2
:1058B000C8184478C85C023300EB042000B293603F
:1058C00010BD00BF008F00209037032070B5044644
:1058D000FFF7C8FF637913F0180F00D0FEE72368C5
:1058E0001873FFF7BFFF637913F0180F00D0FEE7BE
:1058F00023685873FFF7B6FF637913F0180F00D0D1
:10590000FEE723689A7B60F303029A73FFF7AAFF0E
:10591000637913F0180FC3F3C10500D0FEE72368C5
:10592000D873637913F0180F00D0FEE72668FFF7ED
:10593000AFFF637926F8150013F0180F00D0FEE7CB
:105940002668FFF779FF00EB400006EB4506C0EB49
:10595000001001354000032DF080E2D170BD10B57C
:105960000B4B0C481A6800238168545C0A4464F3AA
:1059700007035478043164F30F239478D27864F3E6
:10598000174362F31F6300EE103A816010BD00BF41
:1059900090370320008F002070B5002504464E1E6E
:1059A000FFF74AFF431C012B03D960550135AE4276
:1059B000F6DC00236355204670BD08B5FFF768FF8D
:1059C00000EE100ABAEEEE0A08BD08B5FFF734FF84
:1059D00007EE900A9FED030AF8EEE77A27EE800AB9
:1059E00008BD00BF0000B43F38B50D46144611464F
:1059F000FCF774FD22462946BDE83840FFF756BB48
:105A000020B50546FFF774FB02460B48B0F8E630B8
:105A1000B0F8E41043F30E03134441F30E018B423C
:105A200004DBBDE820400548FBF7A8BB2946BDE8DC
:105A30002040E030FFF7D8BF008F0020C0B5070836
:105A4000F8B5154DB5F8E64044F30E041CB9BDE8B1
:105A5000F840FFF7D5BF0746002302220121204668
:105A600074F075FB06462246D5F8E010FFF71EFBE2
:105A7000B5F8E63038466FF30E03A5F8E630FFF7C9
:105A8000BFFF05F1E00022463146FFF7ADFF30468B
:105A9000BDE8F84074F0DDBA008F00201FB58DED31
:105AA000010A019B042203A90393FFF79DFF05B0A0
:105AB0005DF804FBF0B5A3B006460746019B03F072
:105AC000802343F08003019302AB00933E4B1C689C
:105AD0000FCE04F543750FC596E8030085E8030073
