S01000005175616B654D4732342E733337F3
S31508000000A88D002081340008B9180008B91800081E
S31508000010B9180008B9180008B9180008B91800086E
S31508000020B9180008B9180008B9180008B91800085E
S31508000030B9180008B9180008B9180008B91800084E
S31508000040B9180008B9180008B9180008B91800083E
S31508000050B9180008B9180008B9180008B91800082E
S31508000060B9180008B9180008B9180008B91800081E
S31508000070B9180008B9180008B9180008B91800080E
S31508000080B9180008B9180008B9180008B9180008FE
S31508000090B9180008E1020008B9180008B9180008DC
S315080000A0B9180008B9180008B9180008B9180008DE
S315080000B0B9180008B9180008B9180008B9180008CE
S315080000C0B9180008B9180008B9180008B9180008BE
S315080000D0B9180008B9180008B9180008B9180008AE
S315080000E0B9180008B9180008B9180008B91800089E
S315080000F0B9180008B9180008B9180008B91800088E
S31508000100B9180008B9180008B9180008B91800087D
S31508000110B9180008B9180008B9180008B91800086D
S31508000120B9180008B9180008B9180008B91800085D
S31508000130B9180008B9180008B9180008B91800084D
S31508000140B9180008B9180008B9180008B91800083D
S31508000150B9180008B9180008B9180008B91800082D
S31508000160B9180008B9180008B9180008B91800081D
S315080001700068704703684BB11A4612F8011B20291C
S315080001800BD93A29F9D11978302902D04FF0FF3026
S31508000190704702339A42F9D102600020704744F250
S315080001A0AA23044A5843516A536A5B1A8342FBD30B
S315080001B0704700BF0080045001220D4BC3F8A020F1
S315080001C0052203F500335A61A3F580539A6952064E
S315080001D0FCD59A699107F9D5D8639A699206FCD530
S315080001E040F60A42586A034BC0B25A61704700BFCC
S315080001F000D0035000D005500222024BFF20C3F85E
S31508000200A020D9E700D0035082B006220C4B8DF807
S3150800021007005A61A3F580539A695006FCD59A6976
S315080002209107F9D59DF80720D2B2DA639A69920642
S31508000230FCD540F60A02024B5A6102B0704700BF6D
S3150800024000D005502DE9F84F0446DFF87080DFF836
S3150800025070902078FF2801D1BDE8F88F01254FF06E
S31508000260800A2746C8F8A0A0C8F8A050FFF7CCFF18
S31508000270C9F8A05017F801BF0BF07F063546013DB7
S31508000280EDB2FF2D17F8010F0CD102361BF0800FC7
S315080002903444DED0FF2808BF4FF4FA700134FFF764
S315080002A07EFFD6E70123C9F8A0A0C8F8A030FFF75B
S315080002B0ABFF0123C9F8A030E1E700BF00E0035017
S315080002C000D003509728D2BF034B044B983800EB55
S315080002D0800003EB80107047649300208C1E032077
S315080002E0654A136DDB0640F1A98070B51021634C91
S315080002F0634B216593F80D02A3F5404500280CBF12
S31508000300BE26FA26B3F8080280B2B04200F39780F8
S31508000310616393F80A02C0F1010005EB402004303E
S31508000320C2F828015748C2F8240102F580525162E2
S31508000330B3F8082292B2F92A00F28B80D3F8041295
S3150800034003F50172914200F08B80002093F80A228F
S315080003502E6805EB4222044610258446864604325A
S3150800036008784C7891F802C091F803E036F8100046
S3150800037036F8144036F81CC036F81EE040EA044049
S31508000380C2F800004CEA0E4CC2F804C008794C7951
S3150800039091F806C091F807E036F8100036F81440D0
S315080003A036F81CC036F81EE040EA0440C2F80800D9
S315080003B04CEA0E4CC2F80CC0087A4C7A91F80AC07E
S315080003C091F80BE036F8100036F8144036F81CC0E1
S315080003D036F81EE040EA0440C2F810004CEA0E4C1B
S315080003E0C2F814C0087B4C7B91F80EC091F80FE058
S315080003F036F8100036F8144036F81CC036F81EE0F9
S3150800040040EA0440C2F818004CEA0E4CC2F81CC078
S3150800041002F1200201F11001013DA1D1B3F8082231
S31508000420C3F80412013292B2A3F8082293F80A22FA
S31508000430C2F10102D2B283F80A2270BD7047FB25C9
S315080004400020114AA3F80852616383F80E029162EC
S3150800045070BDB3F80822013292B2A3F8082270BD23
S315080004600A4993F80D22C3F8041212B9FB22A3F81D
S315080004700822064969E700BF00000450002004501E
S31508000480604F0120F00F8034001004508C1E0320AA
S3150800049030B50022144B1A70144A154B596451642E
S315080004A04FF48071A2F5D02291609A6C9507FCD51D
S315080004B09A6C9406FCD50D4B9A6C9107FCD59A6CF0
S315080004C09206FCD50A4A0B4DD46BD96B0A23AB634B
S315080004D0094DAB63936C9D07FCD4044A936C9B0748
S315080004E0FCD4C0E9004130BD000000B000000A504D
S315080004F00000015B0010015B00100A507FB5012364
S31508000500144D052168462B64FFF7C2FF124EFF21E2
S3150800051002A8FFF7BDFFDDE90232FF2B01D0FF2A53
S315080005200FD1012420463464FFF739FE05216846B9
S315080005302C64FFF7ADFFFF2102A8FFF7A9FFDDE94D
S3150800054002321343DB07E2D40122034B1A6404B0D8
S3150800055070BD00BF00E0035000D0035037B5012539
S31508000560064C062104F5005368461D64FFF790FF04
S3150800057004F58054256403B030BD00BF00C00350A5
S3150800058030B50023012413481349144A4B605360BD
S315080005900370134B80F81C41D8699C0864F39F00CC
S315080005A0D86103F12004D86BA50865F39F00D863CA
S315080005B00C480467C0F8A0304B689807FCD4536809
S315080005C09B07FCD40A2304494B61536101234B6002
S315080005D0536030BD000000B00000015B00000A5007
S315080005E0B48D0020000004500F220F4B0F489A626A
S315080005F04FF48072A3F5C043DA6000220C4903F574
S31508000600CC234A605A60027080F81C214A68900719
S31508000610FCD45A689207FCD4022205494A615A61F9
S3150800062001224A605A60704700000450000000B07A
S315080006300000015B4FF00A000138FDD170479A426D
S3150800064038BF8854704770472DE9F04F87B09846F1
S31508000650109B1646DDE91452019107469DF844E0C1
S31508000660129902F4806923B922F01002B9F1000F39
S3150800067020D112F0200F14BF412061201C46002310
S315080006800DF1080AA0F10A0BB4FBF1FC01FB1C4CA6
S315080006905FFA8CF0BCF1090F94BF30305844C0B2F1
S315080006A08C420AF8010B03F10103B4FBF1F001D304
S315080006B0102B10D112F0020A1ED102F001003DB132
S315080006C030B1BEF1000F02D112F00C0F00D0013D7F
S315080006D04FF0300C05E00446D6E702AC04F803C038
S315080006E00133139C9C4201D9102BF6D120B130203E
S315080006F09D4201D90F2B0BD9D00646D5B9F1000F6B
S3150800070047D11BBB102907D1910618D5582306E0F7
S3150800071002ACE0540133EBE7022912D162238DF8CB
S31508000720083030238DF809300223BEF1000F5DD062
S315080007302D215C1C18336B4403F8101C37E0782312
S31508000740EDE730238DF808300123EEE71398984239
S3150800075001D0AB421DD15C1E2046D3D010293CD116
S315080007609C1E930676D40F2C21D804F118030DEBA2
S315080007700304782304F8103C044604F11801631CAA
S315080007800DEB0104302104F8101C0F2BCDD91C46A3
S315080007900DE0102920D194065BD40F2BF7D87821C9
S315080007A05C1C18336B4403F8101C0F2CE5D993070F
S315080007B03CD0B146A1444846A9EB0402002C39D1E5
S315080007C0BAF1000F05D0A9EB06094D4506EB09005D
S315080007D037D807B0BDE8F08F1C460229E5D10F2CA3
S315080007E0E5D804F1180362216B4439E0500704D5B3
S315080007F05C1C18332B216B449EE71107C7D55C1C7C
S31508000800183320216B4497E7434620200199B847BF
S3150800081009F101094D450BEB0902F5D8A5EB0409C9
S31508000820A54238BF4FF00009B144C3E7A146A6EB7D
S31508000830040BEFE7013C02A843460199005DB8475F
S31508000840B9E70246434620200199B84709F101094C
S31508000850BBE71C460F2CAAD8582104F118036B4491
S3150800086003F8101C0134A0E72DE9F04F8DB01F46A0
S315080008700B1E0693A84B914614BF83469B4600253C
S31508000880169E387870B94D4538BF2A464B464FF004
S315080008900000069928BF09F1FF32D84728460DB04F
S315080008A0BDE8F08F252807F1010706D02A464B46F2
S315080008B006996C1CD8472546E3E700230DE02D2A48
S315080008C029D0302A06D0303A092A4FF0000812D823
S315080008D00A2431E043F001030F46394611F8012B8B
S315080008E02B2A1BD0EBD8202A1BD0232A1CD02A2A35
S315080008F02AD04FF000083A782E2A66D179787A1CE1
S31508000900A1F13000092843F4806355D817464FF003
S31508000910000A0A2428E043F00203DDE743F0040353
S31508000920DAE743F00803D7E743F01003D4E70F46A6
S3150800093004FB0822A2F13008394611F8012BA2F16E
S3150800094030000928F3D9D6E756F8048B0F46B8F1D4
S31508000950000FBCBF43F00203C8F10008CBE70F46FF
S3150800096004FB0A22A2F1300A394611F8012BA2F13A
S3150800097030000928F3D93A4612F8011B6C292CD005
S3150800098026D8682930D06A2938D017F8010B782874
S315080009908CD8632835D8622860D0632800F0D180C7
S315080009A0252883D0582881D15A0500F1848023F060
S315080009B00C0242F020024FE02A2905D156F8042BF2
S315080009C0023722EAE27AD6E717464FF0000AD2E75C
S315080009D07A29DAD143F480730BE079786C29F9D156
S315080009E043F440730237D0E77978682903D043F097
S315080009F080031746C9E743F0C003F3E743F40073DF
S31508000A00F7E70122A0F16404E4B202FA04F4434AC7
S31508000A10144019D1732800F0D18070287FF446AFAE
S31508000A2043F0210305930823CDE903A31023CDE959
S31508000A30014356F8043B2A46009358464B46069906
S31508000A40FFF702FE05461CE7782803F480611BD1F0
S31508000A5000295DD023F00D02102306E0590554BF86
S31508000A6023F00C0223F00D02022312F400717FF426
S31508000A7008AFD00506F1040452D5CDE90482CDE9C4
S31508000A80023A0191336834E06F2807D119B923F087
S31508000A900C020823E9E723F00D02FAE7692823F098
S31508000AA010020BD0642809D023F01C0209B123F0E8
S31508000AB01D020A23D9E723F00D027AE709B123F0CC
S31508000AC0110294053FF5DDAED00506F1040401D503
S31508000AD0336802E0510616D53378CDE904820A2236
S31508000AE0002B02924FEAD372CDF80CA00192B8BF40
S31508000AF05B4200932A464B4658460699FFF7A4FDE3
S31508000B0026460546BDE61306E2D5B6F90030E4E703
S31508000B1023F00C02A0E700BF4706000821081200D0
S31508000B20510608D53178CDE9023A0023CDE9048289
S31508000B30CDE90013DEE7316812F0800F18BF89B2DD
S31508000B40F1E713F0020424D04FF0010A6B1C079357
S31508000B502A464B46069916F8040BD84764B35446FA
S31508000B60079A1FE04B4620200699D84705EB0A024C
S31508000B700AF1010AD045F5D8B8F1000F08F1FF339C
S31508000B8008BF002308F1010A1D4408BF4FF0020AF6
S31508000B90DCE7A246EAE7551C4B4620200699D847CB
S31508000BA02A4601344445F6D3A8EB0A03D04538BF94
S31508000BB00023079A1A440792079D62E6324652F8BE
S31508000BC0041BBAF1000FCDE9071214BF52464FF0C5
S31508000BD0FF3239B10C460A44217809B1A24210D134
S31508000BE0079AA41A13F48062099202D0544528BFC2
S31508000BF0544613F002030A9317D1631B2A460B9334
S31508000C0007E00134E8E7561C4B4620200699D847EA
S31508000C1032460B9BD3184345F5D3A8EB0403A045EE
S31508000C2038BF002301341D441C44184E079B002B73
S31508000C3008BF33461E46EB1A0793079BF51816F8A6
S31508000C40010B30B1099B53B10AF1FF33BAF1000F1A
S31508000C5004D10A9BC3B12A46661B0CE09A464B464A
S31508000C602A460699D847E8E702F1010A4B462020AA
S31508000C700699D847524693199845F5D8A8EB040320
S31508000C80A04538BF00231D44089EFAE5E07408080D
S31508000C90054B9A6C9204FCD59A6C9107F9D5586461
S31508000CA09A6C9206FCD5704700000A5000B1EFE72F
S31508000CB0704700BF30B44FF480341D4A1D4B94660C
S31508000CC01B6F1A0B12F00E0FC3F303331BD101333C
S31508000CD041F67135184A03FB00F0D469D5635268AA
S31508000CE004F4803422F44012A1B9144B984294BFFC
S31508000CF0002001200305104913434B600CB1002363
S31508000D00CB6330BC7047072B0FD00F2B0BD0032BB0
S31508000D1007D0FEE70A4B984294BF0020012003053E
S31508000D20E9E70423D4E71023D2E70823D0E700BF76
S31508000D30009000500080005000000350005A6202E4
S31508000D40002D31010C4B1B6F03F00703022B10D04B
S31508000D50032B0BD0012B00D0FEE70848064B1B6F70
S31508000D60C3F303330133B0FBF3F07047044B586CFD
S31508000D70F4E7034B186CF1E700800050002D3101B1
S31508000D80B48D0020094B1B6F03F00703022B09D013
S31508000D90032B04D0012B00D0FEE705487047054B0E
S31508000DA0586C7047034B186C704700BF00800050A2
S31508000DB0002D3101B48D0020314BD3F8203103F0DA
S31508000DC00703062B5BD8DFE803F00C2A22040E1E65
S31508000DD0260002222B4B00BF00B1036001B10A6056
S31508000DE070470122F8E74FF0B4439A68C2F3044209
S31508000DF00C2A18D8DFE802F0261717171717373501
S31508000E002317201D1A00204B06221B6CE4E71E4BF5
S31508000E1003225B6CE0E71C4B04225B6CDCE71A4B95
S31508000E2005221B6CD8E707220023D5E70722174BB4
S31508000E30D2E70722164BCFE70722164BCCE7072245
S31508000E40154BC9E74FF0B4439B6803F04073B3F101
S31508000E50807F11D0B3F1007F0BD03BB11346072238
S31508000E60BAE70E4BB8E707220D4BB5E707220D4B3D
S31508000E70B2E707220C4BAFE707220C4BACE7FEE7BD
S31508000E8000800050002D3101B48D0020005A620206
S31508000E900048E80180BA8C01C0EA21010024F40068
S31508000EA0405DC60000093D0040420F0080841E00D8
S31508000EB000B583B00023B0F5807F009300F2088167
S31508000EC0B0F5807F00F20381DFE810F0140101011C
S31508000ED001010101010101010101010101010101F4
S31508000EE001010101010101010101010101010101E4
S31508000EF001010101010101010101010101010101D4
S31508000F0001010101010101010101010114010601AB
S31508000F1014010601220122012201220122010601F1
S31508000F20D0012A01380128022A0106010601060114
S31508000F300101010101010101010101010101010193
S31508000F400601060106011B020E0206010101010146
S31508000F500101010101010101010101010101010173
S31508000F600101010101012201140114011401E50125
S31508000F702A012A0164025802980245010101010169
S31508000F8001010101010180011401010101010101B1
S31508000F900101010101010101010101010101010133
S31508000FA00101010101010101010101010101010123
S31508000FB00101010101010101010101010101010113
S31508000FC00101010101010101010101017201010192
S31508000FD001010101010101010101010101010101F3
S31508000FE001010101010101010101010101010101E3
S31508000FF001010101010101010101010101010101D3
S3150800100001010101010101010101010101010101C2
S3150800101001010101010101010101010101010101B2
S3150800102001010101010101010101010101010101A2
S315080010300101010101010101010101010101010192
S315080010400101010101010101010101010101010182
S315080010500101010101010101010101010101010172
S315080010600101010101010101010101010101010162
S315080010700101010101010101010101010101010152
S315080010800101010101010101010101010101010142
S315080010900101010101010101010101010101010132
S315080010A00101010101010101010101010101010122
S315080010B00101010101010101010101010101010112
S315080010C0010101010101010101010101BB01FEE765
S315080010D0B0F5C07F0ED0FAE7A54B1B6F03F00703E8
S315080010E0022B00F0D582032B00F0CF82012B00F0F3
S315080010F0A382FEE79E4B1B6F03F00703022B00F04B
S31508001100C182032B00F0BB82012B00F08C82FEE724
S3150800111068460021FFF750FE009803B05DF804FB0F
S31508001120934B1B6F03F00703022B00F0E482032B9B
S3150800113000F0A282012B00F06682FEE78C4BD3F802
S31508001140403103F00303032B00F05882003B18BF1D
S315080011500123D803E1E7864BD3F8283103F00703C8
S31508001160013B052B00F23A83DFE803F00603090B7F
S315080011700603804B586CD0E77E4B186CCDE77E484B
S31508001180CBE74FF0B4439868C0F304400C2800F24C
S315080011907881DFE810F0EB017601760176017601B9
S315080011A0760109020702030276010102FF01FD0129
S315080011B06F4B1B6F03F00703022B00F05A82032BB9
S315080011C000F05482012B00F01C82FEE70022684BD7
S315080011D00192D3F8943203F00703013B032B00F284
S315080011E0FF82DFE803F011040217634895E7604BB6
S315080011F0D3F8403103F00303032B00F09482003B3D
S3150800120018BF0123D80388E701A80021FFF7D4FDFA
S31508001210019882E74FF0B4439868C0F304400C285D
S3150800122000F22581DFE810F0700123012301230174
S31508001230230123018E018C018A012301880186017D
S3150800124084014FF0E0231B6913F0040F484B00F0AC
S31508001250AD811B6F03F00703022B00F05E82032BA0
S3150800126000F05882012B00F04C82FEE70021404B2B
S315080012700191D3F8803103F00303022B00F0398281
S31508001280032B00F00882012B00D0FEE701A8FFF728
S3150800129093FD019841E7364BD3F8080200F00700A2
S315080012A0042800F29A8201A353F820F01B110008C3
S315080012B0C1120008C1120008C7120008CD120008A2
S315080012C04FF4004029E74FF47A7026E7284B1B6F46
S315080012D003F00703022B00F04382032B00F03D8244
S315080012E0012B00F03082FEE7214BD3F8403203F0A1
S315080012F00303032B00F06881003B18BF0123D803C2
S315080013000BE71B4BD3F8603103F00303032B00F004
S315080013105E81003B18BF0123D803FEE6144BD3F8C1
S31508001320000200F00700042800F2598201A353F8CE
S3150800133020F000BF1B1100084913000849130008D4
S315080013404F130008551300084FF40040E5E64FF424
S315080013507A70E2E6064B1B6F03F00703022B00F0D8
S315080013600582032B00F0FF81012B00F0E281FEE7E6
S3150800137000800050B48D0020002D3101954AD2F826
S31508001380703203F00303012B00F06581022B00F095
S315080013901981FEE700228F4B0192D3F8603203F0E1
S315080013A00703013B032B00F21C82DFE803F011045C
S315080013B002178948B1E6874BD3F8403103F0030397
S315080013C0032B00F0B381003B18BF0123D803A4E622
S315080013D001A80021FFF7F0FC01989EE64FF0B44300
S315080013E09868C0F304400C283FD8DFE800F0653E53
S315080013F03E3E3E3E7977B33EB1AFAD00754BD3F86E
S31508001400200200F00700042800F2EC8101A353F83B
S3150800141020F000BF1B1100084F1400082F14000805
S3150800142029140008291400084FF4004075E64FF007
S31508001430B4439868C0F304400C2820D8DFE800F0CD
S31508001440521F1F1F1F1F9492901F8E768C00614B90
S31508001450D3F8283103F00703013B052B00F2C381BB
S31508001460DFE803F00A0711130A07002055E60020F3
S3150800147053E65A4B586C50E6584B186C4DE600200C
S315080014804BE6002049E6544847E64FF0B4439868CF
S31508001490C0F304400C2800F28380DFE810F08201D4
S315080014A08100810081008100810080017E01980110
S315080014B081009601940192014FF0B4439B6803F0B2
S315080014C04073B3F1807F00F05681B3F1007F00F0DE
S315080014D05081434A002B08BF10461EE641481CE6C9
S315080014E041481AE64FF0B4439B6803F04073B3F1E2
S315080014F0807F00F04681B3F1007F00F04081384AD2
S31508001500002B08BF104608E64FF0B4439B6803F06B
S315080015104073B3F1807F00F03881B3F1007F00F0AB
S3150800152032812F4A002B08BF1046F6E52F48F4E50E
S315080015302F48F2E52D48F0E52E48EEE52E48ECE575
S315080015402848EAE52848E8E52948E6E52748E4E59D
S315080015502848E2E52848E0E52548DEE52548DCE5B3
S315080015602548DAE51F48D8E51F48D6E54FF0B443C5
S315080015709B6803F04073B3F1807F00F00C81B3F1F0
S31508001580007F00F0FA80164A002B08BF1046C4E513
S315080015901748C2E51548C0E51648BEE51648BCE535
S315080015A00020BAE50F48B8E50F48B6E5D3F840314C
S315080015B003F00303032B00F0A180003B18BF0123AF
S315080015C0D803AAE50020A8E54FF47A70A5E54FF4FC
S315080015D07A70A2E500800050002D3101B48D0020FC
S315080015E000093D000024F400405DC6000048E801FB
S315080015F0005A620280BA8C01C0EA21014FF47A705F
S315080016008BE5794889E57848784B1A6F1B6FC2F3E2
S3150800161003320132B0FBF2F0C3F380230133B0FB8F
S31508001620F3F0400879E57048704B1B6FC3F303333A
S315080016300133B0FBF3F070E56B486C4B1A6F1B6F08
S31508001640C2F303320132B0FBF2F0C3F38023013355
S31508001650B0FBF3F061E5D2F8403103F00303032B46
S315080016605ED0003B18BF0123D80356E5604B586C83
S3150800167053E55F4B186C50E55D4B586CC4E75C4B03
S31508001680586CD1E75A4B186CCEE7594B586CD4E7CF
S31508001690574B186CD1E74FF0B4439868C0F3044031
S315080016A00C2808D8DFE800F01107070707072123E9
S315080016B00F070D0B090000202FE54E482DE54E4873
S315080016C02BE54E4829E54E4827E54FF0B4439B687D
S315080016D003F04073B3F1807F5BD0B3F1007F56D03F
S315080016E0484A002B08BF104617E5474815E54748FE
S315080016F013E53D4811E53E4B186C85E74FF47A70C3
S315080017000BE53948394B1B6FC3F303330133B0FB81
S31508001710F3F002E5364B586CF4E7354B186CF1E7F5
S315080017204FF47A70F9E44FF47A70F6E44FF47A706D
S31508001730F3E42D4B2D4A126FC2F303320132B3FB89
S31508001740F2F3980AE9E4284B284A126FC2F30332E7
S315080017500132B3FBF2F3980ADFE4254B5B6CF3E73F
S31508001760234B1B6CF0E7224B5B6CE3E7204B1B6CAF
S31508001770E0E72748D1E42748CFE42548CDE42448C4
S31508001780CBE42448C9E42248C7E42248C5E42048F3
S31508001790C3E42048C1E41F48BFE41C48BDE41A4816
S315080017A0BBE44FF0B4439B6803F04073B3F1807F0A
S315080017B011D0B3F1007F0CD0124A002B08BF104697
S315080017C0ABE40C48A9E40C48A7E40C48A5E40C488B
S315080017D0A3E40F48A1E40F489FE4FEE7FEE7FEE70F
S315080017E0FEE7FEE7FEE7FEE7002D31010080005028
S315080017F0B48D0020005A62020048E80180BA8C01C4
S31508001800C0EA210100093D00405DC6000024F4003D
S3150800181040420F0080841E004FF48031184A194B4D
S3150800182091661B6F1A0B12F00E0FC3F303331AD10E
S31508001830013310B403FB00F041F67134124B134A1E
S31508001840984294BF00200120D169D46353685DF89B
S31508001850044B23F4401343EA00535360CB0344BFBD
S315080018600023D3637047072B08D00F2B04D0032B14
S3150800187000D0FEE70423DCE71023DAE70823D8E7DD
S315080018800090005000800050005A62020000035089
S31508001890074B53F82030CB40DB0708D50122054B10
S315080018A000EB4000000103448A401A607047FEE7D7
S315080018B0E077080840D00350FEE770B50446114E9D
S315080018C0114D736A1D44FF20FEF776FCFF2805D1EB
S315080018D0736AEB1A002BF6DC002011E0FE28FBD118
S315080018E004F50075FF20FEF767FC04F8010BAC420F
S315080018F0F8D1FF20FEF760FCFF20FEF75DFC012013
S3150800190070BD00BF00800450D014340010B401210B
S31508001910104B114A596000F00F0400BF536DC3F312
S315080019200B03002BFAD10C49946300BF4B6D13F0DF
S31508001930780FFBD100F001024307074948BF42F080
S31508001940020200BF8B6C03F003039342FAD15DF8E1
S31508001950044B704700100A5000000A500022144B2E
S315080019601A70144A144B586451644FF48071A2F5E6
S31508001970D02291609A6C9007FCD59A6C9106FCD59A
S315080019800C4B9A6C9207FCD59A6C9006FCD50A4AC1
S31508001990D16BDB6B0A2309498B6309498B63936C0B
S315080019A09907FCD4034A936C9B07FCD4704700BF85
S315080019B0000000B000000A500000015B0010015B47
S315080019C000100A5008B54FF4C070FFF771FA0649BF
S315080019D0064A884294BF00200120136F23F48063CF
S315080019E043EA8023136708BD80F0FA02008000509E
S315080019F0B0F5207F0DD0B0F5C07F00D0FEE7481EB9
S31508001A00012812D9102903D86E4BCB40DA070CD41B
S31508001A10FEE70139012907D86B4A136F23F480635F
S31508001A2043EA812313677047FEE74FF48031674A1C
S31508001A30654B91661B6F1B0B13F00E0F08D048F20F
S31508001A40880203F00F0322FA03F3DB0700D4FEE74C
S31508001A5010B541F671335E4AD169D3635368CC0336
S31508001A6023F4401343F48013536048BF00234FF414
S31508001A70803448BFD363544B54491A6F42F480628A
S31508001A801A670C671A6F22F4704242EA00321A6724
S31508001A901B6F03F00703022B76D0032B71D0012BA3
S31508001AA000D0FEE74B49484B4B4A1B6FC3F3033341
S31508001AB00133B1FBF3F100BFD2F88430D806FBD46A
S31508001AC04FF48030D2F88430404AC3F38113022B96
S31508001AD03D4B90661B6F4FEA1332C3F3033335DA77
S31508001AE012F00E0F53D1013301FB03F341F67132A5
S31508001AF038483749834294BF00230123C869CA631B
S31508001B004A6822F4401242EA0353C2034B6001D5E5
S31508001B100023CB634FF4C070FFF7CAF902462F4C77
S31508001B202949A24294BF002201220B6F802023F488
S31508001B30806343EA82230B67FFF7BAF9284B98427A
S31508001B4003D84FF48032274B1A6710BD12F00E0FD8
S31508001B5026D1013301FB03F341F6713420491C4AAF
S31508001B608B4294BF00230123D069D463516821F4C2
S31508001B70401141EA03535360C30344BF0023D363B0
S31508001B80C8E7194B596C8EE7174B196C8BE7072B6F
S31508001B9011D00F2B0DD0032B00D0FEE70423A3E7AB
S31508001BA0072B0CD00F2B08D0032B00D0FEE70423FD
S31508001BB0D0E7102398E7082396E71023CAE70823F7
S31508001BC0C8E700BF100101000080005000900050D7
S31508001BD000000350002D31010040005080F0FA0249
S31508001BE0005A620200A00050B48D0020084B186FFE
S31508001BF000F00700431E032B09D8DFE803F00602AE
S31508001C000304052070470820704702207047FEE746
S31508001C10008000502DE9F8434FF4C0250121A44C5B
S31508001C20A44AA54B656606465068596053689907E5
S31508001C30FCD43468A14B9C427DD9A14B9C427BD8ED
S31508001C40B788B7F5967F78D9B7F5805F76D2B6F8B4
S31508001C500680B8F5805F73D29A4A00BFD2F88450DE
S31508001C6015F01005FAD1D2F88430C3F38113012B8D
S31508001C7072D00022944B00BF19688C4202D359686F
S31508001C808C4205D90132192A03F11003F4D1002236
S31508001C908E4B03EB0212D2E90693002B60D1FFF7B5
S31508001CA0A5FF05284FF0000100F0AD80884A00BF67
S31508001CB0D36813F0060FFBD19368C2F808909368AF
S31508001CC083EA090313F4F81F39D17A4A48EA074721
S31508001CD0D760B368032B34D0092B00F02D81082B6D
S31508001CE001BF7C4AD2F8003143F00303C2F8003141
S31508001CF007270120337D727D9B0043EA82133269F0
S31508001D001343327B43EA42036A4A9360724B1C646C
S31508001D10694B1F61A3F580535860166916F00706CC
S31508001D20FBD0FFF763FF052800F08C80731E58422E
S31508001D305841BDE8F883FEE7FEE7FEE7FEE7FEE763
S31508001D40FEE7A2F5A032D2F8003123F0030343F0F0
S31508001D500103C2F80031CBE7604B9C4289D9FEE704
S31508001D605F4A934200F0F78014D85E4A934200F027
S31508001D70F68030D85C4A934200F0F4801ED95B4A5C
S31508001D80934240F0E3805A4B1B6F03F07F0349EA06
S31508001D90030984E7574A934200F0ED8027D9564A4B
S31508001DA0934200F0C28002F5740202F51052934283
S31508001DB040F0E9804E4BD3F89830E6E74F4A934215
S31508001DC002D04F4A934202D1494B9B6DDDE74D4AFB
S31508001DD09342F9D0FEE74C4A934200F0AA804B4A58
S31508001DE0934240F0D180424BD3F88030CDE7484A41
S31508001DF0934200F0AC80474A934240F0C3803C4B84
S31508001E00D3F88C30C1E72E48FEF754FF4FF48030E4
S31508001E10304B27491A6F42F480621A6708671B6FAE
S31508001E201A0B12F00E02C3F303332CD0072B00F063
S31508001E309F800F2B00F09980032B00D0FEE7042526
S31508001E40002133E761BBFEF77DFF844227D31D4B94
S31508001E50D3F88420D206FBD4D3F88430C3F3811395
S31508001E60022B80F28C800121FEF724FFFFF7AAFDE2
S31508001E708020FFF71DF8194B98429EBF4FF4803219
S31508001E80254B1A6752E75D1C002B47D0022D0DD152
S31508001E9004214FF4C070FFF7ABFD012106E7FEE70A
S31508001EA029464FF4C070FFF7A3FDCCE71146FDE6BF
S31508001EB00090005000C0015000E001509FBB0D008B
S31508001EC000B4C40400400050F0770808E07708081A
S31508001ED00000015000800050B48D0020005A6202B4
S31508001EE00048E8010024F400C0CF6A00405DC6003F
S31508001EF00080E00F007E56030090D00380841E0009
S31508001F0000093D0040420F00C0EA210180BA8C0159
S31508001F1080D54302006CDC0200A0005002214FF479
S31508001F20C070FFF765FD2946C0E6184BD3F8943014
S31508001F302BE7164B9B6F28E7154AD2F8003123F09A
S31508001F40030343F00203C2F80031D1E642E70F4B20
S31508001F50D3F8883019E70D4BD3F8843015E70B4BC7
S31508001F605B6F12E7094B5B6E0FE7102500219DE6B4
S31508001F70082500219AE6054BD3F8903005E7FFF7C8
S31508001F804BFC73E726E725E724E700BF0080E00F50
S31508001F900080005070B504461D4A00BFD2F8843050
S31508001FA0DD06FBD4D2F88430C3F38113A34221D0D3
S31508001FB0FEF7E8FE012C05461ED0EFF3108672B632
S31508001FC04FF000704FF480621249114B4866611E4B
S31508001FD08A401A6707E0D3F88420920606D4D3F815
S31508001FE08420900607D45A6E9101F4D506B962B6D4
S31508001FF0022C09D070BDFEE7074B984203D821464C
S31508002000FEF758FED9E7FEE72846BDE8704003E428
S315080020100040005000600050005A620208B50220D5
S31508002020FFF7B8FF00210748FEF744FE4FF480305B
S31508002030054B1A6F03F5805142F480621A670867E8
S3150800204008BD00BF00B4C4040080005008B5FEF700
S3150800205079FE114AD2F88430DB06FBD4D2F88430F4
S31508002060C3F38113022B14DA0121FEF723FEFEF7D0
S3150800207089FE0220FFF78EFFFFF7A4FC8020FEF7FB
S3150800208017FF064B98429EBF4FF48032044B1A67DF
S3150800209008BDFFF7C1FBEAE700400050005A62029C
S315080020A000A00050F0B587B06FF004024FF0500C56
S315080020B0AB4CAC4802F00F03043B12F0800F00EB68
S315080020C00201234440F0488101324C2A81F800C3BA
S315080020D0F0D14FF000454AF6CD300721A24CA34A6D
S315080020E06566546CA24B106404F00104D96300BF02
S315080020F0536B13F00B03FBD151684FF0004521F4E5
S31508002100F87141F4807140F2091740F203165160E4
S315080021104AF6CD319448976016614566556C116448
S31508002120126B05F0010511070BD59049914801E09E
S31508002130834218D00A6B01331207F9D48D4A9342A9
S3150800214011D0202001228C4B88499862A3F5805330
S315080021505A608B6A9F0606D4864B01E0013B02D083
S315080021608A6A9606FAD515B1804B844A1A6414B160
S315080021707E4B824A1A644FF000444AF6CD337A49B8
S315080021807F487A4A406E4C66516C136401F001012F
S31508002190536B1C06FCD4136A23F00F0343F00603A3
S315080021A0136209B1754B13640028A2BF4FF00042B1
S315080021B0744B5A66744BD3F84C21100340F1F880DF
S315080021C04FF6FF72A3F5FE431B88934200F0028187
S315080021D01C466B4B6D4A1B6F6D4903F00703032BB7
S315080021E0516400F0F480FFF701FD032852D04FF444
S315080021F0801545F60E024FF0A0604FF480315A4B19
S315080022005D66644BC3F88020634A906202F580528B
S3150800221091629A6DD103FCD45E498B6D5A00FCD449
S3150800222004F12805FF2DA8BFFF255C4A23020A6191
S315080022308A699BB202F0004242EA0542134343F020
S31508002240407343F03C038B610B6A554823F00F0338
S315080022500B628B6A4F4C184040F48030514E8862AE
S31508002260A36D36EA0303FBD14FF080714FF00046A9
S315080022704FF4803548484C4A81622369454F23F418
S31508002280700343F440132361866191629562BB6DC6
S315080022905B00FCD46C46454D0FCD0FC495E8030092
S315080022A084E80300FFF7A2FC052800F095804FF4A8
S315080022B000322D4B68465A66FFF7ACFC304CFFF7E8
S315080022C0ADFE236F23F0070343F002032367FFF7EE
S315080022D0BDFED4F82031264A23F0070343F0010354
S315080022E0C4F82031D4F8283123F0070343F001035A
S315080022F0C4F82831D4F8403123F0030343F001032E
S31508002300C4F84031D4F8603123F0030343F00103E5
S31508002310C4F86031D4F8403223F0030343F00103D4
S31508002320C4F84032D4F8003223F0070343F001031F
S31508002330C4F80032D4F8083223F0070343F0010347
S31508002340C4F80832536F43F001035367D36E23F082
S315080023503003D36607B0F0BD83F818C00132A9E68A
S3150800236000ED00E000E100E0009000500040095058
S315080023700040005040420F00006009503254FFFFF1
S315080023800080005000A000500080E00FB48D0020AF
S31508002390C01753020040005A0050005A2008C00BCC
S315080023A0C7FFFEFE030001000060005A8079080896
S315080023B0D3F8504114F0FF047FF40BAF4FF6FF72C9
S315080023C0144B1B8893423FF404AF1C4601E7FEF703
S315080023D0B9FC08E78C24FCE60F4CFFF71FFE236FB9
S315080023E023F0070343F001032367FFF72FFE4FF49B
S315080023F000320A4B68465A66FFF70CFCFFF70EFEDA
S31508002400236F23F0070343F002032367FFF71EFE3B
S3150800241054E700BF0001E00F008000500090005014
S3150800242010B55420FEF744FD074C0023014601E091
S31508002430802B06D018460133B1FBF3F2A242F7D837
S3150800244010BD7F2010BD00BF20A107002B4A00BF8A
S315080024501369002BFCDB5368D90720D502232749CB
S31508002460D36100BF0B69DB07FCD42023234ACB6169
S3150800247013699907FCD4214A1369002BFCDB4FF436
S3150800248040731E49D36100BF0B6913F00C4FFBD193
S3150800249001211B4B194A596053689B07FCD40368F2
S315080024A001791B07027D03F0E04390F805C043EA73
S315080024B0C16313438279C17943EA8C6343EA426371
S315080024C0027A43EA016343EA0253C26890F809C0F4
S315080024D0D201017C43EA0C4302F47E521343427C48
S315080024E090F812C043EA011343EAC203C17C034AC7
S315080024F043EA8C0343EA4103D3607047004002591C
S3150800250000600259F0B5514A146900BF1369002BDF
S31508002510FCDB5368DB0720D502234C4DD36100BF93
S315080025202B69DF07FCD42023484AEB6113699E0711
S31508002530FCD4464A1369002BFCDB4FF44073434D29
S31508002540D36100BF2B6913F00C4FFBD10125404B1B
S315080025503E4A5D6053689D07FCD4837842789B03A6
S3150800256043EA0243C27A13434268D20202F4C052D3
S315080025701343027A43EA0223427A43EA0213827A2F
S3150800258043EA8203314A00292ED101255361516B52
S31508002590436921F47F712F4F21F00301C3F3090327
S315080025A00B435363C17C467C90F812E090F800C058
S315080025B07D60176B284B3B401943C368007CDB03DF
S315080025C003F4FC130B4343EA003343EA062343EAC6
S315080025D00E131363BCF1000F00D0D561A20702D514
S315080025E010221A4BDA61F0BD4FF0010E9361516B60
S315080025F045691A4B21F0FF7121F4C03103EAC5334E
S315080026000B435363134B90F811C0877CC67C05783F
S31508002610C3F804E0C368007C5B0603F0FC4343EAA6
S3150800262080530F49106B01400B4343EA4C2343EA9E
S31508002630471343EA460313630DB11023D361E30737
S3150800264042BF0122014BDA61F0BD00BF00400259CA
S315080026500060025900500259EE0EE0FF0080FF01AB
S31508002660DDFD3F80F8B5114D55F8203023FA01FC01
S315080026701CF0010F19D006460C461746FFF708F955
S31508002680302104230A4D11FB0630A400EFF310860F
S3150800269072B60F22415907FA04F3A2404B40134081
S315080026A04B40435106B962B6F8BDFEE7E077080825
S315080026B030C00350D1B138B50C4610B95720FEF7D3
S315080026C0F7FB65498B68DB0711D5844241D8B0FB17
S315080026D0F4F2013AFF2A4B683CD8DD073CD40B6973
S315080026E023F07F4343EA02630B6138BDFEE74B687C
S315080026F0012B2DD18B6DDD07574B48BF64009B68B6
S3150800270003F0E003402B00F0888071D8002B00F01E
S315080027108F80202B40F09E80B4EBD00F1BD8E400AE
S315080027204301B3FBF4F14D4AA1F12003B2EBC30F09
S315080027304FEAC300C0F08880474A00BF536DD907E7
S31508002740FCD44549106300BF4B6DDB07FCD438BD8C
S31508002750FEE7FEE7FEE7FEE74B6D13F0280FFBD119
S315080027608B6C13F003034DD1886C10F001006CD10B
S315080027708B6C9C0745D504240625374B5968C90731
S3150800278044D59968C90702D51B69D9070AD50A230A
S3150800279031498B634B6D13F0500FFBD12E498B6C6F
S315080027A09B07FCD101212E4B59602B494B689B078F
S315080027B0FCD40B6923F07F4343EA02630B610121D2
S315080027C0284B254A5960536DC3F30B03002BFAD1E6
S315080027D0214995634B6D13F0780FFBD10CB140F08E
S315080027E002001D4A936C03F003038342FAD138BDF5
S315080027F0602B23D0802B2CD104EB440398428FD234
S31508002800FEE7FEE7042401200525B6E7196921F04D
S315080028107F4141EA02621A61D1E7134BA3FB002309
S31508002820B4EB930F03D804EB44014C0078E7FEE7BA
S31508002830B4EB101F01D8240172E7FEE7B4EB900F42
S3150800284001D8A4006CE7FEE7FEE71C46012009252F
S3150800285093E7FEE7FDE700BF00000A50F8FF7F0098
S3150800286000200A5000100A50ABAAAAAA2DE9F04780
S315080028700446007B802800F00D8194F80DE0BEF137
S31508002880030F00F206819D4A5368002B40F003812E
S315080028909A4B5A68D50718D59A68D10700F1288146
S315080028A00A23964A936300BF536D13F0500FFBD16A
S315080028B0924A00BF936C9B07FCD10121904B8F4A2B
S315080028C0596000BF53689F07FCD4002204214FF0CB
S315080028D0200A41F202094FF4A028B4F80EC0874B2B
S315080028E0874D884E884F4CEA0E0CB4F810E03161DB
S315080028F02961316129613161296131612961C3F831
S3150800290010A0DA609A60C3F814909A619A65C3F8C1
S315080029102480DA611A629A62DA625A631A65EF6487
S315080029201A635A6922F44C5222F00F024CEA020248
S3150800293042EA0E025A619A68616922F0804222F0E0
S31508002940E2020A43217E02430A439A60A16819B942
S315080029509A6842F000429A60E369002B55D09A7A49
S3150800296066481D7A5204866842EA8552674D3540A4
S315080029702A439D8805F4C0452A435D7842EA8502C4
S315080029805D7B42EAC5029D7B42EA05129D7842EAD2
S3150800299085228260D3E90425C6682A435C4D354002
S315080029A02A439D7942EA8522DD7942EA4522C260B8
S315080029B01A78012A00F0B580032A00F0AD80023AA1
S315080029C0012A00F2B2800220524AC2F8B4045A7AA6
S315080029D04C4D4A48AA621AB1C26842F40062C26003
S315080029E0DA7A5AB14548C26842F40042C2601A7B94
S315080029F0A0F5CE2002F00F02C0F880203F4AD87B0F
S31508002A00536A23F003030343536201203D4B3B4AB9
S31508002A10586000BF536DC3F30B03002BFAD105238F
S31508002A2036489363436D13F0780FFBD1334A00BFE2
S31508002A30936C03F00303032BFAD100297AD120788B
S31508002A40002834D12D4B5A68D6071AD59A68D50767
S31508002A5002D51B69DC070CD50A23284A936300BFF5
S31508002A60536D13F0500FFBD1244A00BF936C98079F
S31508002A70FCD10121224B214A596000BF53689907AE
S31508002A80FCD41E4A936CDB4313F4405FFAD1BDE8CD
S31508002A90F087FEE7FEE7536DC3F30B03002B3FF405
S31508002AA0F7AE536DC3F30B03002BF4D1F0E6012107
S31508002AB0144B124A00F00F04596000BF536DC3F35C
S31508002AC00B03002BFAD10D49946300BF4B6D13F02D
S31508002AD0780FFBD100F001024307084948BF42F0CE
S31508002AE0020200BF8B6C03F003039342FAD1C8E7D6
S31508002AF01B69DA077FF5E1AED2E600BF00000A508F
S31508002B0000200A5000100A50FF3F0D03E39BBDFF4B
S31508002B10FFF9F08700D00350C26842F00402C26091
S31508002B2051E7C26842F00402C2600220034AC2F8B2
S31508002B30B4044CE76068FFF7BDFD80E700E003508A
S31508002B402DE9F04188B08F4E0C4633781BB100232F
S31508002B508D4A337013708D4B984240F08E80DFF8A3
S31508002B60288298F80030A34254D0894A136B9907F3
S31508002B70FCD4864D6B68DB0702D5AB6C9F04F9D590
S31508002B800122844B5A606B6813F0020CFBD1012CAE
S31508002B9048D1814BC5F830C0EB60804B2B610223CE
S31508002BA06B6140F20143AB60784B6C605A6D12F072
S31508002BB0280FFBD14FF485729A635A6D12F0280FCD
S31508002BC0FBD19A6CD24312F4405FFAD16F4A536D27
S31508002BD0002BFCD1337096F81C3103B3FDF7D0FCFB
S31508002BE06F4B704AC3F8CC244FF48022C3F8C42430
S31508002BF00232C3F8C8241C22C3F8B424022203F5FF
S31508002C00A0435A6203225A63072203F5BE235A6376
S31508002C100023337088F8004008B0BDE8F081FDF75E
S31508002C20E3FCDDE7022C27D10F226E46584B5E4F98
S31508002C309A620FCF0FC697E80F0086E80F0068461E
S31508002C408DF800C0FFF712FE4FF470230520EB60E5
S31508002C50FEF75CFE4FF461415448FFF72BFD4FF435
S31508002C60A0224F4BC3F8CC244FF4C022C3F8C42487
S31508002C701422C3F8B424CDE7FEE74D4B9842CBD1D6
S31508002C80414A5378A342C7D04A4991F80E32002BDD
S31508002C90FBD13F48036BDE06FCD4454B5868C0B9E8
S31508002CA001205860012C18D140F60A415961424961
S31508002CB099600521D960142159610021D961384BE1
S31508002CC03E49C3F838174FF00211C3F834171821D4
S31508002CD030E098698506FCD5E4E7E31E012B2DD87C
S31508002CE00121374B042CC3F8A0104FF0100103F54F
S31508002CF08043996240F60A4103F5D83359612E4953
S31508002D0099604FF00501D9604FF0150159610CBF64
S31508002D104FF480714FF44741D961214B2949C3F8D3
S31508002D203017A1F54031C3F838174FF00211C3F830
S31508002D3034171C21C3F8201754706DE7052CFBD1F6
S31508002D4091F80E32002BFBD111490B6BD806FCD437
S31508002D50174B596811B999698904FCD510211A4B82
S31508002D60996240F60A4103F5D833596112499960C8
S31508002D700521D960152159614FF48071D961A3F5F0
S31508002D8000339DE7000000B0108F002000000A50B5
S31508002D900000045000200A5000000F18010000012E
S31508002DA000C00350020005009879080804AA110417
S31508002DB000C00550604F0120010400800200030096
S31508002DC000D003500200060000100450F8B50206B1
S31508002DD004460D4607D500213720FFF7F7FF0128DF
S31508002DE045D804F07F040C2C1FD0FDF705FA254BB7
S31508002DF0254893F84810FFF7A3FE0222234B244FD9
S31508002E00C3F8A020FF20FDF7D7F9224E7B6A1E449F
S31508002E10FF20FDF7D1F9FF2807D07B6AF31A002BAC
S31508002E20F6DCFDF7E9F9FF2021E044F04000FDF764
S31508002E30C3F9280EFDF7C0F9C5F30740FDF7BCF93D
S31508002E40C5F30720FDF7B8F9E8B2FDF7B5F97CB187
S31508002E50082C0FD18720FDF7AFF90A24FF20FDF7CC
S31508002E60ABF9030603D5013C14F0FF04F6D1F8BD0F
S31508002E709520F0E70120FDF79FF90C2CEDD1FF20F6
S31508002E80E9E700BFB48D002000C0055000E00350FC
S31508002E90008004500834820038B50D461C46114699
S31508002EA070BB6BB3184B93F84930DA072AD4174B23
S31508002EB09B78DB0658BF4902012C0FD11120FFF77A
S31508002EC085FF28B92846FEF7F8FCB0FA80F46409AD
S31508002ED0FDF792F9201E18BF012038BD1220FFF712
S31508002EE075FF0028F4D12846FEF7E7FC18B1013C27
S31508002EF005F50075F7D100210C20FFF767FFE7E716
S31508002F000420EAE70320E8E7B48D0020108F0020AC
S31508002F1038B5436A05468B420C4611D001230A464A
S31508002F2000F128014078FFF7B7FF002818BF4FF0D7
S31508002F30FF3403460CBF034601236C62184638BDAE
S31508002F400023FBE738B50023C3704FF0FF33436215
S31508002F500446FFF7DDFF002852D194F82830B4F86C
S31508002F602652EB2B09D01833DBB2012B05D94AF6CA
S31508002F7055239D420DD1022038BD4AF655239D4260
S31508002F8030D0B4F8332094F83530B2F5007F00D14C
S31508002F9093BB0320F0E7B4F8332094F83530B2F544
S31508002FA0007FE8D1002BE6D05A1E1A42E3D1E38E01
S31508002FB0002BDCD094F83830013B012BD7D8B4F875
S31508002FC03930002BD3D0B4F83B307F2B06D804F128
S31508002FD04800FDF7CDF8B0F5803FC8D3E38F002B46
S31508002FE0C5D007E00822074904F17A0083F016FEE7
S31508002FF00028D0D10020BFE75A1E1A42C9D1D6E709
S315080030000420B9E7E7740808F8B5012906460C460E
S315080030104ED9C36899424BD20378022B29D0032B89
S3150800302034D0012B44D101EB5105816901EB5521BF
S31508003030FFF76EFF10B14FF0FF30F8BDB1696F1C96
S31508003040C5F308053544304601EB572195F8285055
S31508003050FFF75EFF0028EED1C7F30807374497F855
S31508003060283045EA0320E3074CBF0009C0F30B00EC
S31508003070E3E7816901EB1421FFF74AFF0028DAD15B
S31508003080640004F4FF743444208DD6E7816901EBAB
S31508003090D411FFF73DFF0028CDD1A40006F1280082
S315080030A004F4FE742044FDF763F820F07040C4E78A
S315080030B00120C2E738B50023816804460568036124
S315080030C091B92B78022B01D9EB6963B92B890BB916
S315080030D0022038BDEB69C4E90513002BF8D0283562
S315080030E00020E561F5E719466A895AB92068FFF7AD
S315080030F08BFF431C014612D00128E9D9EB68984298
S31508003100F4D3E5E7EB68881E023B984203D3002315
S31508003110C4E90513DCE72B6A00FB0233DBE7012071
S31508003120D7E72DE9FF4700230B600E46FDF722F887
S315080031300028C0F2A181B74D05EB80035C68002C1E
S3150800314000F09C81346023783BB163782BB9B24B8D
S3150800315093F84930D90740F186810023C0B223701D
S31508003160607018B1032004B0BDE8F087042201217D
S315080031700220FFF777FA022206211046FFF772FAB5
S315080031800321A648FFF7DCFC0222A54BA24EC3F892
S31508003190A0200A20FDF703F896F849309A0740F16F
S315080031A08B8096F84910C9B211F00101DAD1204690
S315080031B0FFF7C8FE022840F024816F463A4604F518
S315080031C0F77304F22E211846FCF7D2FF10338B4210
S315080031D042F8040BF7D1002657F8041B002900F023
S315080031E008812046FFF7AEFE012800F20381B4F8F5
S315080031F03330D4F82490B3F5007F40F00981E68F88
S3150800320026B904F14C00FCF7B3FF064694F83820BB
S315080032102661531E012BA27000F2FA8094F835300D
S315080032206381002B00F0F480591E194240F0F080AB
S31508003230B4F8398018F00F0FA4F8088040F0E88039
S31508003240B4F83B0018B904F14800FCF791FFE18E89
S31508003250002900F0DD80724301EB181717448742F6
S3150800326000F2D680C01B9842B0FBF3FCC0F0D080B9
S315080032706C4B9C4500F2CC8009EB07004FF6F577BE
S31508003280BC450CF10203494400F2D28040F6F577BA
S31508003290BC45C4E90591E360206200F2E680B8F116
S315080032A0000F00F0B580501803EB430203F001034A
S315080032B003EB52030122CAE00321584886F8481056
S315080032C00A27FFF73DFCFF20013FFCF775FF17F0C3
S315080032D0FF07F8D139463846FFF778FD01288146B9
S315080032E007D00023AB70FCF787FF012386F8493027
S315080032F057E7DFF834A1DFF83481DAF824304FF4E1
S31508003300D57108209844FFF761FD01283DD1E946AB
S315080033100427CA46FF20FCF74FFF013F17F0FF07B7
S315080033200AF8010BF6D19DF80230012BD9D19DF888
S315080033300330AA2BD5D13C4F7B6AA8EB0303002B9D
S315080033401BDC7B6AA8EB0303002BCADD00213A20AD
S31508003350FFF73CFD0028C4D10427FF20FCF72CFF0B
S31508003360013F17F0FF0709F8010BF6D19DF8003069
S315080033705B063CD40423AB7025E04FF08041A920BE
S31508003380FFF724FD0028D7D1DBE73946A920FFF748
S315080033901DFD01288EBF012702274FF0A909DAF87B
S315080033A02430A8EB0303002B1ADCDAF82430A8EB48
S315080033B00303002B95DC4FF400711020FFF706FD80
S315080033C000288ED1AF70FCF717FF0421134886F842
S315080033D04810FFF7B5FB96F8493003F0FE0385E77A
S315080033E000214846FFF7F2FC0028D8D1DDE7142370
S315080033F0C1E703200136042E7FF4EEAE042807D178
S3150800340001E0042801D10120ADE601287FF6EFAEE0
S315080034100D20A8E6108F0020B48D002000C00550AE
S3150800342000D00350F5FFFF0F008004501068040118
S31508003430B4F85220C4E9059158EA0202E360206212
S31508003440E6D104F15400FCF793FE03229B0003F235
S31508003450FF13B6EB532FE061DAD32B8922700133C1
S315080034609BB22B81E38000207DE6B8F1000FCFD018
S3150800347050185B000222EAE70B2074E60C2072E67D
S3150800348008B54FF480454FF0FF300221434B444ABC
S31508003490444C9A60D3F8882042F47002C3F8882016
S315080034A0414AA56610664148414C5066C3F8D0109B
S315080034B0BFF34F8FBFF36F8F01204FF44031A3F551
S315080034C04063C3F88001D16018603A4B3A482161DD
S315080034D01B1A9E1020D0042B5CD0384D02462B4672
S315080034E00021B41E64080134D2F800E0D2F804C002
S315080034F001318C42C3F800E0C3F804C002F10802A7
S3150800350003F10803F0D8B6EB440F05D000EBC4036B
S3150800351005EBC4041B682360294B2A4CA34238BF19
S315080035209C4614D2DCF808306BB1DCE900120023A3
S315080035300439043A51F8040F013342F8040FDCF851
S3150800354008008342F6D30CF10C0CA445EAD31E48B6
S315080035501E4B98421CD2002403F1FF3CACEB000C36
S3150800356000F110032CF0070C08309C4450F8043C7A
S315080035705BB1002350F8082C043A00BF42F8044F08
S3150800358050F8041C01338B42F8D308308445EDD13A
S3150800359001F056F90346094CBCE700BF00ED00E010
S315080035A0000000080090005000A00044F7FF370014
S315080035B000800044005C0A08005C0A08ECFF03204F
S315080035C0D05A0A08DC5A0A08DC5A0A08DC5A0A08D9
S315080035D02DE9F0418CB040264FF48012464B022765
S315080035E05E669A664FF48023DFF838811422C8F89D
S315080035F02833002107A883F021FB06978DF8287049
S31508003600FEF70EFF6C463D4D099006A8FEF71EFF15
S315080036100FCD0FC495E80300032384E803000425AF
S3150800362001246846002103938DF81050ADF8124026
S315080036308DF80040FEF766FFD8F82833214643F494
S315080036408063C8F82833684603978DF81050FEF74C
S3150800365059FF80222A4B00215A6043F25E02294D07
S31508003660294F1C63DA61DC60A3F58033AF61C3F8C8
S315080036705011C3F84C11EF61C3F88011C3F87C11DF
S315080036802249234A01F5907C01F22111D56911627C
S315080036902049214829400143204FD16102F11C01EC
S315080036A0576221F0030747F0020741F002019762CB
S315080036B0C3F89011D768174902F10C053940014340
S315080036C0D1601749C2F810C0516125F0030141F0D5
S315080036D002019161602203F5005145F00205C3F825
S315080036E060510C654A63202199649E6403F58053F2
S315080036F05A620CB0BDE8F08100900050B87908080D
S31508003700000005500040045003000C00000000B003
S31508003710108F00200C80F000F03F00312C40025939
S315080037202840025900C0035007B500220121034B67
S31508003730009273F049FB03B05DF804FBF0740808C7
S315080037400F23044A936200BFD36A1B07FCD10323E5
S3150800375053637047000004502DE9F04F87B00B0CF7
S3150800376007460191029354D01A0400EB034A04ABAE
S3150800377083460124534EDFF85481039200931AE0DE
S31508003780C8F84040FCF7EAFE4F4B009852211C64EB
S31508003790FCF77EFE690CFCF77BFE690AFCF778FEEF
S315080037A04946FCF775FE0BF5803BC8F84040FCF728
S315080037B0A5FED34526D096F81C112BF07E45CBF3F3
S315080037C057090029DCD0FCF70FFFC8F84040FCF782
S315080037D0C5FE3D4B009852211C64FCF759FE690C46
S315080037E0FCF756FE690AFCF753FE4946FCF750FEFD
S315080037F00BF5803BC8F84040FCF780FEFCF7C0FE9E
S31508003800D345D8D1029B039A07EB0347019B9B1A22
S315080038100193019B03F5FF5A0AF11F0A5FEA5A3A18
S315080038204CD004AB0124274EDFF8A080DFF898B00F
S3150800383007EB4A3A00931AE0C8F84040FCF78EFEB8
S3150800384000982021CBF84040FCF722FE690CFCF7D3
S315080038501FFE690AFCF71CFE4946FCF719FE07F528
S315080038600057C8F84040FCF749FE574526D096F859
S315080038701C2127F07E45C7F35709002ADCD0FCF740
S31508003880B3FEC8F84040FCF769FE00982021CBF843
S315080038904040FCF7FDFD690CFCF7FAFD690AFCF7E8
S315080038A0F7FD4946FCF7F4FD07F50057C8F8404010
S315080038B0FCF724FEFCF764FE5745D8D107B0BDE8EF
S315080038C0F08F00BF000000B000E0035000D00350A6
S315080038D0064B586ED3F89430C0F30A10C3F30A1394
S315080038E09842B8BF1846013080007047000004505F
S315080038F02DE9F04184B00D46B04C00BF94F80E3265
S31508003900002BFBD1AE4A00BF93699B04FCD594F803
S315080039100D32AB4240F02E810121A948FFF710F97C
S31508003920012700231022A74EDFF8B88206F20441C9
S31508003930C4F80412C8F8A07084F80E72A4F8083205
S3150800394084F80A3218461D469C469E4694F80A3262
S31508003950904606EB43233768043300BFAFF3008075
S3150800396008784D7891F802C091F803E037F810000E
S3150800397037F8155037F81CC037F81EE040EA0540FE
S31508003980C3F800004CEA0E4CC3F804C008794D7918
S3150800399091F806C091F807E037F8100037F8155087
S315080039A037F81CC037F81EE040EA0540C3F808009F
S315080039B04CEA0E4CC3F80CC0087A4D7A91F80AC046
S315080039C091F80BE037F8100037F8155037F81CC097
S315080039D037F81EE040EA0540C3F810004CEA0E4CE2
S315080039E0C3F814C0087B4D7B91F80EC091F80FE020
S315080039F037F8100037F8155037F81CC037F81EE0AE
S31508003A0040EA0540C3F818004CEA0E4CC3F81CC03F
S31508003A1003F1200301F11001B8F10108A0D14FF418
S31508003A200018B4F80832C4F8041201339BB2A4F89B
S31508003A30083294F80A326449C3F10103DBB284F808
S31508003A400A32624B624FC1F8243194F80A32C3F144
S31508003A50010306EB43230433C1F82831C7F88080F5
S31508003A60BFF34F8FBFF36F8F00205A4B84465A62BD
S31508003A7094F80A32864606EB432305463668D4F898
S31508003A8004120433AFF30080AFF30080AFF3008075
S31508003A90087891F801C091F802E0CD7836F8100060
S31508003AA036F81CC036F81EE036F8155040EA0C40C9
S31508003AB0C3F800004EEA054EC3F804E0087991F809
S31508003AC005C091F806E0CD7936F8100036F81CC026
S31508003AD036F81EE036F8155040EA0C40C3F80800E0
S31508003AE04EEA054EC3F80CE0087A91F809C091F839
S31508003AF00AE0CD7A36F8100036F81CC036F81EE013
S31508003B0036F8155040EA0C40C3F810004EEA054E48
S31508003B10C3F814E0087B91F80DC091F80EE0CD7B50
S31508003B2036F8100036F81CC036F81EE036F8155080
S31508003B3040EA0C40C3F818004EEA054EC3F81CE0EC
S31508003B4003F1200301F11001013AA1D1B4F80832BA
S31508003B50C4F8041201339BB2A4F8083294F80A3266
S31508003B60C3F10103DBB284F80A32C7F8008004B057
S31508003B70BDE8F0810126184F05211148C7F8A06055
S31508003B80EDB2FEF7DDFF84F80D5294F80D3283B1DD
S31508003B90FF23124A0192124A01A802928DF80C30AC
S31508003BA0FCF750FB80220F4BC7F8A020C3F8A06093
S31508003BB0B2E60A4AFF2301920B4AEDE7604F01205D
S31508003BC000C00550608F002000000450F00F8034BC
S31508003BD000E100E00010045000D003502B0400144C
S31508003BE000DB2C0000E0035000AB2C007FB51B4C1B
S31508003BF0E36A83BB1A4B93F81C510DB1FCF7F4FC2E
S31508003C000126184B68461E649021FCF741FC0021EA
S31508003C10FCF73EFC0021FCF73BFC0021FCF738FCD6
S31508003C200021FCF735FC002102A8FCF731FC4FF413
S31508003C308003029A0399153A153903FA02F28B4062
S31508003C409A42094934BF02FA06F35B000E64E3623E
S31508003C500DB1FCF795FCE06A04B070BD108F00202A
S31508003C60000000B000E0035000D003502DE9F04FEB
S31508003C7085B017460191002A57D02D4B20F07E4477
S31508003C8093F81C3124F00304009302340BB1FCF7BB
S31508003C90ABFC00264FF00108DFF89C90B346C9F844
S31508003CA04080FCF75BFC234B02A8C3F84080022146
S31508003CB0FCF7EEFB610CFCF7EBFB6508610AFCF709
S31508003CC0E7FB2946FCF7E4FB019BEDB203EB060A8A
S31508003CD05F451ED80125184C2564FCF70FFC009B90
S31508003CE0256413B305B0BDE8F04FFCF749BCEB07F4
S31508003CF047BF9AF803109AF801009AF800101AF8C4
S31508003D00020CFDF72BFE0BF1020B01350AF1020A34
S31508003D10DEE7B5F5807FEAD1A61BC9F840800BEB34
S31508003D200604FCF7EBFB5E46B8E705B0BDE8F08F86
S31508003D30000000B000E0035000D0035030B5002367
S31508003D400F2504460846244903324B6023494B6035
S31508003D5023490B7023498D62234DEB6004F003035E
S31508003D601344224A9B08158E013BC3F30A0363F3E7
S31508003D700E151586158A906363F30E15831C9361D9
S31508003D8002F1200315820B67C1F8A0200122184B07
S31508003D901A640B6B9A07FCD10323164A53638B6488
S31508003DA072B60122144B1A640B4A53689B07FCD45B
S31508003DB001234FF48075094953604B600A4BDD6057
S31508003DC0630C43F4306353644B640C4B03EA5403AB
S31508003DD053644B6462B630BD0000015B00000A50B4
S31508003DE0000000B00000045000800350B48D00208D
S31508003DF000D003500020045000E00350FEFFFF7F70
S31508003E002DE9F8430026144B80461E7009B30F4669
S31508003E10DFF84C90114CD9F8300000BFBD1BB5F542
S31508003E20005F28BF4FF40055EA1C08EB060122F094
S31508003E300302FFF783FF00BF636B03F00303032B43
S31508003E40FAD1D9F830002E442844B742C9F83000D0
S31508003E50E4D84046BDE8F883000000B000000450EE
S31508003E60108F0020F0B50122284B294D1A6400F066
S31508003E700203002B14BF1446002400EA020216BFF0
S31508003E800230C2EB5002C2EB5002287818BF214B11
S31508003E9040FA04F104BF204B023211F001011DD093
S31508003EA001211E48016472B6100C40F43060586453
S31508003EB05A645A6430231A4A023403FB0423194805
S31508003EC001FA04F458660F20174B184958634C62D8
S31508003ED062B6516B0C42FCD0A878F0BD0F27104E85
S31508003EE05960B762A6F50046F1600121A140084372
S31508003EF0287059688907FCD40121596005219963FE
S31508003F00996C01F003010329FAD1C9E700D00350DF
S31508003F10000000B000000A500000015B00E00350FA
S31508003F200000045020000037002004500010045000
S31508003F3010B5002404600C6014601C6010BDF8B550
S31508003F400123134A134EC2F8D0300146FCF772FB20
S31508003F503364FCF76FFB1364FCF76CFB3364FCF704
S31508003F6069FB082400220C4FD7F8D450C6F8D03085
S31508003F70FCF760FB0648C5F34005C0F8D030FCF7EF
S31508003F8059FB013C45EA4202EED1D2430A80F8BD0C
S31508003F9000E0035000D0035000C00350064B9FEDCD
S31508003FA0077AD3ED097AF8EE677A67EE877AFCEE38
S31508003FB0E77A17EE900A7047008004502700703D94
S31508003FC0044BDFED057A93ED090AB8EE400A20EEB8
S31508003FD0270A704700C00450ACA8FB360EB40FB5CC
S31508003FE005AA52F8043B01460392009204484FF092
S31508003FF0FF32FCF739FC04B05DF804EB03B07047F8
S315080040003F0600080CB41FB506AC54F8043B0A4634
S315080040100094014604480394FCF726FC04B0BDE866
S31508004020104002B0704700BF3F06000807B500936E
S3150800403013460A4601460348FCF716FC03B05DF82A
S3150800404004FB00BF3F0600080EB42DE9F04F92B0FE
S315080040503A4D039095F83430182B36D84FEAC309F1
S31508004060013385F8343007AF1CAB292138461B9A33
S315080040700693FFF7DBFF002195F835300293304BA6
S3150800408093F84A3001937B567D5C002B4FEAC108B2
S3150800409043DD00262B4B08F1080B03EBC505444608
S315080040A009EB060315F8012B049312F0010FDDE95D
S315080040B0013008BF0346B4F5A07F4FEA520204F167
S315080040C0010A15DB5446D2B2EFE708242046FCF76E
S315080040D0F9F80146A4F10800FCF7F4F84FF4A072C9
S315080040E0013482F01FFEC82CF0D14FF0C009BAE7A0
S315080040F0154890F80C02082805D104980593FCF792
S31508004100E1F8059B0355DA455446D2B2CDD10136BE
S31508004110082EC4D101312829B5D1039B4BB10A4CCD
S31508004120012194F80B02FFF7E3FB94F80E32002BFB
S31508004130FBD112B0BDE8F04F03B07047108F0020D6
S31508004140B48D0020D0790808604F01200FB47FB5E0
S315080041500D4D08AC54F8046B28460221FEF7F0FC16
S3150800416033464FF0FF32009402A908480394FCF73F
S315080041707BFB044601212846FEF7E2FC204604B0F4
S31508004180BDE8704004B0704700000A50AD0C000846
S315080041902DE98048ADF5844D99B00120A549FFF772
S315080041A053FF0EAC0DAB1C60A34B98A80BAA9893B3
S315080041B01360FBF7DFFF002805DA0B219F48FFF79E
S315080041C0C5FF9F492FE29F4B810003EB80004268A1
S315080041D00AB10020107000200B448DF838000DA994
S315080041E00BA80EAA5C60FEF79CFF0446014693489E
S315080041F0FFF7ACFF002CE4D101209349FFF724FF19
S3150800420001209249FFF720FF914B0DAD28460CA9D6
S315080042102B60FEF786FF044600286DD1DDF830B026
S315080042200CAB2B68CDF860B21E4613F8012B2F2A6B
S31508004230FAD05C2AF8D000239A9333781F2B51D9E9
S315080042400DF52078202198AB0B22581882F0F6FC41
S3150800425000254FF0080906F1FF3AC6F1020707EBF9
S315080042600A031AF8014F202C08D92F2C01D05C2CF0
S3150800427063D1F25C2F2A5ED05C2A5CD01E44002DE6
S3150800428000F03F819DF88032E52B04BF05238DF8A9
S315080042908032202C77D93378202B8CBF002301233A
S315080042A09B008DF88B32989B98A80293FEF702FF25
S315080042B00446002840F0EE800DF5207A03909E997A
S315080042C00298FEF725FE0446002840F084809F9851
S315080042D00378002B59D19DF88B32580700F1E480FA
S315080042E0052409E0802398A88DF88B32FEF7E2FEB4
S315080042F00446002800F0DA80002221465548FFF7D8
S3150800430025FF554A55490120FFF79EFE54490120CD
S31508004310FFF79AFE4FF4FA60FBF741FFBFF34F8FA2
S315080043205049514BCA6802F4E0621343CB60BFF3AD
S315080043304F8F00BFFDE701339BE72E2C1BD0A94505
S3150800434040F2DF80220641BF484B04F07F04E418A0
S3150800435094F8F0454648214682F087FC002840F04C
S31508004360D080A4F16103192B9CBF203CE4B208F865
S315080043700540013573E7B9F10B0F00F0C280082537
S315080043804FF00B096BE704238BE7C47A04F03F036D
S3150800439014F008048DF8663217D09C9B989C03F19C
S315080043A02009B9F5001F31D29E99002993D0C9F387
S315080043B00807002F68D101319E919D9949BB208934
S315080043C0B0EB591F60D89E9185E70B22514682F0C3
S315080043D025FC0028E1D19DF88B32002C5CD15907C9
S315080043E064D49DF86632DA067FF57AAF9C9A9BF814
S315080043F00010C2F308020BF12803134403295A8B51
S3150800440004BF9B8A42EA03429A921BE7039B9E9348
S31508004410CAE76589013D15EA592535D12046FEF7D3
S31508004420F3FD01283CD9431C3CD0E168884221D3DE
S315080044309E9550E7FE740808C82F090816750808DF
S3150800444065760808108F0020257508083E75080847
S31508004450527508086C750808547508089B7508088D
S315080044607976080800ED00E00400FA05E077080808
S315080044705D75080802399D90023888423EBF6189F9
S31508004480256A00FB01559E9528343C44CDF8709268
S315080044909F9414E79DF88B32042C7FF42DAF1CE70C
S315080044A0022498E7012496E7042425E79DF98B3230
S315080044B0002B26DB9DF86632DB06F5D49BF8003028
S315080044C09F98032B08BF838AB0F81AA000F11C0036
S315080044D008BF4AEA034AFBF74BFE0646BBF8063016
S315080044E002460021804678480593FFF72FFE32469C
S315080044F001207649FFF7A8FD002E04DC32467449F0
S3150800450001E70624F8E601207249FFF79DFD012020
S315080045107149FFF799FD01217048FEF711FB704BB1
S31508004520012493F81C316F4D6F4F002B52D0FCF7C6
S315080045305BF82C64FCF712F8C72108A83C64FBF763
S31508004540A7FF2C64FBF7DAFFFCF71AF80120674986
S31508004550FFF77AFD00231F460493654B02930BF180
S31508004560280306939BF80030002B00F0AB80BBF8BD
S315080045700630059A934240F0A5809BF80130002B3F
S3150800458040F0A0805B4B93F8494014F0010440F0DA
S315080045909980F51B454528BF4546B5F5804F28BF88
S315080045A04FF480450DF5187905BB002C35D0224609
S315080045B0029898A9FFF75AFB029BA8EB0408234424
S315080045C0424601204C490293FFF73EFDB8F1000F21
S315080045D0C8DC27E02C64FBF7C1FFC7213C6408A8A8
S315080045E0FBF756FF2C64FBF789FFAFE7C7F3080311
S315080045F00393002B4FD1BBF80A20013A12EA57223F
S315080046001DD1A7B1584601990792FEF7FDFC079AF6
S315080046100190019B012B0DD802242246012037491F
S31508004620FFF712FD36490120FFF70EFD6EE6CDF8BD
S3150800463004A0EEE7019B013301D10124EDE7019BBC
S31508004640A3F1020CDBF80C30023B9C45E4D2BBF824
S315080046500A00DBF8201000FB0C110029DCD0B5F5A8
S31508004660007F114416D302EB552C84454FEA552397
S3150800467088BF831A0A469BF8010049460393FEF74A
S315080046800BFC0028D9D1039B5B02ED1A1C44994404
S315080046901F4489E70491039B5846C3F50073AB4250
S315080046A028BF2B4604990793FEF732FC0028C4D18D
S315080046B0079B03991A46069B4846194482F032FB23
S315080046C0079BE2E70924A8E76C75080883750808BC
S315080046D04C760808AF750808CA75080800000A501D
S315080046E0000000B000D0035000E00350EE75080843
S315080046F004000012B48D00202476080807760808FE
S315080047003A7608087FB504460D460A4E0221304619
S31508004710FEF716FA23464FF0FF3203A9009506481E
S31508004720FCF7A2F8044601213046FEF709FA2046AE
S3150800473004B070BD00000A50AD0C00080FB407B5F0
S3150800474004AC54F8045B0448FFF700FD21462846EC
S315080047500194FFF7D7FFFEE7D67708080346054A10
S315080047600549D06C03448B428CBF4FF0FF30D364AD
S31508004770704700BFB48D0020000004204FF0FF30C2
S31508004780704700BFFEE700BF002070470120704752
S31508004790012070474FF0FF30704700BF0020704778
S315080047A000207047002070470348044B834202D01C
S315080047B0034B03B118477047CC8E0020CC8E0020DF
S315080047C000000000064B0749C91A891048BF013185
S315080047D0491003D0044B0BB101481847704700BF76
S315080047E0CC8E0020CC8E00200000000010B5064CB0
S315080047F0237843B9FFF7D8FF044B13B10448AFF346
S3150800480000800123237010BD72FF03200000000002
S31508004810F0340A0808B5054B1BB105490548AFF33E
S315080048200080BDE80840FFF7CDBF00BF00000000CC
S31508004830F88E0020F0340A08A3F5803A704700BFC6
S31508004840174B002B08BF134B9D46FFF7F5FF0021BA
S315080048508B460F461348144A121A82F0EFF90E4B8C
S31508004860002B00D098470D4B002B00D0984700200E
S31508004870002104000D000D48002802D00C48AFF3B3
S31508004880008073F0E9F92000290000F013F872F0AF
S31508004890D1FF00BF00000800000000000000000073
S315080048A0A88D0020CC8E0020ECFF0320000000001D
S315080048B0000000002DE98048B1B0002342F26A31B9
S315080048C02A4A2B4801338B4242F8040BFAD1294D68
S315080048D015ACFDF7E7FB0FCD0FC495E8030084E898
S315080048E00300FDF783F90528234D15AE1BD04FF4B9
S315080048F0003330466B66FDF78DF9204D01214FF4E4
S31508004900207009ACFDF774F80FCD0FC40FCD0FC496
S3150800491095E80F0084E80F00002109A850F8043B29
S315080049205A091CD1FEE7164CFDF778FB236F23F0D6
S31508004930070343F001032367FDF788FB4FF40033B1
S3150800494030466B66FDF766F9FDF768FB236F23F0C3
S31508004950070343F002032367FDF778FBCDE7012A37
S3150800496010D0022A00F03782FEE700BF00000020C0
S31508004970DEADBEEF507E080800900050687E08083D
S3150800498000800050C44A012403F01F03214402F5A5
S31508004990805204FA03F30C291360BFD14FF4E012D6
S315080049A0BE4BBF495A604FF0FF321C63DA61DC60C8
S315080049B003F5804359601C63DA61DC60A3F588233C
S315080049C0C3F880421A6F002122F480321A674FF02A
S315080049D030404FF4A04282F031F9B24B04221C64F5
S315080049E005210020FDF73EFE042206210020FDF7E2
S315080049F039FE6922AC49304682F094F9042207212F
S31508004A000220FDF72FFE042200210220FDF72AFED0
S31508004A10052203210220FDF725FE0221052208466C
S31508004A20FDF720FE30240021A04804FB01F303F122
S31508004A30A04303F570331A6B013122F0701202435A
S31508004A4004291A63F1D101244FF08008954D3220CC
S31508004A50C5F8A040C5F8A080FBF7A1FB3220FBF7FC
S31508004A609EFB3220FBF79BFB40F60A42904B914F88
S31508004A705C605A61904A30469A600522DA601422D0
S31508004A805A610022DA618D4BC7F838374FF00213A6
S31508004A90C7F834371823C7F82037FBF7D3FB204667
S31508004AA0C5F8A080FBF77BFB854BC3F8A0404FF405
S31508004AB016340020FBF7A8FB013CFAD1814F05AB61
S31508004AC0D7F82517D7F8210797F8292703C30DF133
S31508004AD0140840461A70FBF7B5FB80230125714A76
S31508004AE00120C2F8A030FBF75AFB754BDFF820B25D
S31508004AF0C3F8A0502846FBF752FB21464CF2102279
S31508004B00584682F09BF8082207F22A73CBF8003041
S31508004B100BF5404383F80C22FB224FF0040AA3F856
S31508004B200822694B694A83F84A50694B694983F8F0
S31508004B3035405F4BDFF87C91C3F814A0A3F5E0334A
S31508004B405D6051614FF48032C3F81C21624AC3F894
S31508004B502C211022C3F83041C3F8204103F58053B5
S31508004B605A659A6360225D4B83F815234FF4001249
S31508004B701A604FF43E4221460BF2044082F05EF87A
S31508004B8020465749FFF760FADFF810B12846554A1C
S31508004B905549FFF759FA554A28465549FFF754FA31
S31508004BA0DBF82430294620460193FEF7A1FE294664
S31508004BB02046FEF79DFEDBF82420019B4D49D31ABB
S31508004BC00A222846B3FBF2F2FFF73EFA72F0CEF855
S31508004BD0494902462846FFF737FA484A28464849C7
S31508004BE0FFF732FA47492846FFF72EFA4FF4FA70CC
S31508004BF0FBF7D5FA2B4A2146204615640522FDF710
S31508004C0031FD052221462846FDF72CFD02222846BD
S31508004C101146FDF727FD052229462846FDF722FD00
S31508004C20052202201146FDF71DFD514602222046A7
S31508004C30FDF718FD514605220220FDF713FD324BFC
S31508004C40C9F8AC54C9F8A4344FF00113C9F8A8340C
S31508004C501C232E4AC9F89434C9F8CC244FF4802270
S31508004C601C4907F23477C9F8C424C9F8C814C9F826
S31508004C70B43497E80F00274688E80F00DFF89490C9
S31508004C80DFF894A058F8045B6B68002B46D06F6079
S31508004C906B689907FCD441E064800050008004509A
S31508004CA00000FC0F00D00350987E08081000700022
S31508004CB000C0055000C00350010400800200030034
S31508004CC000E00350E0770808B48D00200040045047
S31508004CD0108F00200200040044C0055000E100E0E7
S31508004CE08D760808B3760808BF760808CD760808D2
S31508004CF0D6760808E4760808FE76080800800A00D2
S31508004D00157708082977080801000200020005003F
S31508004D10608F002000000F180100002802232F636F
S31508004D20C5F80C90C5F810A06B6140F20143AB6062
S31508004D3001236B606B6D13F0280FFBD14FF485735D
S31508004D400A20AB63FBF72BFA6B6D002BFCD1013401
S31508004D50042C97D11023904AD16B013B04910499F6
S31508004D60FAD14FF48073102493638C4BDA6B013CB1
S31508004D700492049AFAD14FF480729A630123884DFB
S31508004D80B4466B600F234FF030082746DFF8709261
S31508004D90DFF870E2DFF870A2DFF810B2AB6299E8CC
S31508004DA00F0086E80F005CF8042B0EEB84035A60AC
S31508004DB008FB0453A21E012A1F66DF650DD8794A2F
S31508004DC0022C5A66784ADA661F671BD1774B03248A
S31508004DD0C5F8C830E3E7764AD5E5764A012C5A661F
S31508004DE006D0C5F86CA001242F67C5F868B0D6E7C9
S31508004DF0714B0224C5F89C30704BC5F8A070C5F8F5
S31508004E009830CCE76D4B654CC5F8F8300723624AF5
S31508004E106363536308220125694BDFF8CC919A67CF
S31508004E206420C3F88420DFF8B081FBF7B8F902A83C
S31508004E305021C9F84050FBF72BFB1121C8F8405008
S31508004E40C9F84050FBF724FB0021FBF721FBC8F803
S31508004E504050FBF753FB6420FBF7A1F967606268D3
S31508004E6012F00202FBD101235649216163604A4BC5
S31508004E705A605A689207FCD4012219615A60FEF7F3
S31508004E80B5FEFBF77DFBFEF7B1FE021EBCBF02F5C1
S31508004E907F2202F6FF7201204B491215FFF7D4F85C
S31508004EA04A4B01201C465A6C4949FFF7CDF840F297
S31508004EB09243626C0124B2FBF3F2012012034549C6
S31508004EC0FFF7C2F8444B20461C644449FFF7BCF878
S31508004ED020464349FFF7B8F842492046FFF7B4F899
S31508004EE0C820FBF75CF9404B21461C642A48FDF7AD
S31508004EF027FE224621460320FDF7B4FB00210422A3
S31508004F000846FDF7AFFB042200210320FDF7AAFBA4
S31508004F103046FFF714F8BDF8545020462A46334960
S31508004F20FFF792F82946324805F0E105FFF70EF932
S31508004F30E12D01D1FFF72CF921461748FDF700FEB0
S31508004F4071F018FF75F0C5FE2A4B41F2F422186875
S31508004F50002181F073FE00200BF0FCFEFFF730F80D
S31508004F60DFED257A30EE677A244CFFF729F8D4ED81
S31508004F70007AB0EE408A77EEA77A30EE470AF4EE6A
S31508004F80C07AF1EE10FA58BF37EE008A0BF0A4FC8F
S31508004F90B0EE487AE9E700BF00000A500000015B5E
S31508004FA00000045020008037020000B03C00015B7E
S31508004FB06880005080008317120000B03C000A5039
S31508004FC000800350010000014A770808B48D0020CC
S31508004FD0617708086D77080800D00350C82F0908BC
S31508004FE0797708089677080800E00350B17708082B
S31508004FF0C3770808A8C50808CDCCCC3D7452012053
S31508005000247F080800400450100000B0704700BF15
S31508005010704700BF704700BF704700BF0020704749
S31508005020704700BF30B52DED068B93B04CF2A852F1
S315080050304FF63523C0F608021468C3F68E4304F506
S315080050408A6292ED008A08EE903A28EE288AB0EE37
S31508005050480A6CF027FCB0EE409AB0EE480A6CF0AD
S315080050604FFC04F24C4393ED008A28EE288AF0EEB2
S31508005070409AB0EE480A6CF015FCB0EE40AAB0EEC5
S31508005080480A6CF03DFC04F25443D3ED007A67EE0F
S31508005090A88AB0EE408AB0EE680A6CF003FCF0EE1F
S315080050A0406AB0EE680AF0EE668A6CF029FC4FF6A4
S315080050B060704FF08B43C2F20300F0EE407A00EEC8
S315080050C0103AB0F90030F1EE4A3A04EE103A4FF6CB
S315080050D05C714FF65E72B8EEC44A29EE087A94ED12
S315080050E08C6ACDED043A69EE273AC2F20301B1F9AA
S315080050F00030C2F2030204EE903AB2F9003029EE0B
S31508005100883A68EECA6AA4EE476AD4ED8B5A05EE69
S31508005110103A8DED037A67EEE97AB0EE637AE4EE3B
S31508005120435AA9EEA67AE9EE267AD4ED8D2AF8EE48
S31508005130E44AB8EEC55AE4EEC75A35EE225AA4EE4A
S31508005140E76A04F50B7584EDC45AC4EDC25A84EDBA
S31508005150C36A284605AA02A98DED023A0CF0C6FFD5
S31508005160002000214FF0000CCDE90801CDE90A0125
S31508005170CDE90C01CDE90E01CDE91001D4F8000501
S3150800518008A980692A4600EE10CA05ABF7EE000AA0
S3150800519000913030614671F015F9D4ED8C3ADDEDA9
S315080051A00B7A94ED8B4A9DED0A7A9DED035A77EEBC
S315080051B0E37AD4ED8D4A9DED0C0ADDED025A37EE01
S315080051C0447A67EE857A30EE640A9DED046AE7EE66
S315080051D0257AF7EE006AE0EE067AC7FEA67A80EE32
S315080051E0270A73F021FE42F6E063CCF2652307EE48
S315080051F0903A20EE270AD4F80803D4F80C13D4F80A
S31508005200102384ED8E0AC4F82C02C4F83012C4F8B0
S31508005210342213B0BDEC068B30BD00BF4FF6737356
S31508005220C2F203031B78012B2BD110B54CF2A853FD
S31508005230C0F608031C6894F89635DB0722D545F6B0
S315080052404030C2F2030074F0EDFD45F6403002210D
S31508005250C2F2030074F039FE002347F64C7094F846
S315080052609625C4F89C3563F30002C4F89835C4F84B
S31508005270A03584F89625C0F60800BDE8104075F0FC
S31508005280ADB9704747F63470BDE81040C0F608005F
S3150800529075F0A4B9704700BFF0B5C1B04FF6737387
S315080052A0C2F203031C78012C01D041B0F0BD06F010
S315080052B09DF80228054661D101F0A2FD204606F0B8
S315080052C09BF80146684681F025FD47F67C716846DD
S315080052D0C0F6080174F066FE47F684706946C0F6A3
S315080052E0080075F07BF94CF2A853C0F608031C6851
S315080052F0684604F5B46174F0E2FF0746C4F89C05F5
S3150800530000285FD0002384F8345548F64075B4F871
S3150800531096251E4602F0050242F00202A4F89625DA
S31508005320C2F2000506E02D2831D10126D4F89C7575
S31508005330D4F89835F8180133421CC4F898352A6011
S31508005340FEF790FD0A28EED14EB1B4F896351A4606
S3150800535043F3CC035B4263F3CF02A4F896250021FE
S31508005360084610F0D1F9D4F8C8351BB394F8963529
S315080053706FF3820384F8963541B0F0BD47F65C704A
S31508005380C0F6080041B0BDE8F04075F027B9B4F89A
S315080053909635D4F89C751A4643F3CC0303EB83037E
S315080053A000EB4303303B63F3CF02A4F89625D4F809
S315080053B09835BFE701224021242072F047F8C4F847
S315080053C0C805D3E747F69C70C0F6080075F006F9DD
S315080053D0FF23C4F8A07584F86D3566E7F0B583B089
S315080053E04CF2A85345F6B021C0F608031B68C2F272
S315080053F0030103F2AC5091ED007AD0ED007A37EE56
S31508005400677AB5EE407A45F6A822F1EE10FAC2F2AE
S31508005410030293F896151568D3F8A8256FF3820149
S31508005420A5EB020583F8961505F1FF353FD0002355
S31508005430C4F27A4307EE903A67EE277AFDEEE77AEA
S3150800544017EE906A07EE905A0024F8EEE76AC4F25F
S315080054507A44C6EE877A07EE104A67EE877AFDEE3B
S31508005460E77A44F6D35317EE90CA4FF47A7E47F696
S31508005470B470C1F2620383FB0C434FEAEC77C7EBC7
S31508005480A3170EFB17C4324629463B46C0F608004A
S31508005490009475F0A3F847F6B4703B4632462946A1
S315080054A00094C0F60800FEF751FE03B0F0BD4FF4B5
S315080054B07A76B7EE007AC5E710B54CF2A853C0F66F
S315080054C008031C6894F896359A0700D410BDD4F8DA
S315080054D0C40571F031FED4F8C80571F02DFE00231D
S315080054E0012194F89625C4F8C83563F3410284F877
S315080054F09625D2B2C4F89C35530784F83415E5D5F9
